:020000040800F2
:1000000058560024A1030008A5E60008DBA8000854
:1000100069DB00080D0C0008C91A01080000000087
:10002000000000000000000000000000E1020008E5
:10003000E13F0008000000003D0300080F07010831
:10004000BF030008BF030008BF030008BF03000888
:10005000BF030008BF030008BF030008BF03000878
:10006000BF030008BF030008BF0300087D34000879
:100070008934000895340008A1340008AD34000824
:10008000B9340008C5340008BF030008094100085E
:1000900015410008BF030008BF030008BF030008A4
:1000A000BF030008BF030008BF030008BF03000828
:1000B0009D080108BF030008BF030008BF03000834
:1000C000BF030008BF030008BF030008BF03000808
:1000D000FDFC00083D180108BF030008BF0300082D
:1000E000F13F0008BF03000800000000BF03000844
:1000F000BF030008BF030008BF030008D134000895
:10010000BF030008BF030008BF030008BF030008C7
:10011000BF030008F10D0108BF030008BF0300087A
:10012000DD340008E9340008F53400080135000822
:100130000D350008BF030008BF030008BF03000817
:1001400000000000000000000000000000000000AF
:10015000BF030008BF030008BF030008BF03000877
:10016000BF030008BF030008BF030008BF03000867
:10017000BF030008BF030008BF0300080000000021
:10018000BF030008BF030008BF030008FD0D0108FE
:10019000BF030008BF03000809FD0008BF030008F3
:1001A000BF030008BF030008BF03000800000000F1
:1001B000BF030008BF030008BF030008BF03000817
:1001C000BF030008BF03000800000000000000009B
:1001D0000000000000000000BF0300080000000055
:1001E000000000000000000000000000000000000F
:1001F0000000000000000000BF030008BF0300086B
:10020000BF030008BF03000800000000BF03000890
:10021000BF030008BF030008BF030008BF030008B6
:10022000BF03000800000000BF030008000000003A
:10023000BF030008BF03000800000000BF03000860
:10024000BF030008BF030008BF030008BF03000886
:10025000BF030008BF030008BF030008BF03000876
:10026000BF030008BF030008BF030008BF03000866
:10027000BF030008BF030008BF0300080000000020
:10028000BF030008BF030008BF030008BF03000846
:1002900000000000BF030008BF03000800000000CA
:1002A00000000000BF030008BF030008150E01088E
:1002B00001180108BF030008BF030008214100081E
:1002C000BF030008BF030008BF030008DFF80CD01D
:1002D00000F00AF900480047514901085856002427
:1002E0002C4B19680868B0E8F04F80F30988BFF319
:1002F0006F8F4FF0000080F31188704700000000FE
:1003000008480068006880F308884FF0000080F318
:10031000148862B661B6BFF34F8FBFF36F8F00DFF3
:1003200000BF00BF08ED00E0DFF80C00016841F4F9
:1003300070010160704700BF88ED00E0EFF30980B5
:10034000BFF36F8F134B1A681EF0100F08BF20ED1C
:10035000108A20E9F04F106009B44FF0500080F38C
:100360001188BFF34F8FBFF36F8F16F07DF94FF0F9
:10037000000080F3118809BC19680868B0E8F04FE4
:100380001EF0100F08BFB0EC108A80F30988BFF38D
:100390006F8F704768130024EFF3058070470000EB
:1003A000074880470748804707480047FEE7FEE7C1
:1003B000FEE7FEE7FEE7FEE7FEE7FEE7FEE7FEE715
:1003C000ED400008C5070108CD0200082DE9F05FE7
:1003D0000546002092469B468846064681464024B4
:1003E0001BE0284641464746224600F053F8534654
:1003F0005A46C01A914110D311461846224600F0C1
:1004000016F82D1A67EB01084F46224601200021FD
:1004100000F00DF817EB00094E41201EA4F1010475
:10042000DFDC484631462A464346BDE8F09F202A95
:1004300004DB203A00FA02F1002070479140C2F13B
:10044000200320FA03F319439040704740EA010368
:100450009B0703D009E008C9121F08C0042AFAD27A
:1004600003E011F8013B00F8013B521EF9D270473E
:10047000D2B201E000F8012B491EFBD270470022E6
:10048000F6E710B513460A4604461946FFF7F0FF93
:10049000204610BD202A04DB203A21FA02F0002178
:1004A000704721FA02F3D040C2F120029140084384
:1004B0001946704770B521F0004303430CD0C1F3D7
:1004C0000A550024D5EB040564EB0403D617AD1AD6
:1004D000B34102DB0020014670BD201841EB025100
:1004E00070BD002070470000064C074D06E0E06834
:1004F00040F0010394E8070098471034AC42F6D36B
:10050000FFF7E8FE7C850108BC85010870B58C18F2
:1005100010F8015B15F0070301D110F8013B2A1117
:1005200006D110F8012B03E010F8016B01F8016B04
:100530005B1EF9D12B0705D40023521E0DD401F800
:10054000013BFAE710F8013BCB1A921C03E013F8C9
:10055000015B01F8015B521EF9D5A142D8D30020FE
:1005600070BD00009FED280A016891F90C10012967
:1005700031D04A1C2FD0B7EE001A4168D1ED041AD1
:10058000D1ED020AF5EEC01AF1EE10FA04D1F5EE43
:10059000C00AF1EE10FA03D091ED030A30EE610AC1
:1005A000B5EEC00AF1EE10FAF1EE401A174B70FEEC
:1005B000211A11EE902A9A421BDDB5EEC00AF1EE27
:1005C00010FA0DDDDFED121A30EE210A40EE010ABD
:1005D000C1ED020A11E000EE901AB8EEE01ACCE785
:1005E000DFED0C1A30EE210A40EE010AC1ED020ADD
:1005F00003E040EE010AC1ED020A406890ED030AF3
:1006000080ED040A7047000000000000DB0F494045
:10061000DB0FC9C0DB0FC94010B59FED3B0A026874
:1006200092F9001001293BD04B1C39D0B7EE001ACB
:100630004168D1ED091AD1ED070AF5EEC01AF1EEC5
:1006400010FA04D1F5EEC00AF1EE10FA03D091EDE4
:10065000080A30EE610AB5EEC00AF1EE10FAF1EECA
:10066000401A2A4C30FE212A12EE103AA3421CDC1A
:10067000B5EEC00AF1EE10FA254C70FE211A11EE0B
:10068000903AA34202DD137A012B0ED040EE010A0C
:10069000C1ED070A406890ED080A80ED090A10BD17
:1006A00000EE901AB8EEE01AC2E7B5EEC00AF1EE1D
:1006B00010FA14DD127A012A08D0DFED161A30EE96
:1006C000210A40EE010AC1ED070AE3E7DFED121A45
:1006D00030EE210A40EE010AC1ED070ADAE7127A8C
:1006E000012A08D0DFED0D1A30EE210A40EE010A92
:1006F000C1ED070ACEE7DFED0A1A30EE210A40EE1F
:10070000010AC1ED070AC5E700000000DB0F494000
:10071000037E3A3EDB0FC9C0037EBABEDB0FC94081
:10072000037EBA3E01220248114606F06FBC00006B
:100730000008025800220248012106F067BC0000B0
:10074000000802587047000001220248082106F004
:100750005DBC00000008025800220248082106F093
:1007600055BC000000080258704770B504464FF4AD
:100770007A7502E0284600F004F8641EA4B2F9D2AB
:1007800070BD70B5054613F0CDFC044613F0CAFCED
:10079000001BA842FAD370BD10B5FFF7D3FFFFF7D7
:1007A000E3FF13F0CBFB044613F04EFC204310BDD7
:1007B0002DE9FC4104460D461646002000900190AC
:1007C000FFF7B8FF922000F0BFF80622694612201A
:1007D00000F09CF8FFF7A6FF9DF801009DF80010BF
:1007E000000200B20843484F00EE100AD7ED000A9D
:1007F000B8EEC00A20EE200A85ED000A9DF803003D
:100800009DF80210000200B2084300EE100AF8EE54
:10081000C00A97ED000A60EE800AC5ED010A9DF856
:1008200005009DF80410000200B2084300EE900A93
:10083000F8EEE00A20EE800A85ED020AFFF78CFF51
:1008400008226946002000F061F8FFF77DFF9DF85F
:1008500000000F2830D19DF803009DF8021000021F
:1008600000B2084300EE100AD7ED010AB8EEC00A44
:1008700020EE200A84ED000A9DF805009DF8041082
:10088000000200B2084300EE100AF8EEC00A97ED2D
:10089000010A60EE800AC4ED010A9DF807009DF888
:1008A0000610000200B2084300EE900AF8EEE00ADB
:1008B00020EE800A84ED020AFFF73CFFA22000F040
:1008C00043F802226946222000F020F8FFF72AFFB1
:1008D0009DF800009DF80110C00040EA5110B0F5ED
:1008E000806F02DBA0F5006000B200EE100AB4EEEB
:1008F000001AF8EEC00AB3EE070A00EE810A86ED90
:10090000000ABDE8FC810000F00D002470B50D4622
:10091000144640F0800000F017F806E0552000F083
:1009200013F805F8010B641EE4B2002CF6D170BD7B
:1009300010B50C4640F0800000F006F8552000F09D
:1009400003F8207010BD000001B582B04FF47A703A
:100950000123009001AA034802A908F0A1FB9DF819
:1009600004000EBDBC13002410B50C46FFF7ECFFCD
:100970002046BDE81040FFF7E7BF000070B5044611
:100980000D4616462DED088BF0EE618AB0EE429AC8
:10099000B0EE628AB7EEC04A9FED3A3B24EE034BBD
:1009A000B7EEC4ABB7EEE04A24EE033BF7EEC3ABC1
:1009B000B0EE4A0A13F008FADFED349A40EE298AC5
:1009C000B0EE6A0A13F000FAB0EE40BAB0EE4A0A8E
:1009D00012F08AFF2BEE000A00EE699AB0EE6A0A66
:1009E00012F082FFB0EE40BAB0EE4A0A12F07CFF7D
:1009F0002BEE000A00EE698AB0EE4A0A12F074FF8C
:100A000060EE289AB0EE4A0A13F0DEF948EE009A3A
:100A1000C4ED009AB0EE6A0A12F066FF60EE099A21
:100A2000B0EE6A0A13F0D0F948EE409AC5ED009A8C
:100A3000B0EE4A0A12F058FF20EE088AB0EE6A0AB9
:100A400012F052FF28EE008AB0EE4A0A13F0BCF909
:100A500060EE288AB0EE6A0A12F046FF08EEC08AFD
:100A6000B0EE6A0A13F0B0F960EE098AB0EE4A0AF5
:100A700012F03AFF08EE808A86ED008ABDEC088B02
:100A800070BD0000514CDE0033DF913F0AE81C418D
:100A9000024981610249016170470000DD0A0008D6
:100AA000880000200B49012289680978012900D1BA
:100AB0000272417831B90849C968097A11B9418986
:100AC000491C418143894FF448718B4201D34181D4
:100AD00002727047540700241400002070B50446C9
:100AE0002046FFF7DFFF46480121464A037E0020EB
:100AF000012B05D06378012B16D0072B2BD02DE0CE
:100B000061706081E3689970E16848763E49896860
:100B1000087020729070D070D07782F83100E16850
:100B20000872E168487270BDE3689870E368D97034
:100B3000E3681B7A012B05D0607023782BB1012B61
:100B400005D006E007236370F7E7917001E002210A
:100B50009170D07770BDE568EE7A2EB1E568EE7AD7
:100B6000012E0CD093B113E0AB7A33B1012BF1D14C
:100B7000D1701071E068C17070BDD07070BDE87246
:100B8000E26890726070E068C17070BD267A0EB144
:100B90002BB107E0D1701071E068C17070BD237A8D
:100BA000012B06D0A870206990F8580001280AD0BF
:100BB0000DE06081052363702871E368D970E368F4
:100BC0009971107170BDE0680174E0684174E0686B
:100BD00042793AB9C27B2AB9226992F82C20012ABB
:100BE00000D14175207830B10128EBD12046BDE815
:100BF00070400BF001BC2046BDE870400DF09CBE7B
:100C000060090020560A002054070024FEE7000077
:100C100010B58AB0002402940394022004900120AD
:100C200005900694079402A9094805F0ECFB0222FE
:100C3000074800231146009405F029FC04480022CF
:100C4000012105F067FB024806F0A6F80AB010BDC6
:100C5000E00A002070B510480DF022FD0F480DF09D
:100C60001FFD0D480E4C80680089010A21706070DC
:100C70000025A570E57025716571084880680089B8
:100C8000010AA171E0714FF400710648224600F09C
:100C9000BCF82560656070BD2C0E0024EC120024A9
:100CA00050000020E00A00200C4A11280AD0122827
:100CB0000BD0A0F5007001380AD003280CD10848E9
:100CC000026A10471068C26A10475068C26A10472B
:100CD00004480068026A104770470000E80E0024CC
:100CE000EC1200244408002010B58AB000240294BD
:100CF000039402200490012005900694079402A911
:100D0000094805F080FB02220748002311460094A1
:100D100005F0BDFB04480022012105F0FBFA024862
:100D200006F03AF80AB010BD800B0020122812D04D
:100D30000B4A132809D014280AD0A0F500700138F6
:100D40000CD108484068026A10479068C26A104790
:100D5000D068C26A10470448C26A10477047000052
:100D6000E80E0024440800209C10002410B58AB02E
:100D70000024029401200390022004900590069420
:100D8000079402A9094805F03EFB02220748002308
:100D90001146009405F07BFB04480022102105F069
:100DA000B9FA024805F0F8FF0AB010BD200C002087
:100DB000C1280AD0C2280BD0C3280CD0A0F50070DF
:100DC00011380BD1064802691047084602F0BABE36
:100DD000084602F013BF084602F030BF704700001B
:100DE0007C0900204178007841EA00207047C178F2
:100DF000807841EA002000B270474179007941EAE9
:100E0000002000B270478079704700B589B0002398
:100E10000193009108210391049305930693029393
:100E200008930793694605F0B7FA09B0002000BDA2
:100E300041688A88521C92B28A8041680B889A4223
:100E400004D38B8001214068817070470020887036
:100E50007047000042686421118002490161024923
:100E6000C1607047B1410108310E000810B5044659
:100E7000204602F075F920780B287CD2DFE800F0DC
:100E800006351F142A95A0CFA8B6C400204601F04D
:100E90002DFC204601F034FD204600F0D5F8204618
:100EA000BDE8104000F03EBE204601F01FFC204689
:100EB00001F026FD2046BDE8104001F05FB9204654
:100EC00001F014FC204601F01BFD2046BDE8104057
:100ED00001F054B9204601F009FC204601F010FD54
:100EE0002046BDE8104001F049B9204601F008FD58
:100EF000204601F043F9A06A006890ED000AB7EEC1
:100F0000C00AB0EEC01B9FED4B0B0122B4EEC01B1C
:100F1000F1EE10FA3ED8E168086800680069D0ED8B
:100F2000011A9FED461A464B71EEC11A11EE900A56
:100F300098422FDC206903681B681B69D3ED011AF6
:100F400031EEC11AB7EEC11AB0EEC11BB4EEC01B30
:100F5000F1EE10FA1ED84068006890ED001AB7EE66
:100F6000C11AB0EEC11BB4EEC01BF1EE10FA11D8DD
:100F70004868006800E052E090ED001AB7EEC11A30
:100F8000B0EEC11BB4EEC01BF1EE10FA02D8A0689F
:100F9000027010BD2B48007A012803D0A168002000
:100FA000087010BDA068027010BD204601F09EFBC5
:100FB000204601F0A5FC2046BDE8104001F0DEB857
:100FC00020460DF065FF2046BDE8104001F0D6B880
:100FD000204601F08BFB20460AF04EFC204601F033
:100FE0008FFC2046BDE8104001F0C8B8204601F053
:100FF0007DFB20460BF038FB204601F081FC2046AB
:10100000BDE8104001F0BAB8204601F06FFB204661
:1010100001F076FC2046BDE8104001F0AFB8E06B6F
:1010200081698847A06B816A88472046BDE81040E7
:1010300000F078BD00000040E17A843F7B142E3E32
:101040000AD7233C1400002010B504461048C0689D
:10105000407800280BD0A08B40F2DC5188420ED2A1
:10106000204601F0FFFAA08B401CA08310BDE06B6E
:1010700081698847A06B816ABDE810400847E06B32
:1010800081698847A06B816ABDE81040084700006D
:101090001400002010B504462DED028BA06A4168B3
:1010A0008847E06B016800200DF0AEF9B0EE408A91
:1010B000E06B416800200DF0FFF9B0EE401AE16BE3
:1010C00008684068D0ED000A49684968D1ED001A07
:1010D00090ED012AD1ED012AE068B0EE480A0068DF
:1010E00081688847E06B816801200DF08DF9B0EED2
:1010F000408AE06BC16801200DF0DEF9B0EE401AC5
:10110000E16B8868406890ED000AF1EE400AC9681A
:10111000496891ED000AF1EE401A90ED010AB1EE36
:10112000402A91ED010AF1EE402A2069B0EE480A0A
:10113000006881688847E06800680169884720691D
:10114000006801698847206900680168E0680068F4
:1011500000680DF0F3F9E06B0168496891ED010A50
:10116000E16809680A685269D2ED0A0A30EE600A3D
:10117000436892ED0B1A5B68D3ED010A70EE810AA9
:101180008268526892ED011A2269126812685269E7
:10119000D2ED0A1A31EE211AB1EE418AC06892ED01
:1011A0000B1A4068D0ED011A71EE618A8A6908460F
:1011B00090472069F0EE680AB0EE480A006881693D
:1011C0008847E068016840680968096991ED010A8B
:1011D000C16988472069016840680968096991ED1B
:1011E000010AC1698847E0684068016A8847206948
:1011F0004068016A8847204601F0A4F8BDEC028BE4
:101200002046BDE8104001F017BB000010B50446B1
:10121000A06B016B8847E06B016A8847204600F0AD
:1012200053FC6068064902780AB9407818B1C96869
:101230000020487010BDC9680120487010BD000032
:101240001400002070B504466F48A0626F48A06388
:101250006F48E0636F4860604430A0606E49A161F0
:1012600040F2DC51A18300214180283060616B484D
:10127000206269483030E06200F16801216300F1CA
:10128000A002626300F1BC03A3651033E365614B08
:101290004C33E360103323619FED610A80ED020A55
:1012A000DFED600AC0ED030A80ED040A4FF4FA7323
:1012B00003844FF4C875458496258584AD00C584A4
:1012C0006D0005859FED581A80ED131A9FED571A92
:1012D00080ED141A80ED151A9FED551A80ED161A3F
:1012E0009FED541A80ED171A9FED531A80ED181ACE
:1012F00081ED000AC1ED010A9FED500A81ED020A5D
:10130000B1EE040A81ED0B0A9FED4D0A81ED0C0A46
:10131000B3EE040A81ED080A9FED4A0A81ED030A43
:10132000D3829FED490A82ED040A206A006990ED9C
:10133000040AA06D80ED000A206A406990ED040A5D
:10134000E06D80ED000A206A806990ED040AA06DCE
:1013500080ED010A206AC06990ED040AE06D80ED1D
:10136000010A206A006990ED0E0AA06D80ED020A64
:10137000206A406990ED0E0AE06D80ED020A206A55
:10138000806990ED0E0AA06D80ED030A206AC069A5
:1013900090ED0E0AE06D80ED030AA06BC16A8847EC
:1013A000E06BC1698847294860642948A0642948DE
:1013B000E0642948606529482065E0680068416864
:1013C00088472069006841688847E068406841694B
:1013D00088472069406841698847214816F02EF8FF
:1013E000204810F09DFCE0689FED1F0A806880EDAA
:1013F000040A2069806880ED040A60699FED1B0A79
:1014000080ED0D0A70BD0000C007002044080020D8
:10141000E80E00249406002468200024BC0C00245C
:101420000AD7233C0AD7A33C0000C84300007A45F2
:10143000000048420000C8420000484300401C46EB
:1014400000803B450000FA43C3B8323F0D1200084C
:1014500095100008AD250008552C00086D0E0008F9
:10146000FC100020DC210024000000009A991940A3
:101470005249C968097D002905D1C268937B23B10F
:1014800003699B7B0BB121B327E0916891ED030ABF
:10149000D1ED020A30EE200AD1ED000A30EE200A2A
:1014A000D1ED010A30EE200A81ED050A006980685D
:1014B00090ED030AD0ED020A30EE200AD0ED000ACA
:1014C00030EE200AD0ED010A30EE200A80ED050A48
:1014D0007047C268937B012B01D051B10DE0906839
:1014E00090ED030AD0ED000A30EE200A80ED050AE7
:1014F00070470269937B012B0BD00129F8D1C16A97
:1015000091F8641002290ED0C1688A7B012A21D08B
:1015100024E0906890ED030AD0ED000A30EE200A36
:1015200080ED050A7047C168896891ED000AD1ED28
:10153000040A30EE200A81ED050A0169C068896855
:10154000806891ED000AD0ED040A30EE200A81EDAA
:10155000050A70470269927B012A23D0896891EDC0
:10156000030AD1ED020A30EE200AD1ED000A30EE76
:10157000200AD1ED010A30EE200A81ED050A00694A
:10158000806890ED030AD0ED020A30EE200AD0ED1B
:10159000000A30EE200AD0ED010A30EE200A80ED7C
:1015A000050A7047896891ED030A81ED050A006913
:1015B000806890ED030A80ED050A70471400002052
:1015C0002DE9F04104462DED028BE06805682069A5
:1015D00006682868006990ED010A206A006980EDBC
:1015E000010A3068006990ED010A206A406980EDC7
:1015F000010A606990ED130A206A006980ED000A13
:10160000606990ED140A206A406980ED000A206A42
:10161000006913F00BFB206A406913F007FB206A96
:10162000006990ED020AB5EEC00AF1EE10FA01DC95
:10163000B1EE400A10EE101A344FDFED358AB94290
:10164000B3EE048A02DDC0ED0D8A01E080ED0D8A63
:10165000206A006914F092F9206A406990ED020A4C
:10166000B5EEC00AF1EE10FA01DCB1EE400A10EE60
:10167000101AB94202DDC0ED0D8A01E080ED0D8A3D
:10168000206A406914F07AF92868006990ED030A2D
:10169000206A806980ED010A3068006990ED030AD4
:1016A000206AC06980ED010A206A0169806991EDB4
:1016B0000A0A80ED000A206A4169C06991ED0A0AB0
:1016C00080ED000A206A806913F0B0FA206AC069D0
:1016D00013F0ACFA206A806914F050F9206AC069EE
:1016E00014F04CF9206A806990ED0A0AE06880687D
:1016F00080ED030A206AC06990ED0A0A20698068BB
:1017000080ED030ABDEC028BBDE8F081CDCC4C3DF1
:101710000000000070B53F49404D42699FED3E0A10
:10172000C9680B7D002B03D14B7D0BB90B7A2BB114
:101730003A4B8C7D012CDB780ED00EE0C3689B7B8E
:10174000012B01D182ED130A0269927B012A14D187
:10175000426982ED140A10E00BB144B10DE09FED37
:10176000300A82ED140A426982ED130A05E023B1C2
:1017700082ED130A426982ED140A8A7B012A29D17B
:101780008269B2F9042000EE102A4269B8EEC01A4C
:101790009FED240AD2ED141AC1EE000A9FED221A21
:1017A00020EE812ADFED210A42EE201AC2ED141A42
:1017B0008269B2F9042001EE902A4269F8EEE11A3A
:1017C00081EE802A92ED130A22EE011A01EE200A20
:1017D00082ED130A4269164C174E9FED160A136DDF
:1017E000DFED160AA34202DD82ED140A03E0B342E4
:1017F00001DAC2ED140A4069C26CA24202DD80ED3A
:10180000130A03E0B24201DAC0ED130A887DE870E2
:1018100070BD0000140000207B142E3E90060024B2
:101820008FC2753E00002544CDCC4C3E6F12833AEA
:101830007B14AE3E7B14AE3E295C0F3E295C0F3E0E
:1018400010B504469FED270A206A806880ED000AE3
:10185000E06800680068C068D0ED0A0A2069006886
:101860000068C06890ED0A1A206A70EEC10A8068AC
:10187000C0ED010A206AC06880ED000A2069006896
:101880000068C06890ED0A0AE06800680068C068F7
:10189000D0ED0A0A206A30EE600AC06880ED010AC5
:1018A000206AC06813F0C2F9206A806813F0BEF99C
:1018B000206A806814F062F8206AC06814F05EF84C
:1018C000206A806890ED0A0AE068806880ED060A68
:1018D000206AC06890ED0A0A2069806880ED060AD7
:1018E00010BD00000000000010B504462DED028B75
:1018F000E06800680068C06890ED140A206A006B18
:1019000080ED010A606990ED040A206A006B80EDA9
:10191000000A206900680068C06890ED140A206A17
:10192000406B80ED010A606990ED030A206A406B0C
:1019300080ED000A206A406B13F078F9206A006B92
:1019400013F074F9206A9FED368A006BF0EE480AB6
:1019500090ED020A12F0B5FC206A006B80ED020ADD
:10196000206AF0EE480A406B90ED020A12F0A9FCE2
:10197000206A406B80ED020A206A006B13F0FEFFC4
:10198000206A406B13F0FAFF206A016B806B91EDC7
:101990000A0A80ED000A206A416BC06B91ED0A0AC9
:1019A00080ED000AE0689FED1F0A00680068C068CB
:1019B000D0ED0B0A206A60EE800A806BC0ED010A50
:1019C000206900680068C068D0ED0B0A206A20EE2C
:1019D000800AC06B80ED010A206AC06B13F026F903
:1019E000206A806B13F022F9206A806B13F0C6FF27
:1019F000206AC06B13F0C2FF206A806B90ED0A0A68
:101A0000E068806880ED080A206AC06B90ED0A0AE1
:101A10002069806880ED080ABDEC028B10BD0000D3
:101A20000000B443E12E654270B504462DED048BF1
:101A3000E0680568206906682868C06890ED0A0AB1
:101A4000B7EEC00A10F098FA2868DFED1D9ADFEDB6
:101A50001B8A9FED1C9AC069B0EE698A90ED081A46
:101A6000E06801EE288A806828EE091AB7EEC11AEC
:101A700020EE010BB7EEC00B80ED000A3068C068A5
:101A800090ED0A0AB7EEC00A10F076FA3068B0EEB0
:101A9000698AC06990ED081A206901EE288A806879
:101AA00028EE091AB7EEC11A20EE010BB7EEC00BF3
:101AB00080ED000ABDEC048B70BD0000AB3EA73F7B
:101AC000C6DC1E41C3F51C4130B5C16B01230024A7
:101AD0000A68D268157A4268012D1DD08D68ED68BC
:101AE0002D7A012D18D0CD68ED682D7A012D13D0F7
:101AF0004968C968097A01290ED01470816B0A6897
:101B0000D268127A012A09D04968C968097A01297C
:101B100004D04068447030BD1370EFE740684370F4
:101B200030BD000010B504462DED028B9FED5F8A9D
:101B3000A06B0068406880ED098AA06B006840686F
:101B400080ED078AA06B4068406880ED098AA06B31
:101B50004068406880ED078A9FED550A606980ED16
:101B6000140A606980ED130AA06A006890ED010A0A
:101B7000606980ED110AA06D90ED000A206A00698D
:101B800080ED040AE06D90ED000A206A406980ED66
:101B9000040AA06D90ED010A206A806980ED040AB4
:101BA000E06D90ED010A206AC06980ED040A606969
:101BB00080ED128A606980ED088A606980ED098A8B
:101BC000606980ED108A3B4810F078F8E0680068A2
:101BD0000068806980ED038AE068006800688069B9
:101BE00080ED018A206900680068806980ED038AC1
:101BF000206900680068806980ED018A206A0068B9
:101C000013F00CF8206A806A13F008F8206A006963
:101C100013F004F8206A806813F000F8206A006C62
:101C200012F0FCFF206A006B12F0F8FF206A406897
:101C300012F0F4FF206AC06A12F0F0FF206A4069D7
:101C400012F0ECFF206AC06812F0E8FF206A406CD6
:101C500012F0E4FF206A406B12F0E0FF21690020DF
:101C60008881E1688881E168896881ED048A216959
:101C7000896881ED048AE168896881ED088A2169B3
:101C8000896881ED088A0C49CA681075C968487569
:101C9000E16A81F86400216B81F83400616B087699
:101CA000616B4876BDEC028B10BD000000000000A7
:101CB0007B142E3EDC2100241400002000682D49F6
:101CC0009FED2D0A0A68D2ED0A0A2C4A60EE800ABE
:101CD00092ED001A41EE000AC0ED000A0A68DFED3D
:101CE000280A92ED0B1A21EE201A80ED021A0A68DA
:101CF00092ED091A21EE001A80ED011A0A6892EDA0
:101D00000F1A61EE200AC0ED050A0A68D2ED0E0A2C
:101D100060EE800AC0ED030A0A68D2ED0D0A20EEDB
:101D2000800A80ED040A0A6892ED000A80ED060A36
:101D30000A6892ED010AB1EE400A80ED070A0A68CE
:101D400092ED020A80ED080A0A6892ED060A80ED1B
:101D5000090A0A6892ED070AB1EE400A80ED0A0A04
:101D60000968DFED080A91ED080A30EEC00A80ED3F
:101D70000B0A70472411002498F98E3CC8070020F4
:101D800098F98EBCC3F51C4170B505462DED028B4C
:101D9000E8682C694168C96891ED040A6168B7EE8A
:101DA000C00AC96891ED041AB7EEC11AB0EEC00BB3
:101DB000B0EEC11BB4EEC10BF1EE10FA03DBB7EECF
:101DC000C00B044601E0B7EEC10B9FED608A2068AE
:101DD000F0EE000A006820EE200A0169C068D1ED2B
:101DE000010AC0EE208A90ED0A0A11F07DFDB5EEE1
:101DF000C00AF1EE10FA07DD20680068C06890EDB7
:101E00000A0A11F071FD08E020680068C06890EDD2
:101E10000A0A11F069FDB1EE400A206808EEC08A96
:101E20000068C06890ED0A0A11F0CEFFB5EEC00A56
:101E3000F1EE10FA07DD20680068C06890ED0A0A2C
:101E400011F0C2FF08E020680068C06890ED0A0A3F
:101E500011F0BAFFB1EE400A2068DFED3D8A00685C
:101E60000169C068D1ED010A60EEA80A00EEC08ADF
:101E700090ED0A0A11F038FDB5EEC00AF1EE10FA45
:101E800007DD20680068C06890ED0A0A11F02CFD9B
:101E900008E020680068C06890ED0A0A11F024FD8F
:101EA000B1EE400A206860EE288A0068C06890EDB4
:101EB0000A0A11F089FFB5EEC00AF1EE10FA07DD4B
:101EC00020680068C06890ED0A0A11F07DFF08E004
:101ED00020680068C06890ED0A0A11F075FFB1EE45
:101EE000400A1C4E08EEC08A86ED088A2068006809
:101EF000C06890ED0A0A11F067FF86ED130A96EDAF
:101F0000080A9FED151AC0EE010AC6ED070A6869B6
:101F10009FED121A90ED0C0A00EE810A80ED0C0A7A
:101F200010EE101A0E4A6869914203DBB0EE040A03
:101F300080ED0C0A68690B4A016B914203DA9FED50
:101F40000A0A80ED0C0ABDEC028B70BD62B9174223
:101F500016CE4243900600243333BD416F12833ABC
:101F600000002040CDCCCC3ECDCCCC3E8069074992
:101F70000A68128982810A68528902810A689289F4
:101F800082800968C98901807047000060090020CB
:101F900010B50446A06A006890ED020A206A006845
:101FA00080ED010AA06A006890ED020A206A40688C
:101FB00080ED010A606990ED120A206A006880EDE8
:101FC000000A606990ED120A206A406880ED000AFC
:101FD000206A006812F02AFE206A006813F0CEFC26
:101FE000206A406812F022FE206A406813F0C6FCA6
:101FF000E0689FED110A817B012909D0216A806880
:102000000968D1ED0A0AF1EE600AC0ED020A02E0A9
:10201000806880ED020A2069817B012907D0216A4E
:102020008068496891ED0A0A80ED020A10BD806857
:1020300080ED020A10BD00000000000010B52DED7B
:10204000048B44490968496891ED030AB7EEC00A58
:102050009FED411B31EE400BB7EEC08BB7EEC80AC7
:10206000B0EEC00B9FED3E1BB4EEC10BF1EE10FACB
:1020700018DBB5EEC08AF1EE10FA01DD012108E0AF
:10208000B5EEC08AF1EE10FA02D24FF0FF3100E057
:102090000021490000EE101AF8EEC00A9FED320A46
:1020A00000EEC08A31499FED320A097811B1012949
:1020B0001AD03DE08069B0F90010494200EE901A54
:1020C000F8EEE01ADFED2B0A81EEA01A61EE008A2D
:1020D000B0F90400404201EE100AB8EEC11AC1EE98
:1020E000201A21EE809A23E0234980690968D0ED07
:1020F000080A663190ED041AB1F9082030EEC11AD1
:1021000000EE902AF8EEE01AC1EE210A60EE808A15
:10211000D0ED060A90ED0A1AB1F9000030EEC11AAE
:1021200000EE900AF8EEE01AC1EE210A20EE809A45
:10213000B0EE480A11F048FE60EE288AB0EE480A78
:1021400011F0D2FB20EE090A38EE800ABDEC048BB8
:1021500010BD0000DC070024E71F250084B2B73F54
:1021600000000060FB210940DB0F49401400002003
:102170006666E63F0000254460090020C16B9FEDC4
:10218000100A0968896881ED000AC16B496889688D
:1021900081ED000AC16B8968896881ED000AC16B15
:1021A000C968896881ED000A816B0968896881EDD9
:1021B000000A806B4068806880ED000A704700006C
:1021C0000000000038B504466069D0ED100A90EDBB
:1021D000090A60EE800A9FED562ADFED561A9FED40
:1021E000561ADFED562AF5EEC00A554DF1EE10FAFB
:1021F0004CDDB5EEC00AF1EE10FA06DD206980680C
:1022000090ED120A20EE020A05E02069806890ED48
:10221000120A20EE210AA06A0068D0ED090A60EED9
:10222000810A216949680968D1ED041A21EE811AF1
:10223000D0ED041A21EE211A60EEA00A41EE010A47
:10224000F5EEC00AF1EE10FA04DBB1EEE01A8DED06
:10225000001A01E0CDED002ADDED000AF4EEC00A1F
:10226000F1EE10FA11DD36480A2111F04AFE05EBB5
:10227000800090ED000A206940680068D0ED040AF3
:10228000606920EE800A80ED090A38BDF5EEC00ACB
:10229000F1EE10FAF9D2B5EEC00AF1EE10FA06DD51
:1022A0002069806890ED120A20EE020A05E020699C
:1022B000806890ED120A20EE210AA06A0068D0ED35
:1022C000090A60EE810AE16849680968D1ED041ADB
:1022D00021EE811AD0ED041A21EE211A60EEA00A37
:1022E00041EE010AF5EEC00AF1EE10FA04DBB1EEA0
:1022F000E01A8DED001A01E0CDED002ADDED000AB7
:10230000F4EEC00AF1EE10FABFDD0D480A2111F01B
:10231000F8FD05EB800090ED000AE0684068006879
:10232000D0ED040A606920EE800A80ED090A38BD0C
:10233000CDCC4C3E8FC2753D79E9163F00000000C0
:10234000B40700242DE9F04781462DED068B9AB0A5
:10235000D9F80C1048680468D9F81000426815686C
:102360000F68D0F80080D9F8280006683422D9F820
:1023700038A00DA8DAF80410FEF768F8DAF80010B3
:1023800034226846FEF762F894ED000A84ED0C0AE8
:102390003868D6ED000AC06890ED0A0AB1EE400A2E
:1023A00030EE600A84ED000A3868D6ED030AC06892
:1023B00090ED0B0AB1EE400A30EE600A84ED010A9E
:1023C00084ED0D0AD4ED0E0A70EE600AC4ED020A27
:1023D00084ED0E0A96ED000A84ED050A96ED030AD7
:1023E00084ED060A95ED000A85ED0C0AD8F8000088
:1023F000D6ED000AC06890ED0A0AB1EE400A30EE50
:10240000600A85ED000AD8F80000D6ED030AC0681E
:1024100090ED0B0AB1EE400A30EE600A85ED010A3C
:1024200085ED0D0AD5ED0E0A70EE600AC5ED020AC3
:1024300085ED0E0A96ED000A85ED050A96ED030A74
:1024400085ED060A96ED000A84ED050A96ED000A70
:1024500085ED050A96ED030A84ED060A96ED030A5A
:1024600085ED060A0E9890ED038A0198D0ED039A47
:102470000E98D0ED078A019890ED079A94ED000A26
:1024800011F032FA38680069D0ED010A20EE200A16
:10249000D4ED010A20EE20AA38EE290ADFED3F0A2A
:1024A00000EE20AA95ED000A11F01EFAD8F80000FF
:1024B000F6EE009A0069D0ED010A20EE200AD5ED73
:1024C000010A00EE20AA6AEE290AD9F8280000685D
:1024D00090ED090A324814F0E3FF3148006890EDAE
:1024E000008AD8F80000806990ED030A386838EE59
:1024F000C00A806930EE090AD0ED030A30EE600AA6
:10250000DFED280A60EE208A95ED000A11F0ECF963
:10251000D8F800000069D0ED010A20EE200AD5EDC0
:10252000010A20EE209A94ED000A11F0DDF93868D6
:102530000069D0ED010A20EE200AD4ED010A00EE78
:10254000209AB0EE480A09EE690A1748F0EE680AC8
:102550000FF016FC1448006890ED000AD0ED010A57
:1025600084ED030A85ED030A94ED040A84ED0A0A5A
:1025700095ED040A85ED0A0AC4ED040AC5ED040AC6
:1025800094ED040A84ED090A95ED040A85ED090A23
:102590001AB0BDEC068BBDE8F087000068916D3D78
:1025A000FC1000206891ED3CDC21002430B52C4B60
:1025B000062400215A78082A1ED2DFE802F0040D12
:1025C0000F1215181D1BDA68527E012A01D0017006
:1025D00013E00122027010E001700EE0022202708E
:1025E0000BE00322027008E00422027005E00522DD
:1025F000027002E0047000E00170DA68127D012AC6
:1026000001D108220270DA68527D012A01D1092223
:102610000270DA68957D012D02D0D27D012A01D1A8
:102620000A220270DA68127A012A02D104700722A3
:102630005A7042681478012C05D05278012A02D0D1
:102640005A78012A00D101700278012A01D08268EB
:102650005180DA689278012A00D1017030BD000003
:1026600014000020816BDFED200A09684A6892EDB2
:10267000030A20EE200A896881ED000A816B49680F
:102680004A6892ED030A20EE200A896881ED000A6B
:10269000C16BB9EE080A09684A68D2ED000A60EE1B
:1026A000800A8968C1ED000AC16B49684A68D2EDA9
:1026B000000A60EE800A8968C1ED000AC16B896872
:1026C0004A68D2ED000A60EE800A8968C1ED000A0E
:1026D000C06BC0684168D1ED000A20EE800A8068B6
:1026E00080ED000A7047000017B7D1B82DE9F0411E
:1026F00004462DED068BE1680868056820690268CC
:10270000166849680F684068D0F8008098ED000AA4
:10271000B7EEC00A0FF030FC706990ED041AB7EE06
:10272000C11A20EE018B98ED000AB7EEC00A0FF037
:1027300023FCF069B7EE009A9FED3CAB90ED081AD0
:10274000306939EE411AD0ED051AA06A21EE211A3E
:102750000068B7EEC12A90ED0B1A2069B7EEC11AD6
:10276000806802EE401B01EE0A8BB7EEC80B80EDCD
:10277000120A97ED000AB7EEC00A0FF0FDFB686978
:1027800090ED041AB7EEC11A20EE018B97ED000A06
:10279000B7EEC00A0FF0F0FBE86990ED081A28695F
:1027A00039EE411AD0ED051AA06A21EE211A00680F
:1027B000B7EEC12A90ED0B1AE068B7EEC11A806837
:1027C00002EE401B01EE0A8BB7EEC80B80ED120A39
:1027D00010EE102A174D0021E068AA4203DC82891E
:1027E000521C828100E081810122E06803268389F6
:1027F000032B03D38273E068868100E08173206934
:1028000083689B6CAB4203DC83895B1C838100E0A3
:10281000818120698389032B06D382732069868195
:10282000BDEC068BBDE8F0818173F9E70000006024
:10283000D5E7F43F0000484210B504462046FFF7B4
:1028400095FB0BF0C7FC204600F056FB204600F03D
:102850000FFA2046FEF75EFF2046FFF7B3FCE16863
:10286000887B012825D06069D0ED0B2A90ED0A2ADB
:10287000D0ED091A90ED081AD0ED070A90ED020A82
:102880004868816988472169887B012824D060696C
:10289000D0ED0B2A90ED0A2AD0ED091A90ED081A16
:1028A000D0ED070A90ED020A48688169BDE8104042
:1028B0000847496808688A69D0ED062A90ED052A1C
:1028C000D0ED041A90ED031A6069D0ED070A90ED7F
:1028D000020A08469047D6E7496808688A69D0ED39
:1028E000062A90ED052AD0ED041A90ED031A6069CE
:1028F000D0ED070A90ED020ABDE8104008461047E7
:102900002DE9F041044620690568E1680E684F68CA
:10291000D0F804802046FEF793FF796A384688474E
:10292000D8F8241040468847F96A38468847E06856
:10293000806880ED070AD8F82C1040468847206947
:10294000806880ED070AE068817B01297ED080687D
:1029500090ED060AD0ED070A30EE600A80ED0A0A13
:102960002069817B012972D0806890ED060AD0ED44
:10297000070A30EE600A80ED0A0A2046FEF720FEC4
:102980002046FFF705FB2046FFF74EF82046FEF7EE
:102990006FFD204600F08EF8B96A38468847E06837
:1029A000806880ED0C0AD8F82810404688472069D6
:1029B000806880ED0C0AE0689FED3D0A817B01296B
:1029C0006ED08068D0ED0C0A90ED0B1A70EE810A83
:1029D000C0ED0D0A2069817B012965D0806890EDEA
:1029E0000C0AD0ED0B0A30EE200A80ED0D0AE068EB
:1029F000F1688068D0ED0A0A90ED050A30468847F4
:102A00002069E9688068D0ED0A0A90ED050A284639
:102A10008847696928468847716930468847306821
:102A200090ED000AE0688068D0ED0E0A30EE200AD2
:102A300080ED100A306890ED010AE0688068D0ED02
:102A40000F0A30EE200A80ED110A01E018E01FE0C5
:102A5000286890ED000A20698068D0ED0E0A30EEFB
:102A6000200A80ED100A286890ED010A206980682C
:102A7000D0ED0F0A30EE200A80ED110ABDE8F0819A
:102A8000806890ED070AB1EE400A80ED0A0A67E718
:102A9000806890ED070AB1EE400A80ED0A0A6CE703
:102AA000806880ED0D0A95E7806880ED0D0A9EE74D
:102AB0000000000010B504462DED028B6248216A2B
:102AC000C068096A0279012A08D1427932B9C27B09
:102AD00022B9027C12B9407C00287DD0A06A00682F
:102AE00090ED010A81ED010A606990ED110A206AFA
:102AF000006A80ED000AA06A006890ED010A206A71
:102B0000406A80ED010A606990ED110A206A406A0E
:102B100080ED000A206A006A12F088F8206A406A94
:102B200012F084F8206A006A90ED020A9FED478A4D
:102B3000F0EE480A11F0C5FB206A006A80ED020A37
:102B4000206AF0EE480A406A90ED020A11F0B9FBE3
:102B5000206A406A80ED020A206A006A12F00EFFC5
:102B6000206A406A12F00AFF206A016A806A91EDC9
:102B70000A0A80ED000A206A416AC06A91ED0A0AD9
:102B800080ED000AA06A006890ED040A206A806A5D
:102B900080ED010AA06A006890ED040A206AC06A0C
:102BA00080ED010A206A806A12F040F8206AC06A4B
:102BB00012F03CF8206A806A12F0E0FE206AC06AD7
:102BC00012F0DCFE206A806A90ED0A0AE0688068F4
:102BD00080ED0B0A206A00E00BE0C06A90ED0A0A63
:102BE0002069B1EE400A806880ED0B0ABDEC028BD3
:102BF00010BD17480268526892ED030AB1EE400A10
:102C000081ED010A216A90ED1B0A096AB1EE400AC2
:102C100081ED000A0168496891ED030A216AB1EE6D
:102C2000400A496A81ED010A90ED1B0A206AB1EE63
:102C3000400A406A80ED000AA06A006890ED010A2F
:102C4000606980ED110A65E714000020DB0FC940C0
:102C5000DC07002410B504462046E16C8847A16CCF
:102C600020468847216D2046BDE8104008470000F7
:102C70002DE9F04104462DED028B94F800C09FED44
:102C80008E1A9FED8E2ADFED8E0A8E488E4BDFED79
:102C90008F1A914EBCF10A0F8E4D02688C4F30781E
:102CA000F16895ED020A09D2DFE80CF005D2D209ED
:102CB000AB3FD2D2D275606980ED101AC8E0097CB2
:102CC00019B1606980ED101AC2E010B101280FD06F
:102CD000BEE0A069B0F90C0000EE100A6069B8EE21
:102CE000C00A80EE021A21EE200A80ED100AAFE041
:102CF000B2F91C00404201EE100A6069B8EEC11A38
:102D000021EE000A80ED100A10EE101A6069994257
:102D100002DDB0EE610A05E010EE101AB94201D9E9
:102D2000B0EE600A80ED100A92E0097C19B160698A
:102D300080ED101A8CE010B101280FD088E0A06956
:102D4000B0F90C0000EE100A6069B8EEC00A80EE1F
:102D5000021A21EE200A80ED100A79E0B2F91C0077
:102D6000404201EE100A6069B8EEC11A21EE000A75
:102D700080ED100A10EE101A6069994202DDB0EE83
:102D8000610A05E010EE101AB94201D9B0EE600AEE
:102D900080ED100A5CE0097C19B1606980ED101AC1
:102DA00056E010B101280FD052E0A069B0F90C0034
:102DB00000EE100A6069B8EEC00A80EE021A21EE39
:102DC000200A80ED100A43E0B2F91C00404201EEF7
:102DD000100A6069B8EEC11A21EE000A80ED100AEF
:102DE00010EE101A6069994202DDB0EE610A05E04A
:102DF00010EE101AB94201D9B0EE600A80ED100A47
:102E000026E04879B1EE048A012803D0C87B012866
:102E100004D01DE0606980ED108A19E0A87810B92F
:102E200004F0FCF8E86204F0F9F8E96ADFED2B0A37
:102E3000401A00EE100AB8EE400A20EE200A10F008
:102E400053FDF0EE000A606900EE608A80ED108AA2
:102E500060699FED231B90ED102AB7EEC20AB0EE19
:102E6000C00BB4EEC10BF1EE10FA1EDB90ED110AAF
:102E7000DFED1D0A02EE200A80ED110A1C4FDFF87B
:102E800074809FED1A8A6069F0EE480A90ED110A8D
:102E900011F017FA606980ED110A10EE100AB842BD
:102EA000F1DC10EE100A4045EDD8F068C07BA87048
:102EB000BDEC028BBDE8F08100000000000025445D
:102EC0006666E6BF600900206666E63F6666E63F26
:102ED0006666E6BF90060024140000202EE34D3BFA
:102EE000000000C09ADF313F6F12833ADB0FC94008
:102EF000DB0F4940DB0F49C070B504462DED028B56
:102F00008B4890ED1E0AB7EEC00AB0EEC00B9FEDE5
:102F1000891B8A4DB4EEC10BF1EE10FA04D8B7EE5E
:102F2000000A85ED0C0A08E0B4EEC10BF1EE10FAD0
:102F300003DDBFEE000A85ED0C0A814E6069B0EE3C
:102F4000048AF1688A7D012A11D0CA7D012A0ED037
:102F50009FED7C0A80ED0D0A6B789FED7B0A7B4824
:102F60000268774800782BB1012B55D0A9E080ED9D
:102F70000D8AF1E74979012903D048B101281CD015
:102F800035E02046FFF75AF8606980ED090A98E0BD
:102F9000A06995ED0C1AB0F9000000EE900A606986
:102FA000F8EEE00A60EE810A80EE801A90ED0C0ADD
:102FB00021EE000A80ED090A19E0A06990ED040AEB
:102FC000D0ED080AB2F96E0030EE600AD5ED0C0AB9
:102FD00060EE200A00EE100A6069B8EEC01A80EEBA
:102FE000810AD0ED0C0A20EE200A80ED090A606902
:102FF000574A90ED090A10EE101A914202DDB0EE28
:10300000040A06E010EE101A524A914201D9B8EEB5
:10301000040A80ED090A54E04979012903D048B136
:1030200001281CD035E02046FFF708F8606980EDE4
:10303000090A46E0A06995ED0C1AB0F9000000EE0F
:10304000900A6069F8EEE00A20EE811AC1EE000AEB
:1030500090ED0D0A20EE800A80ED090A19E0A069C2
:1030600090ED040AD0ED080AB2F96E0030EE600A65
:10307000D5ED0C0A60EE200A00EE100A6069B8EE89
:10308000C01A80EE810AD0ED0D0A20EE200A80EDF4
:10309000090A606990ED090AD0ED0D0AB4EEE00A64
:1030A000F1EE10FA02DDB0EE600A08E0F1EE600A1F
:1030B000B4EEE00AF1EE10FA01D2B0EE600A80ED53
:1030C000090A2548012100220068B0F83B001928B0
:1030D0000CD858B1287838B92970606990ED0D0A7C
:1030E00080ED0C0AF06881776A7003E02A70F0685E
:1030F000827769702046FEF747FE6069174A90EDB7
:10310000090AC0EE080AB7EEE00AB0EEC00BB7EE4F
:10311000C00B10EE101A914206DBE168496809689D
:1031200091ED030A80ED080ABDEC028B70BD000032
:10313000DC07002400000060FB21F93F900600241A
:10314000140000209A9919400000254460090020CD
:1031500000002040000020C0A0090020CDCC4C3E43
:103160000178062907D041699FED060A81ED060A1C
:10317000416981ED050A0178002901D00021818390
:1031800070470000000000000021C1700171417112
:1031900001704170C1800649C1610649416206491A
:1031A000816206490162064981610121817270478D
:1031B000C53100086F32000869320008DB310008B1
:1031C000EB310008827A012A05D111B10121C170C9
:1031D00001E00021C1700EF079BC0021C1700171C5
:1031E000417101704170C1807047024600B551784D
:1031F000108901290CD00021D180D188814202D9C7
:103200001046FFF7EAFF5DF804EB104600F032B815
:10321000A0F57F41FF39F0D0D188491CD180ECE77F
:1032200070B50024064D04EB440000EBC40005EB30
:10323000800081698847641CE4B2082CF3D370BD18
:103240008800002070B50024064D04EB440000EB1C
:10325000C40005EB800041698847641CE4B2082C77
:10326000F3D370BD88000020002141707047012118
:103270004170704710B5837800210122052B08D2D8
:10328000DFE803F01118030A1E004379012B01D077
:10329000017010BD027010BD4379022B01D0017086
:1032A00010BD027010BDC378012B01D0017010BD9C
:1032B000027010BDC3780BB1017010BD027010BD5B
:1032C000017010BD2DE9F0474C494868006804685A
:1032D000007E4B4F002810D000207860484D786861
:1032E0000835C82879D32E1D097806F12C0906F176
:1032F000580831B1012959D06FE07868401C7860D6
:10330000ECE7207C022808D1607C012805D1A07D53
:103310002978884201D0012100E000213848F26973
:103320000C309047207C022808D1607C012805D110
:10333000207EA978884201D0012100E00021B26CF2
:1033400048469047207C022808D1607C032805D19C
:10335000A07D2978884201D0012100E00021726F10
:1033600040469047207C022808D1607C032805D184
:10337000A07D2978884201D0012100E00021204869
:10338000D6F8F820E8309047207C022808D1607CED
:10339000032805D1207EA978884201D0012100E0D0
:1033A0000021D6F824211748904716E094F89100A0
:1033B000012808D00021B26C4846904794F8590083
:1033C000012802D005E00121F5E70F4890F831000F
:1033D00088B10021726F40469047207C3870607C35
:1033E000787000202118897D2954401CC0B204281F
:1033F000F8D3BDE8F0870121ECE7000014000020BD
:103400007C00002090010020560A002010B51248D0
:103410000068816888471148816888471048816939
:1034200088471048016C88470F48416988470F4812
:10343000C16988470E48C16A88470EF0A9FC00F0B0
:10344000D1FDFFF7FFFE0B4808F0ACF80A484169D0
:10345000BDE8104008470000D0100024600900209B
:10346000241100245407002414000020E80E002436
:1034700044080020A00900207C090020014802F037
:1034800007B800005C1A0024014802F001B80000EF
:10349000CC140024014801F0FBBF000044150024B7
:1034A000014801F0F5BF00002C1D0024014801F087
:1034B000EFBF0000B41C0024014801F0E9BF000088
:1034C000941E0024014801F0E3BF00000C1F0024FB
:1034D000014801F0DDBF0000A41D0024014801F0F7
:1034E000D7BF00001C1E0024014801F0D1BF00001E
:1034F000D41A0024014801F0CBBF00004C1B00246B
:10350000014801F0C5BF0000C41B0024014801F0C0
:10351000BFBF00003C1C002410B52C4A016891423A
:103520003AD02A4A1832914236D0284A3032914253
:1035300032D0264A483291422ED0244A60329142FB
:103540002AD0224A7832914226D0204A90329142A3
:1035500022D01E4AA83291421ED01D4A91421BD051
:103560001B4A1832914217D0194A3032914213D077
:10357000174A483291420FD0154A603291420BD01F
:10358000134A7832914207D0114A9032914203D0C7
:103590000F4AA832914214D1CAB2103A1823B2FB92
:1035A000F3F20C4C02F00703E35CC365032A04D971
:1035B0006FF30901091D816506E06FF3090181655B
:1035C00002E021F0FF018165806D10BD1000024016
:1035D000100402403879010810B501680123224C1B
:1035E000CAB2A1421BD0204C1434A14217D01E4CA9
:1035F0002834A14213D01C4C3C34A1420FD01A4CA9
:103600005034A1420BD0184C6434A14207D0164C60
:103610007834A14203D0144C8C34A1420FD1083A23
:103620001421B2FBF1F1114A02EB810202660F4A4A
:103630008032426601F01F018B40836610BD103A54
:103640001824B2FBF4F20A4C2144A82900D808320D
:10365000084901EB8201016606498031416602F0AA
:103660001F018B40836610BD085402580058025851
:10367000F0FBFDBF000802400279521E072A31D834
:10368000194B016899421BD0174B1433994217D03C
:10369000154B2833994213D0134B3C3399420FD02A
:1036A000114B503399420BD00F4B6433994207D0E2
:1036B0000D4B7833994203D00B4B8C33994207D191
:1036C0000A4901EB8201C16608494031016706E001
:1036D000074901EB8201C1660549403101670121BB
:1036E0009140416770470000085402580059025841
:1036F00000090240014610B500208B694FF0C074EC
:103700008A6A002B0ED0B3F5005F1AD062B3012A8B
:103710002AD0022A28D0032A03D1C96AC90100D5B8
:10372000012010BD1AB1012A06D0022AF9D1C96AB6
:10373000C901F6D5012010BDC96AA142FBD1012003
:1037400010BD52B1012A0AD0022A06D0032AF7D1AD
:10375000C96AA142F4D1012010BD012010BDC96A7F
:10376000C901FBD5012010BD012010BD2DE9F04F8E
:10377000856D8A4E894FDFF824C2A836DFF81C8297
:10378000DFF818920CF1180CDFF810A208F13008DD
:10379000DFF808B209F1480904680AF1600A0BF180
:1037A000780BBC426DD064456BD0444569D04C4524
:1037B00067D0544565D05C4563D0DFF8E0E10EF199
:1037C000900E74455DD0B4425BD0DFF8D4E174450F
:1037D00057D0DFF8CCE10EF1180E744551D0DFF868
:1037E000C0E10EF1300E74454BD0DFF8B4E10EF1BC
:1037F000480E744545D0DFF8A8E10EF1600E74451F
:103800003FD0DFF89CE10EF1780E744539D0DFF837
:1038100090E10EF1900E744533D0DFF884E10EF1A3
:10382000A80E74452DD0DFF87CE1744529D0DFF86F
:1038300074E10EF1140E744523D0DFF868E10EF147
:10384000280E74451DD0DFF85CE10EF13C0E744586
:1038500017D0DFF850E10EF1500E744511D0DFF8AB
:1038600044E10EF1640E74450BD0DFF838E10EF13F
:10387000780E744505D0DFF82CE10EF18C0E7445FE
:1038800009D1D0E919E4CEF80440C46E1CB1D0E9E6
:103890001CE4CEF804400468BC422ED064452CD011
:1038A00044452AD04C4528D0544526D05C4524D0E8
:1038B0003A4F9037BC4220D0B4421ED0384EB4426A
:1038C0001BD0374E1836B44217D0354E3036B4427E
:1038D00013D0334E4836B4420FD0314E6036B44226
:1038E0000BD02F4E7836B44207D02D4E9036B442CE
:1038F00003D02B4EA836B4421BD190F85C4004F0A4
:103900001F063F24B440AC600468256825F4802578
:103910002560046863608368402B05D00368996064
:103920000068C260BDE8F08F03689A600068C160FB
:10393000F8E71C4EB4421BD01A4E1436B44217D0CE
:10394000184E2836B44213D0164E3C36B4420FD02F
:10395000144E5036B4420BD0124E6436B44207D0E7
:10396000104E7836B44203D00E4E8C36B442D9D1C4
:1039700090F85C4004F01F060124B4406C600468B9
:1039800063608368402B04D0036899600068C2605C
:10399000C8E703689A600068C160C3E7100002408E
:1039A0001004024008540258C1680A68521C0A6098
:1039B000C1684B689A4206D90B600121C268117236
:1039C000C06841727047087A0128FBD10020087254
:1039D000704700000C4981610C4901620C49416249
:1039E0000C4981620C49C1620C4901630121C26822
:1039F0005172C26891729621C268516040689FED11
:103A0000080A80ED020A7047DD3A0008913A000882
:103A1000653A0008253A0008F5DB0008A9390008D6
:103A20000000000010B50446002C18D0E068417A70
:103A3000012909D0A0689FED0A0A80ED010A2046FD
:103A4000BDE810400AF0A4B90021417220460AF0F6
:103A50007FF92046BDE8104000210AF079B910BD79
:103A60000000000000280FD0C1684A7A012A06D061
:103A700081689FED060A81ED030A0AF089B90022E8
:103A80004A7200210AF064B970470000000000008B
:103A900010B504462DED028B002C10D0E068417A61
:103AA00001290FD0A0689FED0C8A80ED038A80ED7C
:103AB000048A20460AF06CF9A06880ED008ABDEC0B
:103AC000028B10BD002141722046BDEC028BBDE887
:103AD00010400AF03DB900000000000000280AD0A4
:103AE00081689FED050A81ED000A816881ED040A75
:103AF000806880ED030A70470000000010B50DF0EB
:103B0000A9FE0DF0B9FE0DF0DDFE0DF0EDFE0DF09D
:103B100083FEFDF77DF8FDF7E7F8BDE81040FDF7FF
:103B200025B90168C969C90601D512F0CDB8704739
:103B300003484FF47A7102888A4200D301807047AB
:103B40002C0A00202DE9F0412DED028B02784178FE
:103B500041EA02228378C17841EA03250379417959
:103B600041EA0326C179807941EA002710469FED9A
:103B70001D8ADFED1D8A1021F0EE480AB0EE680ABA
:103B800012F00CFB194C10EE100A20601021F0EE20
:103B9000480AB0EE680A284612F000FB10EE100A40
:103BA000606010219FED128ADFED128A3046F0EE40
:103BB000480AB0EE680A12F0F1FA10EE100AA0609E
:103BC0001021F0EE480AB0EE680A384612F0E6FA24
:103BD00010EE100AE060002007490880BDEC028B5F
:103BE000BDE8F0810000B4430000B4C37A1800209F
:103BF00000409C4500409CC52C0A00200278C178FA
:103C0000837841EA02624178090441EA03210A43C8
:103C10000849C1F816200379427942EA03224A830F
:103C2000C279807942EA0020888303490020088015
:103C300070470000781800202C0A002070B5044658
:103C40002DED028B2B4D207800F001006873207859
:103C5000C0F34000A8732078C0F38000E873207898
:103C6000C0F3C00028742078C0F300106874207876
:103C7000C0F34010A8742078C0F38010E872207858
:103C8000C00928736078E874A178E07840EA0120E0
:103C90009FED198ADFED198A1021F0EE480AB0EE87
:103CA000680A12F07BFA10EE100A686121796079D7
:103CB00040EA01201021F0EE480AB0EE680A12F046
:103CC0006DFA10EE100AA861A179E07940EA0120AE
:103CD0001021DFED0B0A9FED0B0A12F05FFA10EED8
:103CE000100A45F8010C002007490880BDEC028B42
:103CF00070BD00008B18002000003443000034C366
:103D0000C3F54840C3F548C02C0A00202DE9F04116
:103D10002DED028B0027374EC6F80270C6F80670EC
:103D2000B51C05F13A04287814F8101C01F00301C1
:103D3000084314F80F1C01F0010140EA810014F857
:103D40000E1C01F0010140EAC100617B01F001019C
:103D500040EA0110A17B01F0010140EA4110617FBE
:103D600001F0010140EA8110A17F40EAC1102870F2
:103D7000E17F687801F003010843E17B01F0010174
:103D800040EAC100E17A01F0010140EA0110217B23
:103D900001F0010140EA41106870AF70A07EE87048
:103DA000A06A9FED158ADFED158A00EE100A10203B
:103DB000B0EE481AF0EE680A10F06EFA8046E06A3B
:103DC000B0EE481A00EE100A1020F0EE680A10F06B
:103DD00063FA2F7185F80580AF71E871D121084829
:103DE0002A46FDF712F83088401C3080BDEC028B6B
:103DF000BDE8F0812C0A002000409C4500409CC595
:103E0000200C00202DE9F0412DED028B284C9FED78
:103E1000298ADFED298A2068B0EE481A00EE100AE0
:103E20001020F0EE680A10F037FA05466068B0EE30
:103E3000481A00EE100A1020F0EE680A10F02CFA72
:103E40000646A0689FED1D8ADFED1D8A00EE100A70
:103E50001020B0EE481AF0EE680A10F01DFA07467E
:103E6000E068B0EE481A00EE100A1020F0EE680A82
:103E700010F012FA0246A4F12501280A08704D70CC
:103E8000300A8870CE70380A08714F71100A887134
:103E9000CA710A460B48D221FCF7B7FFA4F12F01E3
:103EA0000888401C0880BDEC028BBDE8F081000052
:103EB0005B0A00200000B4430000B4C3C3F54840CF
:103EC000C3F548C0200C002070B52DED028B1C4CB2
:103ED0009FED1C8ADFED1C8A2068B0EE481A00EEC8
:103EE000100A1020F0EE680A10F0D6F90546606856
:103EF000B0EE481A00EE100A1020F0EE680A10F03A
:103F0000CBF90246A4F13A01280A08704D70100A54
:103F10008870CA702089020A0A714871B4F80B00CF
:103F2000020A8A71C8710A460848D321FCF76DFF5E
:103F3000A4F14C010888401C0880BDEC028B70BDC8
:103F4000780A002000004842000048C2200C0020EF
:103F500010B50F48A0F1420102780A7042784A7009
:103F600082788A70C278CA7002790A7142794A717D
:103F700082798A71C079C8710A460648D421FCF753
:103F800044FF03485C380188491C018010BD0000D3
:103F9000880A0020200C002010B50F4AA2F11D0055
:103FA00011680B0E03700B0C43700B0A8370C17009
:103FB00091880B0A03714171D1880A0A8271C1711B
:103FC000D52102460548FCF720FF03483F38018809
:103FD000491C018010BD00006B0A0020200C00204D
:103FE000704700000148C16A08470000EC12002435
:103FF00010B54FF4806002F0F2FEBDE810404FF4BF
:10400000805002F0ECBE10B54168406891ED090A9D
:104010004269B5EEC00AF1EE10FA00D18AB1088A01
:104020000B8BC01A00B241F6FE7400F6FF73A34278
:104030000FD9002807DBA0F5F850FF38104448617D
:1040400009E00020EFE741F6FF731844104448618F
:1040500001E010444861088A088310BD0168426885
:104060009FED1D0ADFED1D0A0B7A118A012BB0EEC0
:10407000001A0FD0032B1ED001EE901AF8EE611A31
:1040800081EE802A22EE200A20EE010A82ED080A43
:10409000FCF7C2BA01EE901AF8EE611A81EE802A9E
:1040A00022EE200ADFED0E0A20EE010A80EE201A31
:1040B00082ED081AECE701EE901AF8EE611A81EE33
:1040C000802A22EE200ADFED070A20EE010A80EEA8
:1040D000201A82ED081ADBE700F8FF45DB0F4940A4
:1040E00000008A410000104272B6FEE705480168F0
:1040F00041F0020101600348083801688904FCD5D9
:10410000704700000C480258014802F0B1BA0000A4
:10411000E00A0020014802F0ABBA0000800B00204A
:10412000014802F0A5BA0000200C002030B5426B17
:10413000036853F8844F4FF6FC718C4344EA8204C1
:104140001C60036853F8844F058F24F47F0444EA0D
:1041500005441C60836B1A44036853F8884F8C43F2
:1041600044EA82041C60036853F8884F858F24F466
:10417000FE0444EA05441C60C36B02EB430203687F
:1041800053F8A04F8C4344EA82041C60036853F840
:10419000A04FB0F8405024F4FE0444EA05441C60EB
:1041A000D0E9103403FB0422036853F8B04F8C436A
:1041B00044EA82041C60036853F8B04FB0F84850DA
:1041C00024F4FE0444EA05441C60D0E9123403FBE5
:1041D0000422036853F8AC4F8C4344EA82041C6009
:1041E000D0E9143403FB0422036853F8F04F8C43E6
:1041F00044EA82041C60036853F8F04FB0F858504A
:1042000024F47C1444EA05441C60836D02EB4303F0
:10421000026852F8C04F8C4344EA83011160016880
:1042200051F8C02FB0F85C3022F47C1242EA03420D
:104230000A60016851F8C02F90F8603022F07C527B
:1042400042EA03620A60416B224A02EB8101C166C5
:10425000826B01EB82020267C36B02EBC30242670F
:10426000D0E91034634302EB83028267D0E9123451
:10427000634302EB8302C267D0E91434634302EB69
:104280008302C0F88020836D02EBC302C0F8842053
:10429000C46D836E5C4302EB8402C0F88820046E18
:1042A0005C4302EB8402C0F890200B4B9A4208D981
:1042B0009830416841F020014160032101700120E4
:1042C00030BD002200E004C1D0F890308B42FAD813
:1042D000002030BD00AC0040FCD30040F0B5D1E977
:1042E00001650C692C430D68002E1AD045F08045FD
:1042F0002C4391F82070D1E9066535434E6946EAB2
:10430000076635438E8945EA0645D0F88460806E9D
:10431000584306EB80031C605D60083300200B4EA1
:104320000FE044EA8544E4E71418155CE77845EAB1
:104330000765A77864783F0447EA0424254320C32F
:10434000001DCC68345D8442EED8F0BD4079010890
:1043500010B504462DED0C8BF0EE40BAB0EE60BA0D
:104360002068C16891ED078A91ED00CAD1ED028AFB
:10437000D1ED049AD1ED05AA006990ED019A38EECD
:10438000690AB0EE40AA0FF0AFFA20EE0BDA39EE70
:10439000EA0AF0EE40AA0FF017FDDFED239A20EEB7
:1043A000290ACDEE00CA38EE680AB0EE408A0FF056
:1043B0009BFA20EE2BDA3CEE680AF0EE408A0FF012
:1043C00003FD20EE290A2068CDEE000A40693CEE8C
:1043D000E00A80ED040AB0EE480A0FF0F5FC6BEE3F
:1043E000890A60EE20BAB0EE680A0FF0EDFC20EE0C
:1043F000290A8BEE808AB0EE4A0A0FF0E5FC6BEEDC
:10440000090A60EE208AB0EE6A0A0FF0DDFC20EEA9
:10441000290A2068C8EE800A406938EE600A80EDFB
:10442000050ABDEC0C8B10BDF6285C3E0346104619
:1044300010B5002B01D0084C0AE04FF6FF7010BDFC
:1044400013F8012B4240D2B234F8122082EA102035
:10445000491E4A1CF4D110BDA876010810B5054CC0
:1044600003E010F8013B5340E25C491E89B2F8D2E8
:10447000104610BDA8750108C06890ED040A704789
:10448000C06890ED030A704770B504462DED028BAD
:104490003C490868606008696061C86820614868D4
:1044A000A0608868E060D1F82500A061D1F82900FB
:1044B000891EE061344DA06EA860206E2860606E99
:1044C0006860002295F82C006D1F002801D1C5F806
:1044D00011202E48C068037E012B02D0C378012B27
:1044E00000D12A714279012A05D0C27B012A02D06B
:1044F0000079012801D101202871D1F812009FED27
:10450000241B00EE100AB7EEC00A30EE410BB7EEE6
:10451000C00B84ED1D0A9FED208AF0EE480A0FF0D3
:10452000D0FE84ED1D0A20689FED1C2B406890EDA5
:10453000030AB7EEC01A31EE421BB7EEC10B84ED91
:104540001E0AF0EE480A0FF0BCFE84ED1E0A0FF0C2
:10455000CBF9144E3068D0ED010A20EE200A10EE9F
:10456000100A45F83A0F94ED1E0A0FF02DFC306842
:10457000D0ED010A20EE200A10EE100A6860BDECB2
:10458000028B70BD7A1800205B0A00201400002006
:104590001D38A9603BA502C0DB0FC940E71F2500FD
:1045A00084B2B73FDC21002470B504462DED028BA8
:1045B000814DE8684179002904D1C17D11B90179A3
:1045C000002974D0017C00269FED7C8A012902D14C
:1045D000427C012A01D0D9B363E094ED190ADFEDE2
:1045E000780A30EE200A84ED190AB7EEC01AB0EE50
:1045F000C11B9FED742BB4EEC21BF1EE10FA19DD56
:10460000B5EEC00AF1EE10FA01DD01210AE0F0EE8C
:10461000400AF5EEC00AF1EE10FA02D24FF0FF3177
:1046200000E0002100EE901AF8EEE00A00EEC80A61
:1046300084ED190A94ED1B0AD4ED100AB4EE600A59
:10464000F1EE10FA05D194ED140A84ED1B0A09E08D
:104650000AE094ED141AB4EE410AF1EE10FA01D119
:10466000C4ED1B0A06741CE0407C012819D1574890
:10467000D4ED190AD0F8060000EE100A30EEC00A98
:10468000F0EE480A0FF01DFEB7EEC01AB1EE042B93
:10469000B0EEC11BB4EEC21BF1EE10FA01D8E8680F
:1046A000467428784A4918B1012829D03DE07FE0B6
:1046B0000868D4ED090AB0F9081000EE101AB8EE37
:1046C000C00A20EE801A9FED430AC1EE000A94ED65
:1046D000191A70EE810AC4ED190AB0F90A0094EDB6
:1046E0000B1A00EE900AF8EEE00A61EE200A80EE66
:1046F000801A94ED180A31EE000A84ED180A14E0CD
:10470000086894ED190AD4ED0D0A90ED091A00EE2F
:10471000810A84ED190A94ED180AD4ED0F0A90ED80
:104720000A1A00EE810A84ED180A94ED190AF0EED7
:10473000480A0FF0C6FD84ED190A94ED1D0A9FED9D
:10474000284B9FED295BB7EEC03A9FED230B33EE6C
:10475000400B20EE041B81EE050B94ED011AB7EE21
:10476000C11A30EE012B94ED180AB7EEC00AB4EE70
:10477000C02BF1EE10FA02D2B0EE420B10E09FED2A
:104780001C2B32EE432B22EE043B83EE052B31EE45
:10479000421BB4EEC01BF1EE10FA01DDB0EE410B8E
:1047A000B7EEC00B84ED180A94ED050A84ED1A0AE1
:1047B000BDEC028B70BD0000140000200000B4436B
:1047C000000034430000000000806640781800209C
:1047D0006009002000002544A0DF41FD78D9E0BF3A
:1047E0000000000000807640000000C0CA2119408F
:1047F00058EC3005EFD4D43F70B504462DED028B54
:10480000724DE868C178007A002901D1002877D07C
:10481000012806D0204600F0A5F9E868017C59B1CE
:104820000CE06B48406B90ED030A84ED1B0A9FED92
:10483000690A84ED1A0AA5E0427C1AB10026012912
:104840001CD01EE094ED1E0AB7EEC00AB0EEC00BFD
:104850009FED611BB4EEC10BF1EE10FA04D89FED91
:10486000600A84ED1B0A66E0B4EEC10BF1EE10FAAB
:1048700061DD94ED140A84ED1B0A5CE0427C012AA0
:1048800001D0C9B157E094ED1B0AD4ED100AB4EE83
:10489000600AF1EE10FA04D194ED140A84ED1B0ABB
:1048A00008E094ED141AB4EE410AF1EE10FA01D1C9
:1048B000C4ED1B0A06743EE0407C01283BD194ED18
:1048C0001B0A94ED101ADFED470A9FED478BB4EEFB
:1048D000410AF1EE10FA14D12068406890ED030A05
:1048E00031EE400A0FF0EDFCB7EEC00AB0EEC00B9F
:1048F000B4EEC80BF1EE10FA1DD8E86846741AE061
:1049000060E094ED141AB4EE410AF1EE10FA12D1FF
:104910002068406890ED030A31EE400A0FF0D1FCA8
:10492000B7EEC00AB0EEC00BB4EEC80BF1EE10FA51
:1049300001D8E868467428782D4910B1012816D0AE
:1049400020E00868D4ED0A0A9FED2A1AB0F90A009F
:1049500000EE100AB8EEC00A60EE800A80EE810A0E
:10496000D4ED1A0A30EEC00A84ED1A0A0AE008688B
:1049700094ED1A0AD4ED0E0A90ED0A1A00EEC10A5F
:1049800084ED1A0A94ED1A0A1B4910EE100A8842A7
:1049900002D29FED1A0B09E010EE100A1949884265
:1049A00002D99FED190B01E0B7EEC00AB7EEC00BBC
:1049B00084ED1A0A94ED020A84ED190A94ED010AB5
:1049C00084ED180ABDEC028B70BD000014000020BD
:1049D00054070024DB2915C000000060FB21F93FCB
:1049E0002094BD3DDB0FC940000000601857B63F62
:1049F0006009002000002544EC5400C0921A038096
:104A00009D0A00C0CDDC36C005B0F99F99DB06C019
:104A100010B504464E48C078002850D04D48C068B4
:104A2000C178012952D00179012905D041790129A4
:104A300002D0C07B012841D1206894ED190A006999
:104A400080ED480A206894ED020A006980ED490A69
:104A500020680069D0ED480A30EEC00A80ED4A0AAD
:104A6000DFED3D0A0FF02DFC2068006980ED4A0A59
:104A70002068006900F5907010F080FF20680069E0
:104A800090ED520A80ED300A206894ED030A006927
:104A900080ED310A20680069D0ED300A30EEC00A9E
:104AA00080ED320A20680069C03010F067FF20688E
:104AB0000169806891ED3A0A80ED000A10BD206816
:104AC0009FED260A806880ED000A10BD206894EDF5
:104AD0001B0A006980ED180A20684168006991EDA1
:104AE000030A80ED190A20680069D0ED180A30EE3B
:104AF000C00A80ED1A0ADFED1A0A0FF0E2FB206807
:104B0000006980ED1A0A20680069603010F036FFF5
:104B10002068006990ED220A80ED000A206894ED7B
:104B2000030A006980ED010A20680069D0ED000ADF
:104B300030EEC00A80ED020A2068006910F01EFF06
:104B400020680169806891ED0A0A80ED000A10BDB5
:104B5000560A0020140000200000B44300000000AA
:104B6000DB0FC94029494A78002A4ED190ED1E0A30
:104B70009FED271BB7EEC00AB0EEC00BB4EEC10B21
:104B8000F1EE10FA04D89FED240A80ED1B0A08E02C
:104B9000B4EEC10BF1EE10FA03DD90ED140A80EDD6
:104BA0001B0A1F4B1D4AC3F80D2090ED020A80ED31
:104BB000190A90ED010A80ED180A00689FED191B93
:104BC000406890ED030AB7EEC00A31EE400BB0EE3C
:104BD000C01B9FED160BB4EEC01BF1EE10FA14D8FB
:104BE00014489FED152BD0F8120001EE100AB7EE15
:104BF000C11A32EE411BB0EEC11BB4EEC01BF1EE88
:104C000010FA02D8C96801204876704714000020C5
:104C100000000060FB21F93F2094BD3DDB2915C059
:104C2000560A0020E71F250084B2B73F000000406D
:104C3000E17A943F781800201D38A9603BA502C096
:104C400010B504460D48C1782068002903D0016AD8
:104C5000BDE8104008479FED0A0A84ED1B0A9FED4E
:104C6000090A84ED1A0A9FED080A84ED180A816981
:104C700088472068016ABDE810400847560A0020AE
:104C80002094BD3DDB2915C00000000010B504468E
:104C90002046FFF7F9FB2046FFF7AEFD2046FFF761
:104CA00083FC20460CF0D2FF2046FFF7B1FE2046E1
:104CB000BDE81040FFF7C4BF10B50446002154F80A
:104CC000210048B1026852785206120E80680089AD
:104CD0002244030A13745074491CC9B20429EED348
:104CE000D4E9061004F11002FCF78FF800202061CF
:104CF000606110BD10B504462068002801D0016B2A
:104D00008847606808B1016B8847A06808B1016BEB
:104D10008847E068002803D0016BBDE810400847D1
:104D200010BD70B50546002455F8240008B1016B8C
:104D30008847641CE4B2042CF6D370BD30B503463A
:104D40000024144D1868002804D045611868FEF747
:104D500041FE0124586828B145615868FEF73AFEC3
:104D6000641CE4B2986828B145619868FEF732FE89
:104D7000641CE4B2D86828B14561D868FEF72AFE01
:104D8000641CE4B21C740448586104481862044866
:104D9000986130BDD5390008A54D0008F54C0008D4
:104DA000154E000870B50546084C207855F82000CF
:104DB000002804D0016A88472078401C2070287C95
:104DC0002178884201D80020207070BD5013002443
:104DD00070B50546002455F8240068B1016849788B
:104DE00049060E0E0BF05CFF55F824008068008920
:104DF000020AA9190A744874641CE4B2042CEAD3A8
:104E0000D5E9061005F11002FBF7FFFF002028612D
:104E1000686170BD10B504462068002801D0816922
:104E20008847606808B181698847A06808B18169CE
:104E30008847E068002803D08169BDE81040084732
:104E400010BD000000219FED060A50F8212012B18C
:104E5000926882ED000A491CC9B20429F5D3704753
:104E6000000000002DE9F84F044602F0D7F800904A
:104E70005CB194F83500022809D0802060650020DC
:104E800084F834000120BDE8F88F0120FBE7D14E03
:104E9000D04FD0491836DFF83C833037DFF83493F1
:104EA000DFF830A308F14808DFF828B309F16009FA
:104EB00020680AF1780A0BF1900B88422ED0B0429C
:104EC0002CD0B8422AD0404528D0484526D050455D
:104ED00024D0584522D0BF4AA83290421ED0BE4AA4
:104EE00090421BD0BC4A1832904217D0BA4A303296
:104EF000904213D0B84A483290420FD0B64A60323E
:104F000090420BD0B44A7832904207D0B24A9032E5
:104F1000904203D0B04AA83290420AD1026822F0EF
:104F20001E0202602068426922F080024261256808
:104F300004E0026822F00E020260256820688842C0
:104F40004DD0B0424BD0B84249D0404547D04845FB
:104F500045D0504543D0584541D09E4AA832904252
:104F60003DD09D4A90423AD09B4A1832904236D06A
:104F7000994A3032904232D0974A483290422ED0ED
:104F8000954A603290422AD0934A7832904226D095
:104F9000914A9032904222D08F4AA83290421ED03D
:104FA0008E4A90421BD08D4A1432904217D08B4AC1
:104FB0002832904213D0894A3C3290420FD0874A1F
:104FC000503290420BD0854A6432904207D0834AD7
:104FD0007832904203D0814A8C32904204D1206EC4
:104FE000026822F4807202607A49206888422ED0DA
:104FF000B0422CD0B8422AD0404528D0484526D0CF
:10500000504524D0584522D07249A83188421ED03C
:10501000714988421BD070491831884217D06E49B7
:105020003031884213D06C49483188420FD06A49E8
:10503000603188420BD068497831884207D0664990
:105040009031884203D06449A831884204D1016874
:1050500021F00101016013E0016821F0010101600C
:105060000EE001F0DBFF0099401A052808D9202046
:10507000343420620320607000202070012002E799
:105080002868C007EDD1534A0121206890422ED0F4
:10509000B0422CD0B8422AD0404528D0484526D02E
:1050A000504524D0584522D04A4BA83398421ED0B0
:1050B000494B98421BD0484B1833984217D0464B67
:1050C0003033984213D0444B483398420FD0424B70
:1050D000603398420BD0404B7833984207D03E4B18
:1050E0009033984203D03C4BA833984208D1A06D2E
:1050F00094F85C3003F01F053F23AB40836007E06A
:10510000A06D94F85C3003F01F0301FA03F34360D1
:10511000206890424DD0B0424BD0B84249D0404573
:1051200047D0484545D0504543D0584541D0294AFD
:10513000A83290423DD0284A90423AD0264A1832AE
:10514000904236D0244A3032904232D0224A4832FD
:1051500090422ED0204A603290422AD01E4A7832A5
:10516000904226D01C4A9032904222D01A4AA8324D
:1051700090421ED0194A90421BD0184A14329042D5
:1051800017D0164A2832904213D0144A3C3290422B
:105190000FD0124A503290420BD0104A64329042E3
:1051A00007D00E4A7832904203D00C4A8C3290429B
:1051B0000BD1D4E919205060E06E30B1026822F4BE
:1051C00080720260D4E91C20506034346170002089
:1051D000207058E6100002401004024008540258A3
:1051E0002DE9F05F002808D090F83510022906D08C
:1051F000802141650120BDE8F09F0120FBE7A14A25
:10520000A04BA04C18329F4D30339E4E4834DFF8EF
:1052100074B26035DFF870C27836DFF86C82DFF880
:1052200068920CF1300CDFF860A208F160080168A8
:1052300009F17809944F0AF1900A594531D0914209
:105240002FD099422DD0A1422BD0A94229D0B142D2
:1052500027D0DFF830E20EF1900E714521D0DFF853
:1052600024E20EF1A80E71451BD0DFF81CE2AEF16E
:10527000180E714515D0B94213D0DFF80CE20EF1CB
:10528000180E71450DD061450BD0DFF8FCE10EF131
:10529000480E714505D0414503D0494501D05145DF
:1052A00037D14FF0040E80F835E0594527D09142B0
:1052B00025D0994223D0A14221D0A9421FD0B1428A
:1052C0001DD070489030814219D06E48A83081427C
:1052D00015D06D481838814211D0B9420FD06A48B4
:1052E000183081420BD0614509D06748483081426F
:1052F00005D0414503D0494501D0514504D1086846
:1053000020F001000860BAE0086820F001000860A1
:10531000B5E0D1F800E02EF00E0EC1F800E0016813
:10532000DE46594531D091422FD099422DD0A1422D
:105330002BD0A94229D0B14227D0DFF848B10BF1D8
:10534000900B594521D0DFF83CB10BF1A80B594522
:105350001BD0DFF834B1ABF1180B594515D0B94269
:1053600013D0DFF824B10BF1180B59450DD061456E
:105370000BD0DFF814B10BF1480B594505D041456E
:1053800003D0494501D0514506D1D1F800B02BF0EA
:10539000010BC1F800B005E0D1F800B02BF0010B13
:1053A000C1F800B001684FF0010B714546D0914241
:1053B00044D0994242D0A14240D0A9423ED0B1420D
:1053C0003CD0304A9032914238D02E4AA832914295
:1053D00034D02D4A183A914230D0B9422ED02A4AC0
:1053E000183291422AD0614528D0274A483291424A
:1053F00024D0414522D0494520D051451ED0234AD2
:1054000091421BD0214A1432914217D01F4A2832B0
:10541000914213D01D4A3C3291420FD01B4A503268
:1054200091420BD0194A6432914207D0174A783220
:10543000914203D0154A8C32914218D1016E0A680C
:1054400022F480720A60816D90F85C2002F01F02E5
:105450000BFA02F24A60D0E919215160C16E31B1F4
:105460000A6822F480720A60D0E91C21516080F839
:1054700035B0002180F83410016D01B1884700205B
:10548000B9E6000010000240280402400854025807
:105490002DE9FF5F0446002001904FF41651FD48AE
:1054A0000068B0FBF1F00090A56D2E682968FA4FF6
:1054B000DFF8E4B3DFF8E083DFF8DC930BF1180BDF
:1054C000DFF8D4A308F13008206809F148090AF18F
:1054D000600AB8423BD05A46904238D0404536D058
:1054E000484534D0504532D0EB4A783290422ED0E5
:1054F000E94A903290422AD0E74AA832904226D018
:10550000E64A904223D0E54A183290421FD0E34B3E
:10551000303398421BD0E14B4833984217D0DFF824
:105520007CC30CF1600C604511D0DFF870C30CF146
:10553000780C60450BD0DFF864C30CF1900C60452B
:1055400005D0DFF858E30EF1A80E70457ED194F82F
:105550005C10082301F01F0103FA01F232424BD024
:10556000B84232D0584530D040452ED048452CD096
:1055700050452AD0C8497831884226D0C649903152
:10558000884222D0C449A83188421ED0C3498842EB
:105590001BD0C2491831884217D0C04930318842E7
:1055A00013D0BE49483188420FD0BC49603188428F
:1055B0000BD0BA497831884207D0B8499031884237
:1055C00003D0B649A831884203D1016801F0040133
:1055D00002E0016801F0080171B1016821F00401E5
:1055E000016094F85C0000F01F0003FA00F2AA606A
:1055F000606D40F00100606594F85C00012100F0EE
:105600001F008140314240D02068B84234D0584514
:1056100032D0404530D048452ED050452CD09E4AFF
:105620007832904228D09C4A9032904224D09A4AB4
:10563000A832904220D0994A90421DD0974A183201
:10564000904219D0954A3032904200E0D2E113D016
:10565000924A483290420FD0904A603290420BD02A
:105660008E4A7832904207D08C4A9032904203D0D2
:105670008A4AA83290427DD1406910F0800F04D050
:10568000A960606D40F00200606594F85C00042140
:1056900000F01F00814031423ED02068B84232D035
:1056A000584530D040452ED048452CD050452AD0C2
:1056B000794A7832904226D0774A9032904222D06E
:1056C000754AA83290421ED0744A90421BD0734A49
:1056D0001832904217D0714A3032904213D06F4A3C
:1056E000483290420FD06D4A603290420BD06B4AE4
:1056F0007832904207D0694A9032904203D0674A8C
:10570000A83290424ED1006810F0020F04D0A96078
:10571000606D40F00400606594F85C00102100F0BA
:105720001F008140314260D02068B84234D05845D3
:1057300032D0404530D048452ED050452CD0564A26
:105740007832904228D0544A9032904224D0524A23
:10575000A832904220D0514A90421DD04F4A183270
:10576000904219D04D4A3032904215D04B4A4832BF
:10577000904200E014E00FD0484A603290420BD0D3
:10578000464A7832904207D0444A9032904203D041
:10579000424AA832904207D1006800F0080006E0B3
:1057A000006872E70068B7E7006800F0040058B1CD
:1057B000A9602068016849030CD50068000304D47F
:1057C000216C09B1204688470FE0A16C69B12046E1
:1057D00088470AE00168C90503D4016821F008017F
:1057E0000160216C09B12046884794F85C002021B3
:1057F00000F01F00814031427BD02068B84232D097
:10580000584530D040452ED048452CD050452AD060
:10581000214A7832904226D01F4A9032904222D0BC
:105820001D4AA83290421ED01C4A90421BD01B4AEF
:105830001832904217D0194A3032904213D0174A8A
:10584000483290420FD0154A603290420BD0134A32
:105850007832904207D0114A9032904203D00F4ADA
:10586000A832904203D1006800F0100002E0006806
:1058700000F00200E8B3A96094F83500042812D0C3
:105880002068016849033DD50068000335D4616C88
:1058900079B305E0D40A0020100002401004024051
:1058A000204688473FE02068016821F0160101602A
:1058B0002068416921F080014161206C08B9A06C29
:1058C00020B12068016821F00801016094F85C00B3
:1058D00000F01F013F208840A860012084F83500B7
:1058E000002084F83400216D002974D004B02046D3
:1058F00000E018E0BDE8F05F0847E16B99B1204691
:10590000884710E00168C90509D4016821F0100139
:105910000160012084F83500002084F83400E16B38
:1059200009B120468847606D002854D0606DC007DB
:1059300058D0042084F835002068B84231D058454A
:105940002FD040452DD048452BD0504529D0B749C0
:10595000884226D0B5491831884222D0B349303127
:1059600088421ED0B24988421BD0B14918318842C2
:1059700017D0AF493031884213D0AD494831884201
:105980000FD0AB49603188420BD0A94978318842A9
:1059900007D0A7499031884203D0A549A831884251
:1059A00004D1016821F00101016003E0016821F0E8
:1059B0000101016021680198009A401C0190904209
:1059C00002D80868C007F6D10868C00704D00320D1
:1059D00084F8350003E087E0012084F835000020DA
:1059E00084F83400E16C00297ED004B02046BDE884
:1059F000F05F08478F4EB0421BD08E4E1436B04237
:105A000017D08C4E2836B04213D08A4E3C36B04266
:105A10000FD0884E5036B0420BD0864E6436B0421E
:105A200007D0844E7836B04203D0824E8C36B042D6
:105A30005AD106684FF0040E94F85CB00BF01F0BBF
:105A40000EFA0BFE1EEA010FCDF80CE05ED05FEA05
:105A5000467E5BD503986860300411D5F00307D407
:105A6000A16C002940D004B02046BDE8F05F084793
:105A7000216C002938D004B02046BDE8F05F08470B
:105A8000B0063BD42068B8422DD0684960398842BE
:105A900029D0404527D0484525D0504523D06349DB
:105AA000884220D06149183188421CD05F4930318A
:105AB000884218D05E49884215D0904213D05C4984
:105AC000303188420FD098420DD059496031884218
:105AD00009D057497831884205D0604503D05449F0
