:020000040800F2
:1000000028560024A1030008A5DF00080FA200085D
:10001000E1D30008E50B0008F9100108000000001A
:10002000000000000000000000000000E1020008E5
:100030006D3B0008000000003D0300083FFD000884
:10004000BF030008BF030008BF030008BF03000888
:10005000BF030008BF030008BF030008BF03000878
:10006000BF030008BF030008BF03000809300008F1
:1000700015300008213000082D3000083930000804
:100080004530000851300008BF030008953C0008C7
:10009000A13C0008BF030008BF030008BF0300081D
:1000A000BF030008BF030008BF030008BF03000828
:1000B000CDFE0008BF030008BF030008BF0300080F
:1000C000BF030008BF030008BF030008BF03000808
:1000D00029F300086D0E0108BF030008BF030008E4
:1000E0007D3B0008BF03000800000000BF030008BC
:1000F000BF030008BF030008BF0300085D3000080D
:10010000BF030008BF030008BF030008BF030008C7
:10011000BF03000821040108BF030008BF03000853
:100120006930000875300008813000088D30000803
:1001300099300008BF030008BF030008BF03000890
:1001400000000000000000000000000000000000AF
:10015000BF030008BF030008BF030008BF03000877
:10016000BF030008BF030008BF030008BF03000867
:10017000BF030008BF030008BF0300080000000021
:10018000BF030008BF030008BF0300082D040108D7
:10019000BF030008BF03000835F30008BF030008D1
:1001A000BF030008BF030008BF03000800000000F1
:1001B000BF030008BF030008BF030008BF03000817
:1001C000BF030008BF03000800000000000000009B
:1001D0000000000000000000BF0300080000000055
:1001E000000000000000000000000000000000000F
:1001F0000000000000000000BF030008BF0300086B
:10020000BF030008BF03000800000000BF03000890
:10021000BF030008BF030008BF030008BF030008B6
:10022000BF03000800000000BF030008000000003A
:10023000BF030008BF03000800000000BF03000860
:10024000BF030008BF030008BF030008BF03000886
:10025000BF030008BF030008BF030008BF03000876
:10026000BF030008BF030008BF030008BF03000866
:10027000BF030008BF030008BF0300080000000020
:10028000BF030008BF030008BF030008BF03000846
:1002900000000000BF030008BF03000800000000CA
:1002A00000000000BF030008BF0300084504010868
:1002B000310E0108BF030008BF030008AD3C000871
:1002C000BF030008BF030008BF030008DFF80CD01D
:1002D00000F00AF900480047613F01082856002451
:1002E0002C4B19680868B0E8F04F80F30988BFF319
:1002F0006F8F4FF0000080F31188704700000000FE
:1003000008480068006880F308884FF0000080F318
:10031000148862B661B6BFF34F8FBFF36F8F00DFF3
:1003200000BF00BF08ED00E0DFF80C00016841F4F9
:1003300070010160704700BF88ED00E0EFF30980B5
:10034000BFF36F8F134B1A681EF0100F08BF20ED1C
:10035000108A20E9F04F106009B44FF0500080F38C
:100360001188BFF34F8FBFF36F8F15F085FC4FF0EF
:10037000000080F3118809BC19680868B0E8F04FE4
:100380001EF0100F08BFB0EC108A80F30988BFF38D
:100390006F8F704744130024EFF30580704700000F
:1003A000074880470748804707480047FEE7FEE7C1
:1003B000FEE7FEE7FEE7FEE7FEE7FEE7FEE7FEE715
:1003C000793C0008F5FD0008CD0200082DE9F05F3A
:1003D0000546002092469B468846064681464024B4
:1003E0001BE0284641464746224600F053F8534654
:1003F0005A46C01A914110D311461846224600F0C1
:1004000016F82D1A67EB01084F46224601200021FD
:1004100000F00DF817EB00094E41201EA4F1010475
:10042000DFDC484631462A464346BDE8F09F202A95
:1004300004DB203A00FA02F1002070479140C2F13B
:10044000200320FA03F319439040704740EA010368
:100450009B0703D009E008C9121F08C0042AFAD27A
:1004600003E011F8013B00F8013B521EF9D270473E
:10047000D2B201E000F8012B491EFBD270470022E6
:10048000F6E710B513460A4604461946FFF7F0FF93
:10049000204610BD202A04DB203A21FA02F0002178
:1004A000704721FA02F3D040C2F120029140084384
:1004B0001946704770B521F0004303430CD0C1F3D7
:1004C0000A550024D5EB040564EB0403D617AD1AD6
:1004D000B34102DB0020014670BD201841EB025100
:1004E00070BD002070470000064C074D06E0E06834
:1004F00040F0010394E8070098471034AC42F6D36B
:10050000FFF7E8FE8C7B0108CC7B010870B58C18E6
:1005100010F8015B15F0070301D110F8013B2A1117
:1005200006D110F8012B03E010F8016B01F8016B04
:100530005B1EF9D12B0705D40023521E0DD401F800
:10054000013BFAE710F8013BCB1A921C03E013F8C9
:10055000015B01F8015B521EF9D5A142D8D30020FE
:1005600070BD00009FED280A016891F90C10012967
:1005700031D04A1C2FD0B7EE001A4168D1ED041AD1
:10058000D1ED020AF5EEC01AF1EE10FA04D1F5EE43
:10059000C00AF1EE10FA03D091ED030A30EE610AC1
:1005A000B5EEC00AF1EE10FAF1EE401A174B70FEEC
:1005B000211A11EE902A9A421BDDB5EEC00AF1EE27
:1005C00010FA0DDDDFED121A30EE210A40EE010ABD
:1005D000C1ED020A11E000EE901AB8EEE01ACCE785
:1005E000DFED0C1A30EE210A40EE010AC1ED020ADD
:1005F00003E040EE010AC1ED020A406890ED030AF3
:1006000080ED040A7047000000000000DB0F494045
:10061000DB0FC9C0DB0FC94010B59FED3B0A026874
:1006200092F9001001293BD04B1C39D0B7EE001ACB
:100630004168D1ED091AD1ED070AF5EEC01AF1EEC5
:1006400010FA04D1F5EEC00AF1EE10FA03D091EDE4
:10065000080A30EE610AB5EEC00AF1EE10FAF1EECA
:10066000401A2A4C30FE212A12EE103AA3421CDC1A
:10067000B5EEC00AF1EE10FA254C70FE211A11EE0B
:10068000903AA34202DD137A012B0ED040EE010A0C
:10069000C1ED070A406890ED080A80ED090A10BD17
:1006A00000EE901AB8EEE01AC2E7B5EEC00AF1EE1D
:1006B00010FA14DD127A012A08D0DFED161A30EE96
:1006C000210A40EE010AC1ED070AE3E7DFED121A45
:1006D00030EE210A40EE010AC1ED070ADAE7127A8C
:1006E000012A08D0DFED0D1A30EE210A40EE010A92
:1006F000C1ED070ACEE7DFED0A1A30EE210A40EE1F
:10070000010AC1ED070AC5E700000000DB0F494000
:10071000037E3A3EDB0FC9C0037EBABEDB0FC94081
:10072000037EBA3E01220248114606F009B90000D4
:100730000008025800220248012106F001B9000019
:10074000000802587047000001220248082106F004
:10075000F7B800000008025800220248082106F0FD
:10076000EFB8000000080258704770B504464FF417
:100770007A7502E0284600F004F8641EA4B2F9D2AB
:1007800070BD70B5054612F0D5FF044612F0D2FFD9
:10079000001BA842FAD370BD10B5FFF7D3FFFFF7D7
:1007A000E3FF12F0D3FE044612F056FF204310BDC3
:1007B0002DE9FC4104460D461646002000900190AC
:1007C000FFF7B8FF922000F0BFF80622694612201A
:1007D00000F09CF8FFF7A6FF9DF801009DF80010BF
:1007E000000200B20843484F00EE100AD7ED000A9D
:1007F000B8EEC00A20EE200A85ED000A9DF803003D
:100800009DF80210000200B2084300EE100AF8EE54
:10081000C00A97ED000A60EE800AC5ED010A9DF856
:1008200005009DF80410000200B2084300EE900A93
:10083000F8EEE00A20EE800A85ED020AFFF78CFF51
:1008400008226946002000F061F8FFF77DFF9DF85F
:1008500000000F2830D19DF803009DF8021000021F
:1008600000B2084300EE100AD7ED010AB8EEC00A44
:1008700020EE200A84ED000A9DF805009DF8041082
:10088000000200B2084300EE100AF8EEC00A97ED2D
:10089000010A60EE800AC4ED010A9DF807009DF888
:1008A0000610000200B2084300EE900AF8EEE00ADB
:1008B00020EE800A84ED020AFFF73CFFA22000F040
:1008C00043F802226946222000F020F8FFF72AFFB1
:1008D0009DF800009DF80110C00040EA5110B0F5ED
:1008E000806F02DBA0F5006000B200EE100AB4EEEB
:1008F000001AF8EEC00AB3EE070A00EE810A86ED90
:10090000000ABDE8FC810000600D002470B50D46B2
:10091000144640F0800000F017F806E0552000F083
:1009200013F805F8010B641EE4B2002CF6D170BD7B
:1009300010B50C4640F0800000F006F8552000F09D
:1009400003F8207010BD000001B582B04FF47A703A
:100950000123009001AA034802A908F03BF89DF882
:1009600004000EBDB813002410B50C46FFF7ECFFD1
:100970002046BDE81040FFF7E7BF000070B5044611
:100980000D4616462DED088BF0EE618AB0EE429AC8
:10099000B0EE628AB7EEC04A9FED3A3B24EE034BBD
:1009A000B7EEC4ABB7EEE04A24EE033BF7EEC3ABC1
:1009B000B0EE4A0A12F010FDDFED349A40EE298ABB
:1009C000B0EE6A0A12F008FDB0EE40BAB0EE4A0A84
:1009D00012F092FA2BEE000A00EE699AB0EE6A0A63
:1009E00012F08AFAB0EE40BAB0EE4A0A12F084FA77
:1009F0002BEE000A00EE698AB0EE4A0A12F07CFA89
:100A000060EE289AB0EE4A0A12F0E6FC48EE009A30
:100A1000C4ED009AB0EE6A0A12F06EFA60EE099A1E
:100A2000B0EE6A0A12F0D8FC48EE409AC5ED009A82
:100A3000B0EE4A0A12F060FA20EE088AB0EE6A0AB6
:100A400012F05AFA28EE008AB0EE4A0A12F0C4FCFC
:100A500060EE288AB0EE6A0A12F04EFA08EEC08AFA
:100A6000B0EE6A0A12F0B8FC60EE098AB0EE4A0AEB
:100A700012F042FA08EE808A86ED008ABDEC088BFF
:100A800070BD0000514CDE0033DF913F0AE81C418D
:100A9000024981610249016170470000DD0A0008D6
:100AA000700000200B49012289680978012900D1D2
:100AB0000272417831B90849C968097A11B9418986
:100AC000491C418143894FF448718B4201D34181D4
:100AD00002727047480700241400002070B50446D5
:100AE0002046FFF7DFFF3C4801253C49027E0020FD
:100AF000012A05D06278012A16D0072A2BD02DE0D2
:100B000065706081E2689570E2681076344A926898
:100B1000107020728870C870C87781F83100E16861
:100B20000872E168487270BDE2689070E268D57042
:100B3000E268127A012A05D0607022782AB1012A6F
:100B400005D006E007226270F7E78D7001E002220F
:100B50008A70C87770BDE368DE7A2EB1E368DE7A0A
:100B6000012E0CD092B113E09A7A32B1012AF1D160
:100B7000CD700871E068C57070BDC87070BDD87266
:100B8000E16888726070E068C57070BD267A0EB149
:100B90002AB107E0CD700871E068C57070BD227A97
:100BA000012A09D09870207880B10128F6D120461A
:100BB000BDE870400BF08EB860810522627018713C
:100BC000E268D570E2689571087170BD2046BDE895
:100BD00070400DF031BB000058090020CE120024F7
:100BE00048070024FEE7000010B58AB000240294F4
:100BF000039402200490012005900694079402A912
:100C0000094805F09AF8022207480023114600948B
:100C100005F0D7F804480022012105F015F8024834
:100C200005F054FD0AB010BDA40A00200C4A11289A
:100C30000AD012280BD0A0F5007001380AD0032882
:100C40000CD10848026A10471068C26A1047506801
:100C5000C26A104704480068026A104770470000E3
:100C60005C0E0024581200248808002010B58AB0B9
:100C7000002402940394022004900120059006941D
:100C8000079402A9094805F058F8022207480023F2
:100C90001146009405F095F804480022012104F063
:100CA000D3FF024805F012FD0AB010BD440B00202E
:100CB000122812D00B4A132809D014280AD0A0F504
:100CC000007001380CD108484068026A10479068EB
:100CD000C26A1047D068C26A10470448C26A104707
:100CE000704700005C0E00248808002000100024DB
:100CF00010B58AB0002402940120039002200490D1
:100D000005900694079402A9094805F016F80222F6
:100D1000074800231146009405F053F804480022C8
:100D2000102104F091FF024805F0D0FC0AB010BD7C
:100D3000E40B0020C1280AD0C2280BD0C3280CD055
:100D4000A0F5007011380BD106480269104708461B
:100D500002F0BEBC084602F017BD084602F034BDE2
:100D600070470000740900204178007841EA0020B3
:100D70007047C178807841EA002000B2704741791D
:100D8000007941EA002000B270478079704700B5D1
:100D900089B00023019300910821039104930593E6
:100DA0000693029308930793694604F08FFF09B0F6
:100DB000002000BD41688A88521C92B28A80416836
:100DC0000B889A4204D38B80012140688170704760
:100DD000002088707047000042680021118002499D
:100DE00001610249C1607047C1370108B50D0008B3
:100DF00070B50446204601F00DFF207801256A4EAB
:100E00000B287DD2DFE800F006351F142A93A0C41A
:100E1000A8B68800204601F099FA204601F0A0FB10
:100E2000204600F0CBF82046BDE8704000F094BDAD
:100E3000204601F08BFA204601F092FB2046BDE8E7
:100E4000704000F0ADBF204601F080FA204601F06E
:100E500087FB2046BDE8704000F0A2BF204601F0AD
:100E600075FA204601F07CFB2046BDE8704000F09A
:100E700097BF204601F074FB204600F091FFA06A66
:100E8000006890ED000AB7EEC00AB0EEC01B9FEDFF
:100E9000470BB4EEC01BF1EE10FA3ED8E1680868CB
:100EA00000680069D0ED011A9FED421A424A71EEC6
:100EB000C11A11EE900A90422FDC20690268126874
:100EC0001269D2ED011A31EEC11AB7EEC11AB0EEB5
:100ED000C11BB4EEC01BF1EE10FA1ED840680068CA
:100EE00090ED001AB7EEC11AB0EEC11BB4EEC01BF4
:100EF000F1EE10FA11D84868006890ED001A00E091
:100F000046E0B7EEC11AB0EEC11BB4EEC01BF1EE65
:100F100010FA02D8A068057070BD307A012803D09D
:100F2000A1680020087070BDA068057070BD2046E3
:100F300001F00CFAF0688573204601F011FB2046A1
:100F4000BDE8704000F02CBF20460DF00BFC2046A1
:100F5000BDE8704000F024BF204601F0F7F92046BC
:100F60000AF024F9204601F0FBFA2046BDE8704063
:100F700000F016BF204601F0E9F920460AF0BCFF58
:100F8000204601F0EDFA2046BDE8704000F008BFB1
:100F9000E06B81698847A06B816A88472046BDE87D
:100FA000704000F0D9BC0000140000200000004098
:100FB000E17A843F7B142E3E0AD7233C10B50446C9
:100FC0000F48C068407800280AD0A08BB0F57A7F1F
:100FD0000ED2204601F076F9A08B401CA08310BDF4
:100FE000E06B81698847A06B816ABDE810400847C3
:100FF000E06B81698847A06B816ABDE810400847B3
:101000001400002010B504462DED048BA06A416841
:101010008847E06B016800200CF078FEB0EE408A53
:10102000E06B416800200CF0C9FEB0EE401AE16BA5
:1010300008684068D0ED000A49684968D1ED001A97
:1010400090ED012AD1ED012AE068B0EE480A00686F
:1010500081688847E06B816801200CF057FEB0EE94
:10106000408AE06BC16801200CF0A8FEB0EE401A87
:10107000E06B8168496891ED000AF1EE400AC068B2
:10108000406890ED000AF1EE401A91ED010AB1EED0
:10109000402A90ED010AF1EE402A2069B0EE480A9C
:1010A000006881688847206900680168E068006816
:1010B00000680CF0C5FEE06B0168496891ED010A1B
:1010C000E16809680A685269D2ED0A0A30EE608A5E
:1010D0004368D2ED0B0A5B6893ED010A70EE208A3B
:1010E0008268526892ED010A226912681268526998
:1010F000D2ED0A0A30EE200AB1EE409AC06892EDB5
:101100000B0A4068D0ED010A70EE609A0A69084641
:1011100090472069006801698847E068F0EE680A36
:10112000B0EE480A0068816988472069F0EE690AD4
:10113000B0EE490A006881698847E0680168406844
:101140000968096991ED010AC16988472069016848
:1011500040680968096991ED010AC169884720461C
:1011600000F036FFBDEC048B2046BDE8104001F0D6
:1011700093B9000010B50446A06B016B8847E06B83
:10118000016A8847204600F0B9FB6068064902788A
:101190000AB9407818B1C9680020487010BDC96804
:1011A0000120487010BD00001400002070B50446F6
:1011B0006548A0626548A0636548E0636548606073
:1011C0003430A0606449A1614FF47A71A183002199
:1011D000418024306061614820625F483030E062C5
:1011E00000F15801216300F18803636300F1A40258
:1011F000A26500F1B405E565564D3835E56010355A
:1012000025619FED570A80ED020ADFED560AC0ED19
:10121000030A80ED040A4FF4FA7505844FF4C8768A
:10122000468496268684B600C684760006859FEDA1
:101230004E1A80ED0F1A9FED4D1A80ED101A80EDB9
:10124000111A9FED4B1A80ED121A9FED4A1A80ED8C
:10125000131A9FED491A80ED141A81ED000AC1EDB1
:10126000010A9FED460A81ED020A9FED450A81EDD4
:101270000A0ADFED440AC1ED080A81ED030ADD82A6
:101280009FED410A83ED040A206A006990ED040A8B
:1012900082ED000A206A406990ED040AE06D80ED5D
:1012A000000A206A806990ED040AA06D80ED010AB1
:1012B000206AC06990ED040AE06D80ED010A206AA1
:1012C000006990ED0E0AA06D80ED020A206A406967
:1012D00090ED0E0AE06D80ED020A206A806990EDC3
:1012E0000E0AA06D80ED030A206AC06990ED0E0A17
:1012F000E06D80ED030AA06BC16A8847E06BC169AD
:101300008847224860642248A0642248E06422485A
:10131000606522482065E068006841688847206968
:10132000006841688847E0684068416988472069EB
:101330004068416988471A4815F088FBBDE870404D
:1013400018480FF0F5BF00000808002088080020AA
:101350005C0E0024A4060024E00C00202C0C0024C9
:101360000AD7233C0AD7A33C0000C84300007A45B3
:101370000000FA43000048420000484300401C4679
:1013800000007A4400000042C3B8323F75110008E3
:101390000510000839220008D1280008F10D0008C6
:1013A00004210024741100202D49C968C97C00293A
:1013B00005D1C268937B23B103699B7B0BB121B339
:1013C0002BE0916891ED030AD1ED020A30EE200A7C
:1013D000D1ED000A30EE200AD1ED010A30EE200AEC
:1013E00081ED040A0069806890ED030AD0ED020ADD
:1013F00030EE200AD0ED000A30EE200AD0ED010ACE
:1014000030EE200A80ED040A7047C268937B012BFE
:1014100003D103699B7B012B0ED00129F4D1C16854
:10142000896891ED030A81ED040A0069806890EDF6
:10143000030A80ED040A7047916891ED030AD1ED2B
:10144000000A30EE200A81ED040A0069806890ED00
:10145000030AD0ED000A30EE200A80ED040A70473E
:10146000140000202DE9F04104462DED028BE068C8
:101470000568206906682868006990ED010A206AFD
:10148000006980ED010A3068006990ED010A206A68
:10149000406980ED010A606990ED110A206A0069D7
:1014A00080ED000A606990ED120A206A406980EDC3
:1014B000000A206A006912F0C1FE206A406912F039
:1014C000BDFE206A006990ED020AB5EEC00AF1EE99
:1014D00010FA01DCB1EE400A10EE101A344FDFEDC5
:1014E000358AB942B3EE048A02DDC0ED0D8A01E00F
:1014F00080ED0D8A206A006913F048FD206A40697A
:1015000090ED020AB5EEC00AF1EE10FA01DCB1EE80
:10151000400A10EE101AB94202DDC0ED0D8A01E05A
:1015200080ED0D8A206A406913F030FD286800695B
:1015300090ED030A206A806980ED010A3068006935
:1015400090ED030A206AC06980ED010A206A0169F2
:10155000806991ED0A0A80ED000A206A4169C0693C
:1015600091ED0A0A80ED000A206A806912F066FE99
:10157000206AC06912F062FE206A806913F006FDDD
:10158000206AC06913F002FD206A806990ED0A0AA2
:10159000E068806880ED030A206AC06990ED0A0A5D
:1015A0002069806880ED030ABDEC028BBDE8F08104
:1015B000CDCC4C3D0000000010B52649C968897BA0
:1015C000012929D18169B1F9081000EE101A416989
:1015D000B8EEC01A9FED200AD1ED121AC1EE000A32
:1015E0009FED1E1A20EE812ADFED1D0A42EE201A21
:1015F000C1ED121A8169B1F9081001EE901A416922
:10160000F8EEE11A81EE802A91ED110A22EE011A1C
:1016100001EE200A81ED110A4169124B134C9FED36
:10162000120A8A6CDFED120A9A4202DD81ED120A7B
:1016300003E0A24201DAC1ED120A4069416C99420D
:1016400002DD80ED110A10BDA142FCDAC0ED110AE5
:1016500010BD00001400002000002544CDCC4C3EFD
:101660006F12833A7B14AE3E7B14AE3E295C0F3E74
:10167000295C0F3E10B504469FED270A206A80685A
:1016800080ED000AE06800680068C068D0ED0A0AD2
:10169000206900680068C06890ED0A1A206A70EE40
:1016A000C10A8068C0ED010A206AC06880ED000AA6
:1016B000206900680068C06890ED0A0AE068006868
:1016C0000068C068D0ED0A0A206A30EE600AC0687F
:1016D00080ED010A206AC06812F0B0FD206A8068BF
:1016E00012F0ACFD206A806813F050FC206AC068DC
:1016F00013F04CFC206A806890ED0A0AE06880686C
:1017000080ED050A206AC06890ED0A0A20698068A9
:1017100080ED050A10BD00000000000010B5044671
:101720002DED028BE06800680068C06890ED140A37
:10173000206A006B80ED010A606990ED040A206A5E
:10174000006B80ED000A206900680068C06890EDB9
:10175000140A206A406B80ED010A606990ED030A6B
:10176000206A406B80ED000A206A406B12F066FD33
:10177000206A006B12F062FD206A9FED368A006BD2
:10178000F0EE480A90ED020A12F0A3F8206A006B0E
:1017900080ED020A206AF0EE480A406B90ED020AE2
:1017A00012F097F8206A406B80ED020A206A006B05
:1017B00013F0ECFB206A406B13F0E8FB206A016B2E
:1017C000806B91ED0A0A80ED000A206A416BC06BC4
:1017D00091ED0A0A80ED000AE0689FED1F0A00689B
:1017E0000068C068D0ED0B0A206A60EE800A806B4A
:1017F000C0ED010A206900680068C068D0ED0B0ADE
:10180000206A20EE800AC06B80ED010A206AC06B5E
:1018100012F014FD206A806B12F010FD206A806BBC
:1018200013F0B4FB206AC06B13F0B0FB206A806B2E
:1018300090ED0A0AE068806880ED070A206AC06BB4
:1018400090ED0A0A2069806880ED070ABDEC028BE2
:1018500010BD00000000B443E12E654270B504469F
:101860002DED048BE0680568206906682868C0686B
:1018700090ED0A0AB7EEC00A0FF086FE2868DFED89
:101880001D9ADFED1B8A9FED1C9AC069B0EE698A34
:1018900090ED081AE06801EE288A806828EE091A9F
:1018A000B7EEC11A20EE010BB7EEC00B80ED000AB7
:1018B0003068C06890ED0A0AB7EEC00A0FF064FE07
:1018C0003068B0EE698AC06990ED081A206901EEAF
:1018D000288A806828EE091AB7EEC11A20EE010B9B
:1018E000B7EEC00B80ED000ABDEC048B70BD0000AC
:1018F000AB3EA73FC6DC1E41C3F51C4130B5C16BF2
:10190000012300240A68D268157A4268012D1DD08F
:101910008D68ED682D7A012D18D0CD68ED682D7A8F
:10192000012D13D04968C968097A01290ED01470B5
:10193000816B0A68D268127A012A09D04968C9689D
:10194000097A012904D04068447030BD1370EFE774
:101950004068437030BD000010B504462DED028B89
:101960009FED578AA06B0068406880ED098AA06BE4
:101970000068406880ED078AA06B4068406880ED91
:10198000098AA06B4068406880ED078A9FED4D0A88
:10199000606980ED120A606980ED110AA06A006832
:1019A00090ED010A606980ED0F0AA06D90ED000ACC
:1019B000206A006980ED040AE06D90ED000A206A5B
:1019C000406980ED040AA06D90ED010A206A8069EB
:1019D00080ED040AE06D90ED010A206AC06980ED97
:1019E000040A606980ED108A606980ED088A606988
:1019F00080ED098A606980ED0E8A33480FF066FC3D
:101A0000E06800680068806980ED038AE06800682B
:101A10000068806980ED018A20690068006880693B
:101A200080ED038A206900680068806980ED018A82
:101A3000206A006812F0FAFB206A806A12F0F6FB56
:101A4000206A006912F0F2FB206A806812F0EEFB57
:101A5000206A006C12F0EAFB206A006B12F0E6FBD1
:101A6000206A406812F0E2FB206AC06A12F0DEFBD6
:101A7000206A406912F0DAFB206AC06812F0D6FBD7
:101A8000206A406C12F0D2FB206A406B12F0CEFB51
:101A9000216900208881E16888810C49CA68D07476
:101AA000C9680875E16A81F85400216B81F82C003F
:101AB000616B0876616B4876BDEC028B10BD00004F
:101AC000000000007B142E3E741100201400002042
:101AD00000682D499FED2D0A0A68D2ED0A0A2C4AAA
:101AE00060EE800A92ED001A41EE000AC0ED000A95
:101AF0000A68DFED280A92ED0B1A21EE201A80ED1C
:101B0000021A0A6892ED091A21EE001A80ED011AF4
:101B10000A6892ED0F1A61EE200AC0ED050A0A6804
:101B2000D2ED0E0A60EE800AC0ED030A0A68D2ED1B
:101B30000D0A20EE800A80ED040A0A6892ED000A80
:101B400080ED060A0A6892ED010AB1EE400A80EDC6
:101B5000070A0A6892ED020A80ED080A0A6892ED07
:101B6000060A80ED090A0A6892ED070AB1EE400AFA
:101B700080ED0A0A0968DFED080A91ED080A30EEE7
:101B8000C00A80ED0B0A7047E410002498F98E3CDF
:101B9000740C002498F98EBCC3F51C418069074978
:101BA0000A68128982810A68528902810A689289C8
:101BB00082800968C98901807047000058090020A7
:101BC00010B50446A06A006890ED020A206A006819
:101BD00080ED010AA06A006890ED020A206A406860
:101BE00080ED010A606990ED100A206A006880EDBE
:101BF000000A606990ED100A206A406880ED000AD2
:101C0000206A006812F01AFB206A006813F0BEF91F
:101C1000206A406812F012FB206A406813F0B6F99F
:101C2000E0689FED110A817B012909D0216A806853
:101C30000968D1ED0A0AF1EE600AC0ED020A02E07D
:101C4000806880ED020A2069817B012907D0216A22
:101C50008068496891ED0A0A80ED020A10BD80682B
:101C600080ED020A10BD00000000000010B52DED4F
:101C7000048B42490968496891ED030ADFED400A87
:101C800030EEC08A9FED3F1BB7EEC80AB0EEC00B26
:101C9000B4EEC10BF1EE10FA18DBB5EEC08AF1EE2E
:101CA00010FA01DD012108E0B5EEC08AF1EE10FA6C
:101CB00002D24FF0FF3100E00021DFED340A49008D
:101CC00000EE101AB8EEC00A00EE608A30499FEDAF
:101CD000310A097811B101291AD03DE08069B0F9C3
:101CE0000010494200EE901AF8EEE01ADFED2A0AE1
:101CF00081EEA01A61EE008AB0F90400404201EEC4
:101D0000100AB8EEC11AC1EE201A21EE809A23E023
:101D1000224980690968D0ED080A663190ED041AFD
:101D2000B1F9082030EEC11A00EE902AF8EEE01A60
:101D3000C1EE210A60EE808AD0ED060A90ED0A1A03
:101D4000B1F9000030EEC11A00EE900AF8EEE01A88
:101D5000C1EE210A20EE809AB0EE480A11F03CFB59
:101D600060EE288AB0EE480A11F0C6F820EE090AA3
:101D700038EE800ABDEC048B10BD0000D0070024B3
:101D800033591A4000000060FB210940DB0F494035
:101D9000140000206666E63F000025445809002034
:101DA000C1688A68096892ED0F0A09684969D1ED2E
:101DB0000A0AC16B30EE200A0968896881ED000AC1
:101DC000C1688A68096892ED100A09684969D1ED0D
:101DD0000B0AC16B30EE600A4968896881ED000A20
:101DE00001698A68096892ED0F0A0968B1EE400A34
:101DF0004969D1ED0A0AC16B30EE600A89688968C9
:101E000081ED000A01690A6889681268D1ED100A3B
:101E1000C16B5269C96892ED0B0A896830EE600A9D
:101E200081ED000AC168896891ED0C0A816B09682F
:101E3000896881ED000A0169806B8968406891EDCD
:101E40000C0A8068B1EE400A80ED000A704700007D
:101E500038B504466069D0ED0E0A90ED090A60EECF
:101E6000800A9FED562ADFED561A9FED561ADFEDD8
:101E7000562AF5EEC00A554DF1EE10FA4CDDB5EEDE
:101E8000C00AF1EE10FA06DD2069806890ED110AB3
:101E900020EE020A05E02069806890ED110A20EE2C
:101EA000210AA06A0068D0ED090A60EE810A216962
:101EB00049680968D1ED041A21EE811AD0ED041A9F
:101EC00021EE211A60EEA00A41EE010AF5EEC00AE9
:101ED000F1EE10FA04DBB1EEE01A8DED001A01E02C
:101EE000CDED002ADDED000AF4EEC00AF1EE10FAA5
:101EF00011DD36480A2111F00CFB05EB800090ED56
:101F0000000A206940680068D0ED040A606920EE8C
:101F1000800A80ED090A38BDF5EEC00AF1EE10FA2C
:101F2000F9D2B5EEC00AF1EE10FA06DD206980683C
:101F300090ED110A20EE020A05E02069806890ED1C
:101F4000110A20EE210AA06A0068D0ED090A60EEAD
:101F5000810AE16849680968D1ED041A21EE811A05
:101F6000D0ED041A21EE211A60EEA00A41EE010A1A
:101F7000F5EEC00AF1EE10FA04DBB1EEE01A8DEDD9
:101F8000001A01E0CDED002ADDED000AF4EEC00AF2
:101F9000F1EE10FABFDD0D480A2111F0BAFA05EB97
:101FA000800090ED000AE06840680068D0ED040A07
:101FB000606920EE800A80ED090A38BDCDCC4C3E28
:101FC0008FC2753D79E9163F00000000A807002484
:101FD0002DE9F04781462DED068B9AB0D9F80C100B
:101FE00048680468D9F81000426815680F68D0F88E
:101FF0000080D9F8280006683422D9F838A00DA846
:10200000DAF80410FEF722FADAF8001034226846F3
:10201000FEF71CFA94ED000A84ED0C0A3868D6ED40
:10202000000AC06890ED0A0AB1EE400A30EE600A7C
:1020300084ED000A3868D6ED030AC06890ED0B0AFB
:10204000B1EE400A30EE600A84ED010A84ED0D0A1B
:10205000D4ED0E0A70EE600AC4ED020A84ED0E0A99
:1020600096ED000A84ED050A96ED030A84ED060A52
:1020700095ED000A85ED0C0AD8F80000D6ED000AAF
:10208000C06890ED0A0AB1EE400A30EE600A85EDB4
:10209000000AD8F80000D6ED030AC06890ED0B0ADC
:1020A000B1EE400A30EE600A85ED010A85ED0D0AB9
:1020B000D5ED0E0A70EE600AC5ED020A85ED0E0A36
:1020C00096ED000A85ED050A96ED030A85ED060AF0
:1020D00096ED000A84ED050A96ED000A85ED050AE5
:1020E00096ED030A84ED060A96ED030A85ED060ACD
:1020F0000E9890ED038A0198D0ED039A0E98D0EDDA
:10210000078A019890ED079A94ED000A10F0F4FE0A
:1021100038680069D0ED010A20EE200AD4ED010AEA
:1021200020EE20AA38EE290ADFED3F0A00EE20AAB1
:1021300095ED000A10F0E0FED8F80000F6EE009AE7
:102140000069D0ED010A20EE200AD5ED010A00EE6B
:1021500020AA6AEE290AD9F82800006890ED090A39
:10216000324814F0A5FC3148006890ED008AD8F898
:102170000000806990ED030A386838EEC00A806973
:1021800030EE090AD0ED030A30EE600ADFED280ACE
:1021900060EE208A95ED000A10F0AEFED8F800003F
:1021A0000069D0ED010A20EE200AD5ED010A20EEEB
:1021B000209A94ED000A10F09FFE38680069D0ED77
:1021C000010A20EE200AD4ED010A00EE209AB0EEBA
:1021D000480A09EE690A1748F0EE680A0FF0D8F8C5
:1021E0001448006890ED000AD0ED010A84ED030A5E
:1021F00085ED030A94ED040A84ED0A0A95ED040ABC
:1022000085ED0A0AC4ED040AC5ED040A94ED040A3A
:1022100084ED090A95ED040A85ED090A1AB0BDECB2
:10222000068BBDE8F087000068916D3D0421002415
:102230006891ED3C7411002030B5214B062200213D
:102240005C78082C1ED2DFE804F0040D0F1215187C
:102250001D1BDC68247E012C01D0017013E00124D9
:10226000047010E001700EE0022404700BE00324FF
:10227000047008E00424047005E00524047002E002
:10228000027000E00170DC68247A012C02D1027037
:1022900007225A7042681478012C05D05278012A1E
:1022A00002D05A78012A00D101700278012A01D0A7
:1022B00082685180DA689278012A00D1017030BDBD
:1022C00014000020816BDFED200A09684A6892ED56
:1022D000030A20EE200A896881ED000A816B4968B3
:1022E0004A6892ED030A20EE200A896881ED000A0F
:1022F000C16BB9EE080A09684A68D2ED000A60EEBF
:10230000800A8968C1ED000AC16B49684A68D2ED4C
:10231000000A60EE800A8968C1ED000AC16B896815
:102320004A68D2ED000A60EE800A8968C1ED000AB1
:10233000C06BC0684168D1ED000A20EE800A806859
:1023400080ED000A7047000017B7D1B82DE9F041C1
:1023500004462DED068BE16808680568206902686F
:10236000166849680F684068D0F8008098ED000A48
:10237000B7EEC00A0FF008F9706990ED041AB7EED5
:10238000C11A20EE018B98ED000AB7EEC00A0FF0DB
:10239000FBF8F069B7EE009A9FED3CAB90ED081AA0
:1023A000306939EE411AD0ED051AA06A21EE211AE2
:1023B0000068B7EEC12A90ED0B1A2069B7EEC11A7A
:1023C000806802EE401B01EE0A8BB7EEC80B80ED71
:1023D000110A97ED000AB7EEC00A0FF0D5F8686948
:1023E00090ED041AB7EEC11A20EE018B97ED000AAA
:1023F000B7EEC00A0FF0C8F8E86990ED081A28692E
:1024000039EE411AD0ED051AA06A21EE211A0068B2
:10241000B7EEC12A90ED0B1AE068B7EEC11A8068DA
:1024200002EE401B01EE0A8BB7EEC80B80ED110ADD
:1024300010EE102A174D0021E068AA4203DC8289C1
:10244000521C828100E081810122E0680526838997
:10245000052B03D38273E068868100E081732069D5
:1024600083685B6CAB4203DC83895B1C838100E087
:10247000818120698389052B06D382732069868137
:10248000BDEC068BBDE8F0818173F9E700000060C8
:10249000D5E7F43F00005C4210B504462046FFF744
:1024A0007DFB0BF0D3FA204600F034FB204600F011
:1024B0001DFA2046FFF780F82046FFF7C9FCE168C7
:1024C000887B012825D06069D0ED0B2A90ED0A2A7F
:1024D000D0ED091A90ED081AD0ED070A90ED020A26
:1024E0004868816988472169887B012824D0606910
:1024F000D0ED0B2A90ED0A2AD0ED091A90ED081ABA
:10250000D0ED070A90ED020A48688169BDE81040E5
:102510000847496808688A69D0ED062A90ED052ABF
:10252000D0ED041A90ED031A6069D0ED070A90ED22
:10253000020A08469047D6E7496808688A69D0EDDC
:10254000062A90ED052AD0ED041A90ED031A606971
:10255000D0ED070A90ED020ABDE81040084610478A
:102560002DE9F047044620690568E1680E684F6868
:10257000D0F804802046FFF77DF8796A384688470E
:10258000D8F8241040468847F96A38468847E068FA
:10259000806880ED060AD8F82C10404688472069EC
:1025A000806880ED060ADFF89091D9F80C00C07CB5
:1025B00000287DD0E068806890ED050A80ED090A6A
:1025C0002069806890ED050A80ED090A2046FEF733
:1025D00049FF2046FFF7F4FA2046FFF73FF920466F
:1025E000FEF7E2FE204600F0ABF8B96A38468847AD
:1025F000E068806880ED0B0AD8F8281040468847CC
:102600002069806880ED0B0AD9F80C10087A9FEDDC
:102610004B0A01287DD0E068827B012A7ED0806849
:10262000D0ED0B0A90ED0A1A70EE810AC0ED0C0A8B
:10263000087A012876D02069817B012977D08068CB
:1026400090ED0B0AD0ED0A0A30EE200A80ED0C0A5C
:10265000E068F1688068D0ED090A90ED040A304620
:1026600088472069E9688068D0ED090A90ED040A7E
:1026700028468847696928468847716930468847EF
:10268000306890ED000AE0688068D0ED0D0A30EE09
:10269000200A80ED0F0A306890ED010AE06880683A
:1026A000D0ED0E0A30EE200A80ED100A286800E016
:1026B00016E090ED000A20698068D0ED0D0A30EE3A
:1026C000200A80ED0F0A286890ED010A20698068D1
:1026D000D0ED0E0A30EE200A80ED100ABDE8F0873A
:1026E000E068806890ED050AD0ED060A30EE600AD9
:1026F00080ED090A2069806890ED050AD0ED060A90
:1027000030EE600A80ED090A60E702E006E009E0C9
:102710000DE0E068806880ED0C0A89E7806880ED54
:102720000C0A85E72069806880ED0C0A90E78068D4
:1027300080ED0C0A8CE7000014000020000000006F
:1027400010B504462DED028B5D48216AC068096A08
:102750000279012A04D1427912B9C07B00287DD0C8
:10276000A06A006890ED010A81ED010A606990EDB0
:102770000F0A206A006A80ED000AA06A006890EDE6
:10278000010A206A406A80ED010A606990ED0F0A33
:10279000206A406A80ED000A206A006A11F04EFD4E
:1027A000206A406A11F04AFD206A006A90ED020A30
:1027B0009FED448AF0EE480A11F08BF8206A006A17
:1027C00080ED020A206AF0EE480A406A90ED020AA3
:1027D00011F07FF8206A406A80ED020A206A006AE0
:1027E00012F0D4FB206A406A12F0D0FB206A016A22
:1027F000806A91ED0A0A80ED000A206A416AC06A87
:1028000091ED0A0A80ED000AA06A006890ED040AC2
:10281000206A806A80ED010AA06A006890ED040ACF
:10282000206AC06A80ED010A206A806A11F006FD04
:10283000206AC06A11F002FD206A806A12F0A6FBCD
:10284000206AC06A12F0A2FB206A806A90ED0A0A30
:10285000E068806880ED0A0A206A00E00BE0C06A48
:1028600090ED0A0A2069B1EE400A806880ED0A0AFC
:10287000BDEC028B10BD14480268526892ED030A49
:10288000B1EE400A81ED010A216A9FED100A096A42
:1028900081ED000A00684068D0ED030A206AF1EE7D
:1028A000600A406AC0ED010A206A406A80ED000AB1
:1028B000A06A006890ED010A606980ED0F0A6BE77D
:1028C00014000020DB0FC940D007002433591AC080
:1028D00010B504462046E16C8847A16C2046884725
:1028E000216D2046BDE81040084700002DE9F04169
:1028F00004462DED028B2678DFED771ADFED770A9F
:1029000077497848784A9FED791A7A4D0A2E90EDEA
:10291000010A774B096828780BD2DFE806F005A09A
:10292000A00B9B3BA0A0A06B9FED730A606980ED9C
:102930000E0A94E010B101280FD090E0A069B0F920
:102940000C0000EE100A6069B8EEC00A80EE211A91
:1029500021EE200A80ED0E0A81E0B1F91C00404210
:1029600001EE900A6069F8EEE11A21EE800A80ED2E
:102970000E0A10EE101A6069914202DDB0EE410AB3
:1029800005E010EE101A994201D9B0EE600A80ED10
:102990000E0A64E010B101280FD060E0A069B0F920
:1029A0000C0000EE100A6069B8EEC00A80EE211A31
:1029B00021EE200A80ED0E0A51E0B1F91C004042E0
:1029C00001EE900A6069F8EEE11A21EE800A80EDCE
:1029D0000E0A10EE101A6069914202DDB0EE410A53
:1029E00005E010EE101A994201D9B0EE600A80EDB0
:1029F0000E0A34E010B101280FD030E0A069B0F920
:102A00000C0000EE100A6069B8EEC00A80EE211AD0
:102A100021EE200A80ED0E0A21E0B1F91C004042AF
:102A200001EE900A6069F8EEE11A21EE800A80ED6D
:102A30000E0A10EE101A6069914202DDB0EE410AF2
:102A400005E010EE101A994201D9B0EE600A80ED4F
:102A50000E0A04E06069B1EE040A80ED0E0AE8682F
:102A6000807F012808D10BF00BF96069D0ED0E0AC8
:102A700020EE800A80ED0E0A60699FED201B90ED2C
:102A80000E2AB7EEC20AB0EEC00BB4EEC10BF1EEE7
:102A900010FA1DDB90ED0F0ADFED1A0A02EE200A94
:102AA00080ED0F0A194D1A4E9FED178A6069F0EEFE
:102AB000480A90ED0F0A10F00CFF606980ED0F0AD4
:102AC00010EE100AA842F1DC10EE100AB042EDD868
:102AD000BDEC028BBDE8F081000025446666E6BFD0
:102AE00058090020A40600246666E63F6666E63FB5
:102AF0006666E6BF1400002000000000000000C071
:102B00009ADF313F6F12833ADB0FC940DB0F494038
:102B1000DB0F49C070B504463A4DE868407901289A
:102B200006D02878B0EE000A48B1012818D02DE070
:102B30002046FFF79BF8606980ED090A3AE0A0693A
:102B4000DFED311AB0F9000000EE900A6069B8EECE
:102B5000E01AC1EE210A20EE800A80ED090A15E094
:102B6000A069D0ED040A90ED081A284830EEC11A89
:102B70000068B0F96E0000EE900A6069F8EEE01AA5
:102B8000C1EE210A20EE800A80ED090A606990ED0D
:102B9000090A10EE101AB1F1804F02DDB0EE000A02
:102BA00006E010EE101AB1F1404F01D9B8EE000A5C
:102BB00080ED090AE868807F012808D10BF060F8F1
:102BC0006069D0ED090A20EE800A80ED090A60698B
:102BD000F6EE000A0E4A90ED090A20EE200AB7EE42
:102BE000C00AB0EEC00BB7EEC00B10EE101A914247
:102BF00006DBE1684968096891ED030A80ED080A7F
:102C000070BD000014000020000025445809002079
:102C1000CDCC4C3E0178062907D041699FED060ACC
:102C200081ED060A416981ED050A0178002901D08C
:102C30000021818370470000000000000021C17066
:102C40000171417101704170C1800649C16106493D
:102C5000416206498162064901620649816101219A
:102C600081727047792C0008232D00081D2D000863
:102C70008F2C00089F2C0008827A012A05D111B1FF
:102C80000121C17001E00021C1700EF037BA0021AE
:102C9000C1700171417101704170C180704702467D
:102CA00000B55178108901290CD00021D180D1883C
:102CB000814202D91046FFF7EAFF5DF804EB1046A7
:102CC00000F032B8A0F57F41FF39F0D0D188491C1F
:102CD000D180ECE770B50024064D04EB440000EB16
:102CE000C40005EB800081698847641CE4B2082CAD
:102CF000F3D370BD7000002070B50024064D04EBC6
:102D0000440000EBC40005EB800041698847641C67
:102D1000E4B2082CF3D370BD700000200021417094
:102D2000704701214170704710B58378002101225E
:102D3000052B08D2DFE803F01118030A1E004379BF
:102D4000012B01D0017010BD027010BD4379022B20
:102D500001D0017010BD027010BDC378012B01D0ED
:102D6000017010BD027010BDC3780BB1017010BDB1
:102D7000027010BD017010BD2DE9F05F82494868F6
:102D800000680468007E814E002815D00020706025
:102D90007E4D70680835C8280DD3281D097800F1CC
:102DA0002C0700F15808C26900F1DC0900F5847AAB
:102DB00031B101295AD0D6E07068401C7060E7E755
:102DC000217C022908D1617C012905D1A17D2B78C4
:102DD000994201D0012100E0002183466B480C306C
:102DE0009047207C022808D1607C012805D1207EF4
:102DF000A978884201D0012100E00021DBF84820B9
:102E000038469047207C022808D1607C032805D1F1
:102E1000A07D2978884201D0012100E00021DBF863
:102E2000742040469047207C022808D1607C03280B
:102E300005D1A07D2978884201D0012100E0002140
:102E4000DBF8F82048469047207C022808D1607CB7
:102E5000032805D1207EA978884201D0012100E015
:102E60000021DBF82421504690477CE094F8A11023
:102E7000012900D00021834644480C30904794F843
:102E80009100012809D00021DBF8482038469047FE
:102E900094F85900012802D005E00121F4E73C48EC
:102EA00090F83100F0B10021DBF8742040469047E3
:102EB00094F84100012818D000213448DBF8CC20D8
:102EC000BC30904794F85100012811D000212F48C0
:102ED000DBF8A0209030904794F879000327012870
:102EE00009D00CE04FF00101DEE74FF00101E4E70B
:102EF0004FF00101EBE7B07800F10100B07006D1AE
:102F0000B078B0FBF7F107FB1100012809D00021D0
:102F1000DBF8F8204846904794F87900012802D061
:102F200008E00121F4E7B078B0FBF7F107FB1100EE
:102F300001280DD00021DBF824215046904794F859
:102F4000B100012806D0022804D0032802D005E0F1
:102F50000121F0E794F88900012812D00021DBF864
:102F600050210C489047207C3070607C70700020AD
:102F70002118897D2954401CC0B20428F8D3BDE82B
:102F8000F09F0121EBE70000140000206400002006
:102F9000CE120024A401002010B5124800688168F8
:102FA00088471148816888471048816988471048D8
:102FB000016C88470F48416988470F48C1698847B5
:102FC0000E48C16A88470EF0EBF900F0D1FDFFF71B
:102FD00093FE0B4807F080FF0A484169BDE81040A6
:102FE000084700005409002058090020E41000247C
:102FF00048070024140000205C0E002488080020EC
:10300000A009002074090020014801F0DBBE000087
:10301000581A0024014801F0D5BE0000C81400244D
:10302000014801F0CFBE000040150024014801F026
:10303000C9BE0000281D0024014801F0C3BE0000E5
:10304000B01C0024014801F0BDBE0000901E002409
:10305000014801F0B7BE0000081F0024014801F03C
:10306000B1BE0000A01D0024014801F0ABBE00006D
:10307000181E0024014801F0A5BE0000D01A00244B
:10308000014801F09FBE0000481B0024014801F0E8
:1030900099BE0000C01B0024014801F093BE00004F
:1030A000381C002410B52C4A016891423AD02A4AB3
:1030B0001832914236D0284A3032914232D0264AD4
:1030C000483291422ED0244A603291422AD0224A7C
:1030D0007832914226D0204A9032914222D01E4A24
:1030E000A83291421ED01D4A91421BD01B4A183271
:1030F000914217D0194A3032914213D0174A4832C0
:1031000091420FD0154A603291420BD0134A783267
:10311000914207D0114A9032914203D00F4AA8320F
:10312000914214D1CAB2103A1823B2FBF3F20C4CFC
:1031300002F00703E35CC365032A04D96FF30901B6
:10314000091D816506E06FF30901816502E021F048
:10315000FF018165806D10BD100002401004024027
:10316000486F010810B501680123224CCAB2A14280
:103170001BD0204C1434A14217D01E4C2834A1423D
:1031800013D01C4C3C34A1420FD01A4C5034A142F5
:103190000BD0184C6434A14207D0164C7834A142AD
:1031A00003D0144C8C34A1420FD1083A1421B2FB45
:1031B000F1F1114A02EB810202660F4A8032426647
:1031C00001F01F018B40836610BD103A1824B2FB3A
:1031D000F4F20A4C2144A82900D80832084901EB2E
:1031E0008201016606498031416602F01F018B4071
:1031F000836610BD0854025800580258F0FBFDBF0A
:10320000000802400279521E072A31D8194B016882
:1032100099421BD0174B1433994217D0154B2833C2
:10322000994213D0134B3C3399420FD0114B50337A
:1032300099420BD00F4B6433994207D00D4B783332
:10324000994203D00B4B8C33994207D10A4901EBC9
:103250008201C16608494031016706E0074901EB78
:103260008201C166054940310167012191404167F2
:1032700070470000085402580059025800090240E3
:10328000014610B500208B694FF0C0748A6A002B8C
:103290000ED0B3F5005F1AD062B3012A2AD0022AF9
:1032A00028D0032A03D1C96AC90100D5012010BD65
:1032B0001AB1012A06D0022AF9D1C96AC901F6D584
:1032C000012010BDC96AA142FBD1012010BD52B13D
:1032D000012A0AD0022A06D0032AF7D1C96AA142DC
:1032E000F4D1012010BD012010BDC96AC901FBD570
:1032F000012010BD012010BD2DE9F04F856D8A4ED3
:10330000894FDFF824C2A836DFF81C82DFF8189254
:103310000CF1180CDFF810A208F13008DFF808B241
:1033200009F1480904680AF1600A0BF1780BBC4204
:103330006DD064456BD0444569D04C4567D0544549
:1033400065D05C4563D0DFF8E0E10EF1900E744586
:103350005DD0B4425BD0DFF8D4E1744557D0DFF8DC
:10336000CCE10EF1180E744551D0DFF8C0E10EF13A
:10337000300E74454BD0DFF8B4E10EF1480E7445C1
:1033800045D0DFF8A8E10EF1600E74453FD0DFF8BC
:103390009CE10EF1780E744539D0DFF890E10EF122
:1033A000900E744533D0DFF884E10EF1A80E744519
:1033B0002DD0DFF87CE1744529D0DFF874E10EF1FF
:1033C000140E744523D0DFF868E10EF1280E744521
:1033D0001DD0DFF85CE10EF13C0E744517D0DFF82C
:1033E00050E10EF1500E744511D0DFF844E10EF1BA
:1033F000640E74450BD0DFF838E10EF1780E744599
:1034000005D0DFF82CE10EF18C0E744509D1D0E91E
:1034100019E4CEF80440C46E1CB1D0E91CE4CEF827
:1034200004400468BC422ED064452CD044452AD0C8
:103430004C4528D0544526D05C4524D03A4F90378F
:10344000BC4220D0B4421ED0384EB4421BD0374EBE
:103450001836B44217D0354E3036B44213D0334EFE
:103460004836B4420FD0314E6036B4420BD02F4EA6
:103470007836B44207D02D4E9036B44203D02B4E4E
:10348000A836B4421BD190F85C4004F01F063F24DC
:10349000B440AC600468256825F480252560046884
:1034A00063608368402B05D0036899600068C26040
:1034B000BDE8F08F03689A600068C160F8E71C4EB1
:1034C000B4421BD01A4E1436B44217D0184E2836C8
:1034D000B44213D0164E3C36B4420FD0144E503680
:1034E000B4420BD0124E6436B44207D0104E783638
:1034F000B44203D00E4E8C36B442D9D190F85C4021
:1035000004F01F060124B4406C60046863608368A3
:10351000402B04D0036899600068C260C8E7036864
:103520009A600068C160C3E71000024010040240C6
:1035300008540258C1680A68521C0A60C1684B6886
:103540009A4206D90B600121C2681172C0684172AB
:103550007047087A0128FBD10020087270470000EC
:103560000C4981610C4901620C4941620C4981623C
:103570000C49C1620C4901630121C2685172C268E1
:1035800091729621C268516040689FED080A80EDF3
:10359000020A7047693600081D360008F135000838
:1035A000B13500086DD40008353500080000000072
:1035B00010B50446002C18D0E068417A012909D0E2
:1035C000A0689FED0A0A80ED010A2046BDE8104080
:1035D0000AF01AB800214172204609F0F5FF204692
:1035E000BDE81040002109F0EFBF10BD0000000051
:1035F00000280FD0C1684A7A012A06D081689FED61
:10360000060A81ED030A09F0FFBF00224A72002179
:1036100009F0DABF704700000000000010B5044652
:103620002DED028B002C10D0E068417A01290FD0DB
:10363000A0689FED0C8A80ED038A80ED048A204605
:1036400009F0E2FFA06880ED008ABDEC028B10BD9E
:10365000002141722046BDEC028BBDE8104009F00C
:10366000B3BF00000000000000280AD081689FED71
:10367000050A81ED000A816881ED040A806880ED09
:10368000030A70470000000010B50DF0FBFB0DF0C1
:103690000BFC0DF02FFC0DF03FFC0DF0D5FBFDF702
:1036A000A3FAFDF7E3FABDE81040FDF721BB01687E
:1036B000C969C90601D511F00FBE704703484FF420
:1036C0007A7102888A4200D301807047A4120024D4
:1036D0002DE9F0412DED028B0278417841EA02227A
:1036E0008378C17841EA03250379417941EA0326C9
:1036F000C179807941EA002710469FED1D8ADFEDF0
:103700001D8A1021F0EE480AB0EE680A12F04EF859
:10371000194C10EE100A20601021F0EE480AB0EEAD
:10372000680A284612F042F810EE100A6060102174
:103730009FED128ADFED128A3046F0EE480AB0EEB5
:10374000680A12F033F810EE100AA0601021F0EEB3
:10375000480AB0EE680A384612F028F810EE100A4F
:10376000E060002007490880BDEC028BBDE8F081D5
:103770000000B4430000B4C34618002000409C453C
:1037800000409CC5A41200240278C178837841EAE5
:1037900002624178090441EA03210A430849C1F859
:1037A00016200379427942EA03224A83C27980795A
:1037B00042EA002088830349002008807047000007
:1037C00044180020A412002470B504462DED028B8D
:1037D0002B4D207800F0010068732078C0F3400082
:1037E000A8732078C0F38000E8732078C0F3C0008D
:1037F00028742078C0F3001068742078C0F340105B
:10380000A8742078C0F38010E8722078C00928736B
:103810006078E874A178E07840EA01209FED198A89
:10382000DFED198A1021F0EE480AB0EE680A11F0B7
:10383000BDFF10EE100A68612179607940EA01202D
:103840001021F0EE480AB0EE680A11F0AFFF10EE5A
:10385000100AA861A179E07940EA01201021DFED8A
:103860000B0A9FED0B0A11F0A1FF10EE100A45F8AC
:10387000010C002007490880BDEC028B70BD0000E0
:103880005718002000003443000034C3C3F54840FB
:10389000C3F548C0A41200242DE9F0412DED028BA0
:1038A0000027374EC6F80270C6F80670B51C05F141
:1038B0003A04287814F8101C01F00301084314F8A6
:1038C0000F1C01F0010140EA810014F80E1C01F008
:1038D000010140EAC100617B01F0010140EA0110F1
:1038E000A17B01F0010140EA4110617F01F001017B
:1038F00040EA8110A17F40EAC1102870E17F68781A
:1039000001F003010843E17B01F0010140EAC1003D
:10391000E17A01F0010140EA0110217B01F001018F
:1039200040EA41106870AF70A07EE870A06A9FED19
:10393000158ADFED158A00EE100A1020B0EE481A45
:10394000F0EE680A0FF0B0FF8046E06AB0EE481A69
:1039500000EE100A1020F0EE680A0FF0A5FF2F719C
:1039600085F80580AF71E871D12108482A46FDF736
:103970000EFA3088401C3080BDEC028BBDE8F0812F
:10398000A412002400409C4500409CC5E40B00208C
:103990002DE9F0412DED028B284C9FED298ADFEDBA
:1039A000298A2068B0EE481A00EE100A1020F0EEC6
:1039B000680A0FF079FF05466068B0EE481A00EE1D
:1039C000100A1020F0EE680A0FF06EFF0646A0689D
:1039D0009FED1D8ADFED1D8A00EE100A1020B0EE6B
:1039E000481AF0EE680A0FF05FFF0746E068B0EE95
:1039F000481A00EE100A1020F0EE680A0FF054FF8B
:103A00000246A4F12501280A08704D70300A88701A
:103A1000CE70380A08714F71100A8871CA710A464F
:103A20000B48D221FDF7B3F9A4F12F010888401CFF
:103A30000880BDEC028BBDE8F0810000D3120024A9
:103A40000000B4430000B4C3C3F54840C3F548C008
:103A5000E40B002070B52DED028B1C4C9FED1C8AF1
:103A6000DFED1C8A2068B0EE481A00EE100A102024
:103A7000F0EE680A0FF018FF05466068B0EE481ACD
:103A800000EE100A1020F0EE680A0FF00DFF02465B
:103A9000A4F13A01280A08704D70100A8870CA70A3
:103AA0002089020A0A714871B4F80B00020A8A716F
:103AB000C8710A460848D321FDF769F9A4F14C0101
:103AC0000888401C0880BDEC028B70BDF0120024F9
:103AD00000004842000048C2E40B002010B50F4827
:103AE000A0F1420102780A7042784A7082788A70A6
:103AF000C278CA7002790A7142794A7182798A71F0
:103B0000C079C8710A460648D421FDF740F9034838
:103B10005C380188491C018010BD0000001300249E
:103B2000E40B002010B50F4AA2F11D0011680B0E26
:103B300003700B0C43700B0A8370C17091880B0AE1
:103B400003714171D1880A0A8271C171D52102467F
:103B50000548FDF71CF903483F380188491C0180DE
:103B600010BD0000E3120024E40B002070470000A9
:103B70000148C16A084700005812002410B54FF4EC
:103B8000806002F0C6FDBDE810404FF4805002F0A6
:103B9000C0BD10B54168406891ED090A4269B5EEB3
:103BA000C00AF1EE10FA00D18AB1088A0B8BC01A54
:103BB00000B241F6FE7400F6FF73A3420FD900284D
:103BC00007DBA0F5F850FF381044486109E00020F9
:103BD000EFE741F6FF7318441044486101E01044D8
:103BE0004861088A088310BD016842689FED1D0A7C
:103BF000DFED1D0A0B7A118A012BB0EE001A0FD0EF
:103C0000032B1ED001EE901AF8EE611A81EE802A85
:103C100022EE200A20EE010A82ED080AFCF7FCBC25
:103C200001EE901AF8EE611A81EE802A22EE200A47
:103C3000DFED0E0A20EE010A80EE201A82ED081A4E
:103C4000ECE701EE901AF8EE611A81EE802A22EE7E
:103C5000200ADFED070A20EE010A80EE201A82ED2D
:103C6000081ADBE700F8FF45DB0F494000008A41F6
:103C70000000104272B6FEE70548016841F00201FB
:103C800001600348083801688904FCD570470000CA
:103C90000C480258014802F085B90000A40A00202F
:103CA000014802F07FB90000440B0020014802F0F7
:103CB00079B90000E40B002030B5426B036853F87B
:103CC000844F4FF6FC718C4344EA82041C60036805
:103CD00053F8844F058F24F47F0444EA05441C60A4
:103CE000836B1A44036853F8884F8C4344EA820478
:103CF0001C60036853F8884F858F24F4FE0444EA5F
:103D000005441C60C36B02EB4302036853F8A04FE9
:103D10008C4344EA82041C60036853F8A04FB0F857
:103D2000405024F4FE0444EA05441C60D0E91034F9
:103D300003FB0422036853F8B04F8C4344EA820427
:103D40001C60036853F8B04FB0F8485024F4FE04E8
:103D500044EA05441C60D0E9123403FB04220368E2
:103D600053F8AC4F8C4344EA82041C60D0E914340D
:103D700003FB0422036853F8F04F8C4344EA8204A7
:103D80001C60036853F8F04FB0F8585024F47C14CA
:103D900044EA05441C60836D02EB4303026852F859
:103DA000C04F8C4344EA83011160016851F8C02F71
:103DB000B0F85C3022F47C1242EA03420A600168E7
:103DC00051F8C02F90F8603022F07C5242EA036232
:103DD0000A60416B224A02EB8101C166826B01EBF2
:103DE00082020267C36B02EBC3024267D0E9103460
:103DF000634302EB83028267D0E91234634302EB30
:103E00008302C267D0E91434634302EB8302C0F833
:103E10008020836D02EBC302C0F88420C46D836EE2
:103E20005C4302EB8402C0F88820046E5C4302EB22
:103E30008402C0F890200B4B9A4208D99830416810
:103E400041F02001416003210170012030BD0022BA
:103E500000E004C1D0F890308B42FAD8002030BD89
:103E600000AC0040FCD30040F0B5D1E901650C691D
:103E70002C430D68002E1AD045F080452C4391F854
:103E80002070D1E9066535434E6946EA0766354339
:103E90008E8945EA0645D0F88460806E584306EB6B
:103EA00080031C605D60083300200B4E0FE044EA85
:103EB0008544E4E71418155CE77845EA0765A778B8
:103EC00064783F0447EA0424254320C3001DCC68DE
:103ED000345D8442EED8F0BD506F010810B5044641
:103EE0002DED0C8BF0EE40BAB0EE60BA2068C168E0
:103EF00091ED078A91ED00CAD1ED028AD1ED049AC5
:103F0000D1ED05AA006990ED019A38EE690AB0EE8C
:103F100040AA0EF0F1FF20EE0BDA39EEEA0AF0EEDD
:103F200040AA0FF059FADFED239A20EE290ACDEED0
:103F300000CA38EE680AB0EE408A0EF0DDFF20EECF
:103F40002BDA3CEE680AF0EE408A0FF045FA20EEDC
:103F5000290A2068CDEE000A40693CEEE00A80EDB7
:103F6000040AB0EE480A0FF037FA6BEE890A60EEE9
:103F700020BAB0EE680A0FF02FFA20EE290A8BEE75
:103F8000808AB0EE4A0A0FF027FA6BEE090A60EE5B
:103F9000208AB0EE6A0A0FF01FFA20EE290A206884
:103FA000C8EE800A406938EE600A80ED050ABDEC73
:103FB0000C8B10BDF6285C3E0346104610B5002B56
:103FC00001D0084C0AE04FF6FF7010BD13F8012B2A
:103FD0004240D2B234F8122082EA1020491E4A1C14
:103FE000F4D110BDB86C010810B5054C03E010F811
:103FF000013B5340E25C491E89B2F8D2104610BD25
:10400000B86B0108C06890ED040A7047C06890ED75
:10401000030A704770B504462DED028B3A490868D3
:10402000606008696061C86820614868A06088684D
:10403000E060D1F82500A061D1F82900891EE06177
:10404000324DA06CA860206C2860606C6860002213
:1040500095F82C006D1F002801D1C5F811202C48BF
:10406000C068C37D012B02D0C378012B00D12A7117
:104070004279012A05D0C27B012A02D000790128A9
:1040800001D101202871D1F812009FED221B00EE12
:10409000100AB7EEC00A30EE410BB7EEC00B84ED4C
:1040A000150A9FED1E8AF0EE480A0FF012FC84ED0F
:1040B000150A20689FED1A1A406890ED030A30EE49
:1040C000410A84ED160AF0EE480A0FF002FC84ED76
:1040D000160A0EF011FF134E3068D0ED010A20EEE3
:1040E000200A10EE100A45F83A0F94ED160A0FF068
:1040F00073F93068D0ED010A20EE200A10EE100AA4
:104100006860BDEC028B70BD46180020D3120024FD
:10411000140000201D38A9603BA502C0DB0FC94078
:1041200033591A407411002010B504464B49C86831
:104130004279002A04D1827D12B9007900287DD00D
:1041400047480978006811B1012927D03AE0B0F951
:104150000810D4ED090A00EE101AB8EEC00A20EEDD
:10416000801A9FED400AC1EE000A94ED111A70EE1C
:10417000810AC4ED110AB0F90A0094ED0B1A00EEA1
:10418000900AF8EEE00A61EE200A80EE801A94EDC3
:10419000100A31EE000A84ED100A13E094ED110AC2
:1041A000D4ED0D0A90ED091A00EE810A84ED110A92
:1041B00094ED100AD4ED0F0A90ED0A1A00EE810A70
:1041C00084ED100A94ED110ADFED270A0FF081FB50
:1041D00084ED110A94ED150A9FED264B9FED275BA8
:1041E000B7EEC03A9FED210B33EE400B20EE041BDF
:1041F00081EE050B94ED011AB7EEC12A30EE021BD9
:1042000094ED100AB7EEC00AB4EEC01BF1EE10FA3E
:1042100002D2B0EE410B10E09FED1A1B31EE431BB2
:1042200021EE041B81EE053B32EE431BB4EEC01BB6
:10423000F1EE10FA01DDB0EE410B00E00DE0B7EE5B
:10424000C00B84ED100A94ED050A84ED120A206873
:10425000406890ED030A84ED130A10BD140000209D
:1042600058090020000025440000B443A0DF41FDB0
:1042700078D9E0BF0000000000807640000000C058
:10428000CA21194058EC3005EFD4D43F30B504466C
:10429000304DE868C178007A002901D1002858D053
:1042A00001280AD0204600F017F99FED2B0A287844
:1042B0002A4958B101281FD029E02948406B90EDC8
:1042C000030ADFED280AC4ED120A20E0086894ED25
:1042D0000A1AB0F90A0000EE900AF8EEE00A61EE60
:1042E000200A9FED211AC0EE811AD4ED120A70EE59
:1042F000E10AC4ED120A0AE00868D4ED120A94ED4E
:104300000E1AD0ED0A1A41EE610AC4ED120A84EDCC
:10431000130A94ED120A154910EE100A884202D2CF
:104320009FED130B09E010EE100A1349884202D9E1
:104330009FED120B01E0B7EEC00AB7EEC00B84EDA3
:10434000120A94ED020A84ED110A94ED010A84ED3B
:10435000100A30BD1400002033591A4058090020BB
:1043600048070024DB2915C000002544EC5400C098
:10437000921A03809D0A00C0CDDC36C005B0F99FBB
:1043800099DB06C010B504464E48C078002850D0CE
:104390004D48C068C178012952D00179012905D062
:1043A0004179012902D0C07B012841D1206894EDD8
:1043B000110A006980ED480A206894ED020A00693C
:1043C00080ED490A20680069D0ED480A30EEC00A45
:1043D00080ED4A0ADFED3D0A0FF07BFA20680069A4
:1043E00080ED4A0A2068006900F5907010F0CEFD5B
:1043F0002068006990ED520A80ED300A206894ED43
:10440000030A006980ED310A20680069D0ED300AA6
:1044100030EEC00A80ED320A20680069C03010F02A
:10442000B5FD20680169806891ED3A0A80ED000AC7
:1044300010BD20689FED260A806880ED000A10BD3F
:10444000206894ED130A006980ED180A206841681D
:10445000006991ED030A80ED190A20680069D0ED2A
:10446000180A30EEC00A80ED1A0ADFED1A0A0FF0C2
:1044700030FA2068006980ED1A0A2068006960300F
:1044800010F084FD2068006990ED220A80ED000A9A
:10449000206894ED030A006980ED010A2068006934
:1044A000D0ED000A30EEC00A80ED020A20680069F3
:1044B00010F06CFD20680169806891ED0A0A80EDBA
:1044C000000A10BDCE120024140000200000B443E6
:1044D00000000000DB0FC9401D494A78002A35D191
:1044E0009FED1C0A80ED130A1C4B1B4AC3F80D20DC
:1044F000D0ED020AC0ED110AD0ED010AC0ED100A9C
:1045000000684068D0ED030A30EE600AB7EEC00ADA
:10451000B0EEC01B9FED120BB4EEC01BF1EE10FA13
:1045200014D811489FED112BD0F8120001EE100A9B
:10453000B7EEC11A32EE411BB0EEC11BB4EEC01B88
:10454000F1EE10FA02D8C968012008767047000021
:104550001400002033591A40DB2915C0CE12002464
:1045600000000040E17A943F441800201D38A96003
:104570003BA502C010B504460D48C178206800294B
:1045800003D0016ABDE8104008479FED0A0A84ED98
:10459000130A9FED090A84ED120A9FED080A84EDC3
:1045A000100A816988472068016ABDE81040084701
:1045B000CE12002433591A40DB2915C00000000038
:1045C00010B504462046FFF725FD2046FFF75EFEA6
:1045D0002046FFF7A9FD20460CF050FE2046FFF7CD
:1045E000D1FE2046BDE81040FFF7C4BF10B5044619
:1045F000002154F8210048B1026852785206120E88
:10460000806800892244030A13745074491CC9B29B
:104610000429EED3D4E9061004F11002FCF7B7FB2D
:1046200000202061606110BD10B50446206800289C
:1046300001D0016B8847606808B1016B8847A068AA
:1046400008B1016B8847E068002803D0016BBDE822
:104650001040084710BD70B50546002455F82400E9
:1046600008B1016B8847641CE4B2042CF6D370BD1A
:1046700030B503460024144D1868002804D0456165
:104680001868FEF76DFF0124586828B14561586825
:10469000FEF766FF641CE4B2986828B1456198682B
:1046A000FEF75EFF641CE4B2D86828B14561D868A3
:1046B000FEF756FF641CE4B21C74044858610448B9
:1046C00018620448986130BD61350008D946000879
:1046D000294600084947000870B50546084C20786F
:1046E00055F82000002804D0016A88472078401C33
:1046F0002070287C2178884201D80020207070BD6D
:104700002C13002470B50546002455F8240068B128
:104710000168497849060E0E0BF0DAFD55F82400C1
:1047200080680089020AA9190A744874641CE4B2FA
:10473000042CEAD3D5E9061005F11002FCF727FB9B
:1047400000202861686170BD10B50446206800280B
:1047500001D081698847606808B181698847A0688D
:1047600008B181698847E068002803D08169BDE805
:104770001040084710BD000000219FED060A50F8C8
:10478000212012B1926882ED000A491CC9B20429A5
:10479000F5D37047000000002DE9F84F044602F001
:1047A000D7F800905CB194F83500022809D0802039
:1047B0006065002084F834000120BDE8F88F0120F6
:1047C000FBE7D14ED04FD0491836DFF83C83303765
:1047D000DFF83493DFF830A308F14808DFF828B396
:1047E00009F1600920680AF1780A0BF1900B884200
:1047F0002ED0B0422CD0B8422AD0404528D04845CF
:1048000026D0504524D0584522D0BF4AA8329042E5
:104810001ED0BE4A90421BD0BC4A1832904217D0DC
:10482000BA4A3032904213D0B84A483290420FD040
:10483000B64A603290420BD0B44A7832904207D0E8
:10484000B24A9032904203D0B04AA83290420AD184
:10485000026822F01E0202602068426922F0800293
:104860004261256804E0026822F00E0202602568B9
:10487000206888424DD0B0424BD0B84249D0404524
:1048800047D0484545D0504543D0584541D09E4A31
:10489000A83290423DD09D4A90423AD09B4A18326D
:1048A000904236D0994A3032904232D0974A4832BC
:1048B00090422ED0954A603290422AD0934A783264
:1048C000904226D0914A9032904222D08F4AA8320C
:1048D00090421ED08E4A90421BD08D4A1432904294
:1048E00017D08B4A2832904213D0894A3C329042EA
:1048F0000FD0874A503290420BD0854A64329042A2
:1049000007D0834A7832904203D0814A8C32904259
:1049100004D1206E026822F4807202607A49206815
:1049200088422ED0B0422CD0B8422AD0404528D060
:10493000484526D0504524D0584522D07249A83148
:1049400088421ED0714988421BD070491831884274
:1049500017D06E493031884213D06C4948318842B3
:104960000FD06A49603188420BD06849783188425B
:1049700007D066499031884203D06449A831884203
:1049800004D1016821F00101016013E0016821F008
:10499000010101600EE001F0DBFF0099401A0528DB
:1049A00008D9202034342062032060700020207059
:1049B000012002E72868C007EDD1534A0121206891
:1049C00090422ED0B0422CD0B8422AD0404528D0B8
:1049D000484526D0504524D0584522D04A4BA833CC
:1049E00098421ED0494B98421BD0484B18339842EE
:1049F00017D0464B3033984213D0444B483398423B
:104A00000FD0424B603398420BD0404B78339842E2
:104A100007D03E4B9033984203D03C4BA83398428A
:104A200008D1A06D94F85C3003F01F053F23AB4024
:104A3000836007E0A06D94F85C3003F01F0301FA77
:104A400003F34360206890424DD0B0424BD0B8424F
:104A500049D0404547D0484545D0504543D05845BA
:104A600041D0294AA83290423DD0284A90423AD0BB
:104A7000264A1832904236D0244A3032904232D000
:104A8000224A483290422ED0204A603290422AD0A8
:104A90001E4A7832904226D01C4A9032904222D050
:104AA0001A4AA83290421ED0194A90421BD0184A86
:104AB0001432904217D0164A2832904213D0144A2A
:104AC0003C3290420FD0124A503290420BD0104AE2
:104AD0006432904207D00E4A7832904203D00C4A9A
:104AE0008C3290420BD1D4E919205060E06E30B185
:104AF000026822F480720260D4E91C2050603434D1
:104B000061700020207058E610000240100402403E
:104B1000085402582DE9F05F002808D090F83510AD
:104B2000022906D0802141650120BDE8F09F0120C7
:104B3000FBE7A14AA04BA04C18329F4D30339E4E4C
:104B40004834DFF874B26035DFF870C27836DFF8C9
:104B50006C82DFF868920CF1300CDFF860A208F18B
:104B60006008016809F17809944F0AF1900A5945E3
:104B700031D091422FD099422DD0A1422BD0A942C1
:104B800029D0B14227D0DFF830E20EF1900E714506
:104B900021D0DFF824E20EF1A80E71451BD0DFF81A
:104BA0001CE2AEF1180E714515D0B94213D0DFF8F2
:104BB0000CE20EF1180E71450DD061450BD0DFF8F7
:104BC000FCE10EF1480E714505D0414503D0494541
:104BD00001D0514537D14FF0040E80F835E05945EA
:104BE00027D0914225D0994223D0A14221D0A94279
:104BF0001FD0B1421DD070489030814219D06E480C
:104C0000A830814215D06D481838814211D0B94280
:104C10000FD06A48183081420BD0614509D06748EF
:104C20004830814205D0414503D0494501D0514526
:104C300004D1086820F001000860BAE0086820F09C
:104C400001000860B5E0D1F800E02EF00E0EC1F8CA
:104C500000E00168DE46594531D091422FD099429B
:104C60002DD0A1422BD0A94229D0B14227D0DFF8C4
:104C700048B10BF1900B594521D0DFF83CB10BF155
:104C8000A80B59451BD0DFF834B1ABF1180B5945CF
:104C900015D0B94213D0DFF824B10BF1180B5945E8
:104CA0000DD061450BD0DFF814B10BF1480B59451D
:104CB00005D0414503D0494501D0514506D1D1F831
:104CC00000B02BF0010BC1F800B005E0D1F800B046
:104CD0002BF0010BC1F800B001684FF0010B7145DA
:104CE00046D0914244D0994242D0A14240D0A942FC
:104CF0003ED0B1423CD0304A9032914238D02E4A18
:104D0000A832914234D02D4A183A914230D0B9425B
:104D10002ED02A4A183291422AD0614528D0274AFB
:104D20004832914224D0414522D0494520D05145B6
:104D30001ED0234A91421BD0214A1432914217D0EF
:104D40001F4A2832914213D01D4A3C3291420FD063
:104D50001B4A503291420BD0194A6432914207D01B
:104D6000174A7832914203D0154A8C32914218D1B9
:104D7000016E0A6822F480720A60816D90F85C20EE
:104D800002F01F020BFA02F24A60D0E919215160C9
:104D9000C16E31B10A6822F480720A60D0E91C2128
:104DA000516080F835B0002180F83410016D01B1F8
:104DB00088470020B9E600001000024028040240A5
:104DC000085402582DE9FF5F0446002001904FF47B
:104DD0001651FD480068B0FBF1F00090A56D2E68FB
:104DE0002968FA4FDFF8E4B3DFF8E083DFF8DC93FB
:104DF0000BF1180BDFF8D4A308F13008206809F193
:104E000048090AF1600AB8423BD05A46904238D06D
:104E1000404536D0484534D0504532D0EB4A783200
:104E200090422ED0E94A903290422AD0E74AA832E6
:104E3000904226D0E64A904223D0E54A183290426A
:104E40001FD0E34B303398421BD0E14B483398429C
:104E500017D0DFF87CC30CF1600C604511D0DFF88F
:104E600070C30CF1780C60450BD0DFF864C30CF113
:104E7000900C604505D0DFF858E30EF1A80E7045A0
:104E80007ED194F85C10082301F01F0103FA01F2AF
:104E900032424BD0B84232D0584530D040452ED067
:104EA00048452CD050452AD0C8497831884226D070
:104EB000C6499031884222D0C449A83188421ED0C8
:104EC000C34988421BD0C2491831884217D0C04913
:104ED0003031884213D0BE49483188420FD0BC4996
:104EE000603188420BD0BA497831884207D0B8493E
:104EF0009031884203D0B649A831884203D1016875
:104F000001F0040102E0016801F0080171B10168DB
:104F100021F00401016094F85C0000F01F0003FA26
:104F200000F2AA60606D40F00100606594F85C00DA
:104F3000012100F01F008140314240D02068B8427A
:104F400034D0584532D0404530D048452ED0504519
:104F50002CD09E4A7832904228D09C4A903290427F
:104F600024D09A4AA832904220D0994A90421DD02B
:104F7000974A1832904219D0954A3032904200E058
:104F8000D2E113D0924A483290420FD0904A603218
:104F900090420BD08E4A7832904207D08C4A9032A1
:104FA000904203D08A4AA83290427DD1406910F0E5
:104FB000800F04D0A960606D40F00200606594F835
:104FC0005C00042100F01F00814031423ED0206887
:104FD000B84232D0584530D040452ED048452CD02C
:104FE00050452AD0794A7832904226D0774A90327A
:104FF000904222D0754AA83290421ED0744A904204
:105000001BD0734A1832904217D0714A3032904206
:1050100013D06F4A483290420FD06D4A60329042AE
:105020000BD06B4A7832904207D0694A9032904256
:1050300003D0674AA83290424ED1006810F0020FA8
:1050400004D0A960606D40F00400606594F85C00D5
:10505000102100F01F008140314260D02068B8422A
:1050600034D0584532D0404530D048452ED05045F8
:105070002CD0564A7832904228D0544A90329042EE
:1050800024D0524AA832904220D0514A90421DD09A
:105090004F4A1832904219D04D4A3032904215D0C2
:1050A0004B4A4832904200E014E00FD0484A603248
:1050B00090420BD0464A7832904207D0444A903210
:1050C000904203D0424AA832904207D1006800F0D3
:1050D000080006E0006872E70068B7E7006800F0C3
:1050E000040058B1A9602068016849030CD5006824
:1050F000000304D4216C09B1204688470FE0A16C5D
:1051000069B1204688470AE00168C90503D40168EF
:1051100021F008010160216C09B12046884794F80C
:105120005C00202100F01F00814031427BD02068CC
:10513000B84232D0584530D040452ED048452CD0CA
:1051400050452AD0214A7832904226D01F4A9032C8
:10515000904222D01D4AA83290421ED01C4A904252
:105160001BD01B4A1832904217D0194A3032904255
:1051700013D0174A483290420FD0154A60329042FD
:105180000BD0134A7832904207D0114A90329042A5
:1051900003D00F4AA832904203D1006800F01000FB
:1051A00002E0006800F00200E8B3A96094F835005E
:1051B000042812D02068016849033DD50068000327
:1051C00035D4616C79B305E09C0A002010000240E0
:1051D00010040240204688473FE02068016821F023
:1051E000160101602068416921F080014161206C55
:1051F00008B9A06C20B12068016821F008010160A5
:1052000094F85C0000F01F013F208840A860012056
:1052100084F83500002084F83400216D002974D012
:1052200004B0204600E018E0BDE8F05F0847E16BFD
:1052300099B12046884710E00168C90509D4016882
:1052400021F010010160012084F83500002084F86D
:105250003400E16B09B120468847606D002854D0C6
:10526000606DC00758D0042084F835002068B8422B
:1052700031D058452FD040452DD048452BD05045F2
:1052800029D0B749884226D0B5491831884222D062
:10529000B349303188421ED0B24988421BD0B1494F
:1052A0001831884217D0AF493031884213D0AD4908
:1052B000483188420FD0AB49603188420BD0A949B0
:1052C0007831884207D0A7499031884203D0A54958
:1052D000A831884204D1016821F00101016003E096
:1052E000016821F00101016021680198009A401CC9
:1052F0000190904202D80868C007F6D10868C0073C
:1053000004D0032084F8350003E087E0012084F80E
:105310003500002084F83400E16C00297ED004B010
:105320002046BDE8F05F08478F4EB0421BD08E4E3E
:105330001436B04217D08C4E2836B04213D08A4E65
:105340003C36B0420FD0884E5036B0420BD0864E1D
:105350006436B04207D0844E7836B04203D0824ED5
:105360008C36B0425AD106684FF0040E94F85CB007
:105370000BF01F0B0EFA0BFE1EEA010FCDF80CE02E
:105380005ED05FEA467E5BD503986860300411D535
:10539000F00307D4A16C002940D004B02046BDE83A
:1053A000F05F0847216C002938D004B02046BDE8E2
:1053B000F05F0847B0063BD42068B8422DD068495A
:1053C0006039884229D0404527D0484525D05045EE
:1053D00023D06349884220D06149183188421CD0CB
:1053E0005F493031884218D05E49884215D09042DA
:1053F00013D05C49303188420FD098420DD05949C2
:105400006031884209D057497831884205D06045DB
:1054100003D05449A831884206D100E07CE00168FD
:1054200021F00801016003E0016821F0040101603E
:10543000216C002970D004B02046BDE8F05F084719
:105440004FF0020E0EFA0BFE1EEA010FCDF808E037
:1054500063D05FEA867E60D502986860300411D51B
:10546000F00307D4616C002978D004B02046BDE871
:10547000F05F0847E16B002970D004B02046BDE81A
:10548000F05F0847B0063FD42068B8422DD03449B9
:105490006039884229D0404527D0484525D050451D
:1054A00023D02F49884220D02D49183188421CD062
:1054B0002B493031884218D02A49884215D0904271
:1054C00013D02849303188420FD098420DD0254959
:1054D0006031884209D023497831884205D060453F
:1054E00003D02049A831884204D1016821F0140179
:1054F000016003E0016821F00A010160012084F8E5
:105500003500002084F83400E16B002926D004B077
:105510002046BDE8F05F084720E0082202FA0BF2BF
:105520000A421BD0310719D5016821F00E01016034
:1055300094F85C0000F01F01012000FA01F169609D
:10554000606584F83500002084F83400E16C00299F
:1055500004D004B02046BDE8F05F0847BDE8FF9FD7
:105560008800024010040240085402582DE9F05F00
:10557000044601F0EDF90646002C7DD0F24F0222E0
:10558000DFF8C4830025DFF8C093DFF8BCA308F17F
:105590003008DFF8B4B309F1480920680AF1600A5D
:1055A0000BF1780BB84232D0E749183188422ED03F
:1055B00040452CD048452AD0504528D0584526D0C3
:1055C000E1499031884222D0DF49A83188421ED07B
:1055D000DE4988421BD0DD491831884217D0DB49AB
:1055E0003031884213D0D949483188420FD0D74949
:1055F000603188420BD0D5497831884207D0D349F1
:105600009031884203D0D149A83188427ED184F8B4
:10561000352084F83450B84234D0CB491831884210
:1056200030D040452ED048452CD050452AD0584542
:1056300028D0C5499031884224D0C349A831884236
:1056400020D0C24988421DD0C0491831884219D0A3
:10565000BE493031884215D0BC494831884211D00A
:10566000BA49603188420DD0B8497831884209D0B2
:10567000B6499031884200E009E003D0B349A8312F
:10568000884207D1016821F00101016013E0012087
:10569000BDE8F09F016821F0010101600BE001F01D
:1056A00057F9801B052806D920206065032084F85F
:1056B00035000120ECE720680068C007EFD12268C0
:1056C0001168A3480140D4E902031843D4E9043621
:1056D00033431843A3691843E3691843236A184303
:1056E0000843616A042903D1D4E90B131943084321
:1056F0006168A1F12903052B0DD9163B032B0AD9AB
:10570000083B012B07D9083B032B00E02AE002D914
:105710007439032901D840F4801010602068406972
:1057200020F00701606A40EA010604280DD1A06A52
:105730000643E06A48B12046FDF7A2FD28B14020AB
:105740006065012084F83500A2E7206846612046A4
:10575000FDF7A8FC94F85C1001F01F023F21914076
:10576000816066E07B4988421BD07A4B14339842B3
:1057700017D0784B2833984213D0764B3C3398425D
:105780000FD0744B503398420BD0724B6433984215
:1057900007D0704B7833984203D06E4B8C339842CD
:1057A0007ED1884211D06B49143188420DD06949AD
:1057B0002831884209D067493C31884205D0654983
:1057C0005031884201D06349643184F8352084F82F
:1057D0003450026860490A40A16840297ED080297F
:1057E0007DD00021E36841EAD301236941EAD30176
:1057F000636941EAD301A36941EAD301E36941EA5C
:10580000D301236A41EA1311114301605149206811
:10581000494208441421B0FBF1F08000E0652046C5
:10582000FDF740FC94F85C1001F01F02012191404B
:1058300041602068B84256D043491831884252D05E
:10584000404550D048454ED050454CD058454AD0A0
:105850003D499031884246D03B49A831884242D0E8
:105860003A4988423FD03949183188423BD03749BC
:105870003031884237D035494831884233D03349B6
:10588000603188422FD03149783188422BD02F495E
:105890009031884227D02D49A831884223D000E09A
:1058A0002DE02C4988421ED02A49143188421AD052
:1058B00028492831884216D026493C31884212D0E6
:1058C0002449503188420ED02249643188420AD09E
:1058D00020497831884206D01E4901E00AE00BE0F9
:1058E0008C31884229D12046FDF73CFCA0688028F5
:1058F0000CD00CE0102175E74FF4804172E7402096
:105900006065032084F835000120C1E66560216EE2
:1059100020790860D4E9191048606068401E0728A3
:1059200008D82046FDF76EFCE06E0560D4E91C1037
:10593000486002E0E566256765676565012084F8D3
:1059400035000020A4E600001000024010040240D0
:105950003F8010FE085402580F00FEFF2DE9F84F5B
:10596000044600200090002C15D094F83400012843
:1059700013D0012084F8340094F835500020012D14
:105980000DD04FF40061616584F83400012000906F
:105990000098BDE8F88F0120FBE70220F9E7022517
:1059A00084F835506065A54DA44EA44F1835DFF836
:1059B0008CC23036DFF884824837DFF88092DFF817
:1059C0007CA208F16008DFF874B209F17809206858
:1059D0000AF1900A0BF1A80B60453BD0A84239D0E0
:1059E000B04237D0B84235D0404533D0484531D0A9
:1059F00050452FD058452DD0DFF844C2604529D0FE
:105A0000DFF83CC20CF1180C604523D0DFF830C23F
:105A10000CF1300C60451DD0DFF824C20CF1480CAD
:105A2000604517D0DFF818C20CF1600C604511D04A
:105A3000DFF80CC20CF1780C60450BD0DFF800C227
:105A40000CF1900C604505D0DFF8F4C10CF1A80C06
:105A5000604506D1D0F800C02CF0010CC0F800C0A1
:105A600005E0D0F800C02CF0010CC0F800C02046C2
:105A7000FDF742FC7149206888422CD0A8422AD008
:105A8000B04228D0B84226D0404524D0484522D044
:105A9000504520D058451ED0694A90421BD0684AD4
:105AA0001832904217D0664A3032904213D0644A7E
:105AB000483290420FD0624A603290420BD0604A26
:105AC0007832904207D05E4A9032904203D05C4ACE
:105AD000A83290420DD1026822F01E0242F0160256
