:020000040800F2
:1000000050560024A10300083DE2000853A4000854
:1000100079D60008F90B00086D13010800000000F4
:10002000000000000000000000000000E1020008E5
:10003000F13B0008000000003D030008B3FF00088A
:10004000BF030008BF030008BF030008BF03000888
:10005000BF030008BF030008BF030008BF03000878
:10006000BF030008BF030008BF0300088D3000086D
:1000700099300008A5300008B1300008BD300008F4
:10008000C9300008D5300008BF030008193D00083A
:10009000253D0008BF030008BF030008BF03000898
:1000A000BF030008BF030008BF030008BF03000828
:1000B00041010108BF030008BF030008BF03000897
:1000C000BF030008BF030008BF030008BF03000808
:1000D0009DF50008E1100108BF030008BF030008F8
:1000E000013C0008BF03000800000000BF03000837
:1000F000BF030008BF030008BF030008E130000889
:10010000BF030008BF030008BF030008BF030008C7
:10011000BF03000895060108BF030008BF030008DD
:10012000ED300008F93000080531000811310008F1
:100130001D310008BF030008BF030008BF0300080B
:1001400000000000000000000000000000000000AF
:10015000BF030008BF030008BF030008BF03000877
:10016000BF030008BF030008BF030008BF03000867
:10017000BF030008BF030008BF0300080000000021
:10018000BF030008BF030008BF030008A106010861
:10019000BF030008BF030008A9F50008BF0300085B
:1001A000BF030008BF030008BF03000800000000F1
:1001B000BF030008BF030008BF030008BF03000817
:1001C000BF030008BF03000800000000000000009B
:1001D0000000000000000000BF0300080000000055
:1001E000000000000000000000000000000000000F
:1001F0000000000000000000BF030008BF0300086B
:10020000BF030008BF03000800000000BF03000890
:10021000BF030008BF030008BF030008BF030008B6
:10022000BF03000800000000BF030008000000003A
:10023000BF030008BF03000800000000BF03000860
:10024000BF030008BF030008BF030008BF03000886
:10025000BF030008BF030008BF030008BF03000876
:10026000BF030008BF030008BF030008BF03000866
:10027000BF030008BF030008BF0300080000000020
:10028000BF030008BF030008BF030008BF03000846
:1002900000000000BF030008BF03000800000000CA
:1002A00000000000BF030008BF030008B9060108F2
:1002B000A5100108BF030008BF030008313D000876
:1002C000BF030008BF030008BF030008DFF80CD01D
:1002D00000F00AF900480047D141010850560024B7
:1002E0002C4B19680868B0E8F04F80F30988BFF319
:1002F0006F8F4FF0000080F31188704700000000FE
:1003000008480068006880F308884FF0000080F318
:10031000148862B661B6BFF34F8FBFF36F8F00DFF3
:1003200000BF00BF08ED00E0DFF80C00016841F4F9
:1003300070010160704700BF88ED00E0EFF30980B5
:10034000BFF36F8F134B1A681EF0100F08BF20ED1C
:10035000108A20E9F04F106009B44FF0500080F38C
:100360001188BFF34F8FBFF36F8F15F0BDFD4FF0B6
:10037000000080F3118809BC19680868B0E8F04FE4
:100380001EF0100F08BFB0EC108A80F30988BFF38D
:100390006F8F704768130024EFF3058070470000EB
:1003A000074880470748804707480047FEE7FEE7C1
:1003B000FEE7FEE7FEE7FEE7FEE7FEE7FEE7FEE715
:1003C000FD3C000869000108CD0200082DE9F05F3E
:1003D0000546002092469B468846064681464024B4
:1003E0001BE0284641464746224600F053F8534654
:1003F0005A46C01A914110D311461846224600F0C1
:1004000016F82D1A67EB01084F46224601200021FD
:1004100000F00DF817EB00094E41201EA4F1010475
:10042000DFDC484631462A464346BDE8F09F202A95
:1004300004DB203A00FA02F1002070479140C2F13B
:10044000200320FA03F319439040704740EA010368
:100450009B0703D009E008C9121F08C0042AFAD27A
:1004600003E011F8013B00F8013B521EF9D270473E
:10047000D2B201E000F8012B491EFBD270470022E6
:10048000F6E710B513460A4604461946FFF7F0FF93
:10049000204610BD202A04DB203A21FA02F0002178
:1004A000704721FA02F3D040C2F120029140084384
:1004B0001946704770B521F0004303430CD0C1F3D7
:1004C0000A550024D5EB040564EB0403D617AD1AD6
:1004D000B34102DB0020014670BD201841EB025100
:1004E00070BD002070470000064C074D06E0E06834
:1004F00040F0010394E8070098471034AC42F6D36B
:10050000FFF7E8FEFC7D01083C7E010870B58C1801
:1005100010F8015B15F0070301D110F8013B2A1117
:1005200006D110F8012B03E010F8016B01F8016B04
:100530005B1EF9D12B0705D40023521E0DD401F800
:10054000013BFAE710F8013BCB1A921C03E013F8C9
:10055000015B01F8015B521EF9D5A142D8D30020FE
:1005600070BD00009FED280A016891F90C10012967
:1005700031D04A1C2FD0B7EE001A4168D1ED041AD1
:10058000D1ED020AF5EEC01AF1EE10FA04D1F5EE43
:10059000C00AF1EE10FA03D091ED030A30EE610AC1
:1005A000B5EEC00AF1EE10FAF1EE401A174B70FEEC
:1005B000211A11EE902A9A421BDDB5EEC00AF1EE27
:1005C00010FA0DDDDFED121A30EE210A40EE010ABD
:1005D000C1ED020A11E000EE901AB8EEE01ACCE785
:1005E000DFED0C1A30EE210A40EE010AC1ED020ADD
:1005F00003E040EE010AC1ED020A406890ED030AF3
:1006000080ED040A7047000000000000DB0F494045
:10061000DB0FC9C0DB0FC94010B59FED3B0A026874
:1006200092F9001001293BD04B1C39D0B7EE001ACB
:100630004168D1ED091AD1ED070AF5EEC01AF1EEC5
:1006400010FA04D1F5EEC00AF1EE10FA03D091EDE4
:10065000080A30EE610AB5EEC00AF1EE10FAF1EECA
:10066000401A2A4C30FE212A12EE103AA3421CDC1A
:10067000B5EEC00AF1EE10FA254C70FE211A11EE0B
:10068000903AA34202DD137A012B0ED040EE010A0C
:10069000C1ED070A406890ED080A80ED090A10BD17
:1006A00000EE901AB8EEE01AC2E7B5EEC00AF1EE1D
:1006B00010FA14DD127A012A08D0DFED161A30EE96
:1006C000210A40EE010AC1ED070AE3E7DFED121A45
:1006D00030EE210A40EE010AC1ED070ADAE7127A8C
:1006E000012A08D0DFED0D1A30EE210A40EE010A92
:1006F000C1ED070ACEE7DFED0A1A30EE210A40EE1F
:10070000010AC1ED070AC5E700000000DB0F494000
:10071000037E3A3EDB0FC9C0037EBABEDB0FC94081
:10072000037EBA3E01220248114606F02BBA0000B1
:100730000008025800220248012106F023BA0000F6
:10074000000802587047000001220248082106F004
:1007500019BA00000008025800220248082106F0D9
:1007600011BA000000080258704770B504464FF4F3
:100770007A7502E0284600F004F8641EA4B2F9D2AB
:1007800070BD70B5054613F00DF9044613F00AF973
:10079000001BA842FAD370BD10B5FFF7D3FFFFF7D7
:1007A000E3FF13F00BF8044613F08EF8204310BD5E
:1007B0002DE9FC4104460D461646002000900190AC
:1007C000FFF7B8FF922000F0BFF80622694612201A
:1007D00000F09CF8FFF7A6FF9DF801009DF80010BF
:1007E000000200B20843484F00EE100AD7ED000A9D
:1007F000B8EEC00A20EE200A85ED000A9DF803003D
:100800009DF80210000200B2084300EE100AF8EE54
:10081000C00A97ED000A60EE800AC5ED010A9DF856
:1008200005009DF80410000200B2084300EE900A93
:10083000F8EEE00A20EE800A85ED020AFFF78CFF51
:1008400008226946002000F061F8FFF77DFF9DF85F
:1008500000000F2830D19DF803009DF8021000021F
:1008600000B2084300EE100AD7ED010AB8EEC00A44
:1008700020EE200A84ED000A9DF805009DF8041082
:10088000000200B2084300EE100AF8EEC00A97ED2D
:10089000010A60EE800AC4ED010A9DF807009DF888
:1008A0000610000200B2084300EE900AF8EEE00ADB
:1008B00020EE800A84ED020AFFF73CFFA22000F040
:1008C00043F802226946222000F020F8FFF72AFFB1
:1008D0009DF800009DF80110C00040EA5110B0F5ED
:1008E000806F02DBA0F5006000B200EE100AB4EEEB
:1008F000001AF8EEC00AB3EE070A00EE810A86ED90
:10090000000ABDE8FC8100009C07002070B50D4680
:10091000144640F0800000F017F806E0552000F083
:1009200013F805F8010B641EE4B2002CF6D170BD7B
:1009300010B50C4640F0800000F006F8552000F09D
:1009400003F8207010BD000001B582B04FF47A703A
:100950000123009001AA034802A908F05DF99DF85F
:1009600004000EBDCC13002410B50C46FFF7ECFFBD
:100970002046BDE81040FFF7E7BF000070B5044611
:100980000D4616462DED088BF0EE618AB0EE429AC8
:10099000B0EE628AB7EEC04A9FED3A3B24EE034BBD
:1009A000B7EEC4ABB7EEE04A24EE033BF7EEC3ABC1
:1009B000B0EE4A0A12F048FEDFED349A40EE298A82
:1009C000B0EE6A0A12F040FEB0EE40BAB0EE4A0A4B
:1009D00012F0CAFB2BEE000A00EE699AB0EE6A0A2A
:1009E00012F0C2FBB0EE40BAB0EE4A0A12F0BCFB05
:1009F0002BEE000A00EE698AB0EE4A0A12F0B4FB50
:100A000060EE289AB0EE4A0A12F01EFE48EE009AF6
:100A1000C4ED009AB0EE6A0A12F0A6FB60EE099AE5
:100A2000B0EE6A0A12F010FE48EE409AC5ED009A48
:100A3000B0EE4A0A12F098FB20EE088AB0EE6A0A7D
:100A400012F092FB28EE008AB0EE4A0A12F0FCFD8A
:100A500060EE288AB0EE6A0A12F086FB08EEC08AC1
:100A6000B0EE6A0A12F0F0FD60EE098AB0EE4A0AB2
:100A700012F07AFB08EE808A86ED008ABDEC088BC6
:100A800070BD0000514CDE0033DF913F0AE81C418D
:100A9000024981610249016170470000DD0A0008D6
:100AA000580000200B49012289680978012900D1EA
:100AB0000272417831B90849C968097A11B9418986
:100AC000491C418143894FF448718B4201D34181D4
:100AD00002727047400700247806002470B504466F
:100AE0002046FFF7DFFF414801224149037E0020F5
:100AF000012B05D06378012B16D0072B2BD02DE0CE
:100B000062706081E3689A70E2685076394A926850
:100B1000107020728870C870C87781F83100E16861
:100B20000872E168487270BDE3689870E368DA7033
:100B3000E3681B7A012B05D0607023782BB1012B61
:100B400005D006E007236370F7E78A7001E0022210
:100B50008A70C87770BDE568EE7A2EB1E568EE7AE6
:100B6000012E0CD093B113E0AB7A33B1012BF1D14C
:100B7000CA700871E068C27070BDC87070BDE8725C
:100B8000E16888726070E068C27070BD267A0EB14C
:100B90002BB107E0CA700871E068C27070BD237A9B
:100BA000012B06D0A870216991F8581001290AD0AC
:100BB0000DE06081052363702871E368DA70E368F3
:100BC0009A71087170BDE1680A74E1684874207810
:100BD00030B10128F6D12046BDE870400BF09CB939
:100BE0002046BDE870400DF073BC000030120024B8
:100BF0004E0A002040070024FEE7000010B58AB02E
:100C0000002402940394022004900120059006948D
:100C1000079402A9094805F0B2F902220748002307
:100C20001146009405F0EFF904480022012105F077
:100C30002DF9024805F06CFE0AB010BDF40A002040
:100C40000C4A11280AD012280BD0A0F500700138E8
:100C50000AD003280CD10848026A10471068C26AFB
:100C600010475068C26A104704480068026A10477B
:100C700070470000C8080020C80900200C080020A8
:100C800010B58AB00024029403940220049001203D
:100C900005900694079402A9094805F070F902220C
:100CA000074800231146009405F0ADF904480022DE
:100CB000012105F0EBF8024805F02AFE0AB010BD4C
:100CC000940B0020122812D00B4A132809D01428A4
:100CD0000AD0A0F5007001380CD108484068026ABB
:100CE00010479068C26A1047D068C26A104704482B
:100CF000C26A104770470000C80800200C08002096
:100D0000B010002410B58AB0002402940120039092
:100D10000220049005900694079402A9094805F062
:100D20002EF90222074800231146009405F06BF9C2
:100D300004480022102105F0A9F8024805F0E8FD5A
:100D40000AB010BD340C0020C1280AD0C2280BD034
:100D5000C3280CD0A0F5007011380BD106480269E9
:100D60001047084602F0F6BC084602F04FBD0846A0
:100D700002F06CBD704700004C12002441780078EE
:100D800041EA00207047C178807841EA002000B233
:100D900070474179007941EA002000B270478079BC
:100DA000704700B589B00023019300910821039199
:100DB000049305930693029308930793694605F0FD
:100DC000A7F809B0002000BD41688A88521C92B281
:100DD0008A8041680B889A4204D38B800121406845
:100DE00081707047002088707047000042680021C1
:100DF0001180024901610249C1607047313A01081E
:100E0000C90D000870B50446204601F041FF207866
:100E100001256A4E0B287DD2DFE800F006351F144D
:100E20002A93A0C4A8B68800204601F099FA20466B
:100E300001F0A0FB204600F0CBF82046BDE8704052
:100E400000F094BD204601F08BFA204601F092FBA1
:100E50002046BDE8704000F0ADBF204601F080FAAA
:100E6000204601F087FB2046BDE8704000F0A2BF9D
:100E7000204601F075FA204601F07CFB2046BDE8D3
:100E8000704000F097BF204601F074FB204600F050
:100E900091FFA06A006890ED000AB7EEC00AB0EEBC
:100EA000C01B9FED470BB4EEC01BF1EE10FA3ED80D
:100EB000E168086800680069D0ED011A9FED421AE8
:100EC000424A71EEC11A11EE900A90422FDC20695D
:100ED000026812681269D2ED011A31EEC11AB7EE3A
:100EE000C11AB0EEC11BB4EEC01BF1EE10FA1ED851
:100EF0004068006890ED001AB7EEC11AB0EEC11B51
:100F0000B4EEC01BF1EE10FA11D84868006890EDFD
:100F1000001A00E046E0B7EEC11AB0EEC11BB4EE15
:100F2000C01BF1EE10FA02D8A068057070BD307ACF
:100F3000012803D0A1680020087070BDA06805706A
:100F400070BD204601F00CFAF0688573204601F070
:100F500011FB2046BDE8704000F02CBF20460DF08C
:100F60003BFD2046BDE8704000F024BF204601F064
:100F7000F7F920460AF03CFA204601F0FBFA204639
:100F8000BDE8704000F016BF204601F0E9F92046A8
:100F90000BF0D4F8204601F0EDFA2046BDE8704091
:100FA00000F008BFE06B81698847A06B816A8847C1
:100FB0002046BDE8704000F0D9BC0000780600244F
:100FC00000000040E17A843F7B142E3E0AD7233C88
:100FD00010B504460F48C068407800280AD0A08B9E
:100FE000B0F57A7F0ED2204601F076F9A08B401C36
:100FF000A08310BDE06B81698847A06B816ABDE862
:1010000010400847E06B81698847A06B816ABDE8A2
:10101000104008477806002410B504462DED048BD7
:10102000A06A41688847E06B016800200CF0BAFFB5
:10103000B0EE408AE06B416800200DF00BF8B0EE96
:10104000401AE16B08684068D0ED000A49684968B9
:10105000D1ED001A90ED012AD1ED012AE068B0EE41
:10106000480A006881688847E06B816801200CF0BD
:1010700099FFB0EE408AE06BC16801200CF0EAFFF6
:10108000B0EE401AE06B8168496891ED000AF1EE1C
:10109000400AC068406890ED000AF1EE401A91EDF8
:1010A000010AB1EE402A90ED010AF1EE402A2069D2
:1010B000B0EE480A006881688847206900680168C6
:1010C000E068006800680DF007F8E06B01684968A7
:1010D00091ED010AE16809680A685269D2ED0A0ACD
:1010E00030EE608A4368D2ED0B0A5B6893ED010A2B
:1010F00070EE208A8268526892ED010A22691268B5
:1011000012685269D2ED0A0A30EE200AB1EE409A16
:10111000C06892ED0B0A4068D0ED010A70EE609A4B
:101120000A69084690472069006801698847E068B5
:10113000F0EE680AB0EE480A0068816988472069C5
:10114000F0EE690AB0EE490A006881698847E068F4
:10115000016840680968096991ED010AC169884719
:101160002069016840680968096991ED010AC1694F
:101170008847204600F036FFBDEC048B2046BDE8D2
:10118000104001F093B9000010B50446A06B016B4C
:101190008847E06B016A8847204600F0B9FB606829
:1011A000064902780AB9407818B1C9680020487029
:1011B00010BDC9680120487010BD000078060024E9
:1011C00070B504466548A0626548A0636548E06361
:1011D000654860603830A0606449A1614FF47A715D
:1011E000A1830021418024306061614820625F4812
:1011F0003030E06200F15801216300F1880363633D
:1012000000F1A402A26500F1B405E565564D3C3538
:10121000E560103525619FED570A80ED020ADFED8C
:10122000560AC0ED030A80ED040A4FF4FA750584EE
:101230004FF4C876468496268684B600C684760027
:1012400006859FED4E1A80ED0F1A9FED4D1A80ED29
:10125000101A80ED111A9FED4B1A80ED121A9FEDB6
:101260004A1A80ED131A9FED491A80ED141A81ED88
:10127000000AC1ED010A9FED460A81ED020A9FEDC9
:10128000450A81ED0A0ADFED440AC1ED080A81ED45
:10129000030ADD829FED410A83ED040A206A00699A
:1012A00090ED040A82ED000A206A406990ED040A7C
:1012B000E06D80ED000A206A806990ED040AA06D5F
:1012C00080ED010A206AC06990ED040AE06D80EDAE
:1012D000010A206A006990ED0E0AA06D80ED020AF5
:1012E000206A406990ED0E0AE06D80ED020A206AE6
:1012F000806990ED0E0AA06D80ED030A206AC06936
:1013000090ED0E0AE06D80ED030AA06BC16A88477C
:10131000E06BC1698847224860642248A064224883
:10132000E0642248606522482065E0680068416802
:1013300088472069006841688847E06840684169DB
:10134000884720694068416988471A4815F0B6FC0B
:10135000BDE87040184810F025B90000080D0024C1
:101360000C080020C808002098060024200D00204A
:10137000C00C00240AD7233C0AD7A33C0000C84372
:1013800000007A450000FA4300004842000048434C
:1013900000401C4600007A4400000042C3B8323FBF
:1013A00089110008191000084D220008ED280008D6
:1013B000050E000808210024C41100202D49C96829
:1013C000097D002905D1C268937B23B103699B7B0A
:1013D0000BB121B32BE0916891ED030AD1ED020A24
:1013E00030EE200AD1ED000A30EE200AD1ED010ADC
:1013F00030EE200A81ED040A0069806890ED030A4E
:10140000D0ED020A30EE200AD0ED000A30EE200ABC
:10141000D0ED010A30EE200A80ED040A7047C26860
:10142000937B012B03D103699B7B012B0ED00129F8
:10143000F4D1C168896891ED030A81ED040A00695D
:10144000806890ED030A80ED040A7047916891ED81
:10145000030AD1ED000A30EE200A81ED040A00698A
:10146000806890ED030AD0ED000A30EE200A80ED8E
:10147000040A7047780600242DE9F04104462DED5A
:10148000028BE0680568206906682868006990EDAD
:10149000010A206A006980ED010A3068006990ED58
:1014A000010A206A406980ED010A606990ED110A25
:1014B000206A006980ED000A606990ED120A206AD6
:1014C000406980ED000A206A006912F0EFFF206A8F
:1014D000406912F0EBFF206A006990ED020AB5EE58
:1014E000C00AF1EE10FA01DCB1EE400A10EE101A5B
:1014F000344FDFED358AB942B3EE048A02DDC0ED28
:101500000D8A01E080ED0D8A206A006913F076FEF5
:10151000206A406990ED020AB5EEC00AF1EE10FAB9
:1015200001DCB1EE400A10EE101AB94202DDC0ED46
:101530000D8A01E080ED0D8A206A406913F05EFE9D
:101540002868006990ED030A206A806980ED010A2D
:101550003068006990ED030A206AC06980ED010AD5
:10156000206A0169806991ED0A0A80ED000A206A0B
:101570004169C06991ED0A0A80ED000A206A80691C
:1015800012F094FF206AC06912F090FF206A80690F
:1015900013F034FE206AC06913F030FE206A8069BF
:1015A00090ED0A0AE068806880ED030A206AC0694D
:1015B00090ED0A0A2069806880ED030ABDEC028B79
:1015C000BDE8F081CDCC4C3D0000000010B52649AF
:1015D000C968897B012929D18169B1F9081000EE18
:1015E000101A4169B8EEC01A9FED200AD1ED121A07
:1015F000C1EE000A9FED1E1A20EE812ADFED1D0AC2
:1016000042EE201AC1ED121A8169B1F9081001EEFB
:10161000901A4169F8EEE11A81EE802A91ED110AE3
:1016200022EE011A01EE200A81ED110A4169124BE6
:10163000134C9FED120A8A6CDFED120A9A4202DD0A
:1016400081ED120A03E0A24201DAC1ED120A4069FB
:10165000416C994202DD80ED110A10BDA142FCDA15
:10166000C0ED110A10BD00007806002400002544DA
:10167000CDCC4C3E6F12833A7B14AE3E7B14AE3E13
:10168000295C0F3E295C0F3E10B504469FED270AEA
:10169000206A806880ED000AE06800680068C06821
:1016A000D0ED0A0A206900680068C06890ED0A1A47
:1016B000206A70EEC10A8068C0ED010A206AC06825
:1016C00080ED000A206900680068C06890ED0A0A91
:1016D000E06800680068C068D0ED0A0A206A30EE51
:1016E000600AC06880ED010A206AC06812F0DEFE60
:1016F000206A806812F0DAFE206A806813F07EFDAE
:10170000206AC06813F07AFD206A806890ED0A0AAA
:10171000E068806880ED050A206AC06890ED0A0ADA
:101720002069806880ED050A10BD000000000000FF
:1017300010B504462DED028BE06800680068C068B3
:1017400090ED140A206A006B80ED010A606990ED4B
:10175000040A206A006B80ED000A206900680068B6
:10176000C06890ED140A206A406B80ED010A606940
:1017700090ED030A206A406B80ED000A206A406BFE
:1017800012F094FE206A006B12F090FE206A9FED2A
:10179000368A006BF0EE480A90ED020A12F0D1F999
:1017A000206A006B80ED020A206AF0EE480A406B66
:1017B00090ED020A12F0C5F9206A406B80ED020A32
:1017C000206A006B13F01AFD206A406B13F016FDBF
:1017D000206A016B806B91ED0A0A80ED000A206A95
:1017E000416BC06B91ED0A0A80ED000AE0689FED45
:1017F0001F0A00680068C068D0ED0B0A206A60EE1E
:10180000800A806BC0ED010A206900680068C0682A
:10181000D0ED0B0A206A20EE800AC06B80ED010A31
:10182000206AC06B12F042FE206A806B12F03EFE0E
:10183000206A806B13F0E2FC206AC06B13F0DEFCC0
:10184000206A806B90ED0A0AE068806880ED070AE4
:10185000206AC06B90ED0A0A2069806880ED070A53
:10186000BDEC028B10BD00000000B443E12E6542C8
:1018700070B504462DED048BE068056820690668A4
:101880002868C06890ED0A0AB7EEC00A0FF0B4FFEE
:101890002868DFED1D9ADFED1B8A9FED1C9AC06959
:1018A000B0EE698A90ED081AE06801EE288A806837
:1018B00028EE091AB7EEC11A20EE010BB7EEC00BE5
:1018C00080ED000A3068C06890ED0A0AB7EEC00AE1
:1018D0000FF092FF3068B0EE698AC06990ED081A87
:1018E000206901EE288A806828EE091AB7EEC11A2D
:1018F00020EE010BB7EEC00B80ED000ABDEC048BAF
:1019000070BD0000AB3EA73FC6DC1E41C3F51C41C5
:1019100030B5C16B012300240A68D268157A426889
:10192000012D1DD08D68ED682D7A012D18D0CD6860
:10193000ED682D7A012D13D04968C968097A01290B
:101940000ED01470816B0A68D268127A012A09D00D
:101950004968C968097A012904D04068447030BDDB
:101960001370EFE74068437030BD000010B50446C7
:101970002DED028B9FED578AA06B0068406880EDCB
:10198000098AA06B0068406880ED078AA06B4068F8
:10199000406880ED098AA06B4068406880ED078A46
:1019A0009FED4D0A606980ED120A606980ED110AB1
:1019B000A06A006890ED010A606980ED0F0AA06DD1
:1019C00090ED000A206A006980ED040AE06D90ED58
:1019D000000A206A406980ED040AA06D90ED010ABA
:1019E000206A806980ED040AE06D90ED010A206AAA
:1019F000C06980ED040A606980ED108A606980ED3D
:101A0000088A606980ED098A606980ED0E8A334832
:101A10000FF096FDE06800680068806980ED038A39
:101A2000E06800680068806980ED018A20690068CC
:101A30000068806980ED038A206900680068806919
:101A400080ED018A206A006812F028FD206A806A11
:101A500012F024FD206A006912F020FD206A8068DF
:101A600012F01CFD206A006C12F018FD206A006B59
:101A700012F014FD206A406812F010FD206AC06A5E
:101A800012F00CFD206A406912F008FD206AC0685F
:101A900012F004FD206A406C12F000FD206A406BD9
:101AA00012F0FCFC216900208881E16888810C49E2
:101AB000CA681075C9684875E16A81F85400216BDD
:101AC00081F82C00616B0876616B4876BDEC028B67
:101AD00010BD0000000000007B142E3EC411002049
:101AE0007806002400682D499FED2D0A0A68D2ED82
:101AF0000A0A2C4A60EE800A92ED001A41EE000AB2
:101B0000C0ED000A0A68DFED280A92ED0B1A21EEFB
:101B1000201A80ED021A0A6892ED091A21EE001AC5
:101B200080ED011A0A6892ED0F1A61EE200AC0EDED
:101B3000050A0A68D2ED0E0A60EE800AC0ED030ABB
:101B40000A68D2ED0D0A20EE800A80ED040A0A68C8
:101B500092ED000A80ED060A0A6892ED010AB1EEE4
:101B6000400A80ED070A0A6892ED020A80ED080A31
:101B70000A6892ED060A80ED090A0A6892ED070AE2
:101B8000B1EE400A80ED0A0A0968DFED080A91ED1E
:101B9000080A30EEC00A80ED0B0A704734110024A9
:101BA00098F98E3C100D002498F98EBCC3F51C41A9
:101BB000806907490A68128982810A68528902810C
:101BC0000A68928982800968C9890180704700008B
:101BD0003012002410B50446A06A006890ED020A95
:101BE000206A006880ED010AA06A006890ED020A90
:101BF000206A406880ED010A606990ED100A206A51
:101C0000006880ED000A606990ED100A206A406863
:101C100080ED000A206A006812F048FC206A006823
:101C200013F0ECFA206A406812F040FC206A406829
:101C300013F0E4FAE0689FED110A817B012909D0D5
:101C4000216A80680968D1ED0A0AF1EE600AC0EDE8
:101C5000020A02E0806880ED020A2069817B012986
:101C600007D0216A8068496891ED0A0A80ED020A6E
:101C700010BD806880ED020A10BD00000000000069
:101C800010B52DED048B42490968496891ED030AAE
:101C9000DFED400A30EEC08A9FED3F1BB7EEC80A69
:101CA000B0EEC00BB4EEC10BF1EE10FA18DBB5EEDE
:101CB000C08AF1EE10FA01DD012108E0B5EEC08A1C
:101CC000F1EE10FA02D24FF0FF3100E00021DFED1B
:101CD000340A490000EE101AB8EEC00A00EE608A1D
:101CE00030499FED310A097811B101291AD03DE040
:101CF0008069B0F90010494200EE901AF8EEE01A3F
:101D0000DFED2A0A81EEA01A61EE008AB0F9040024
:101D1000404201EE100AB8EEC11AC1EE201A21EEBF
:101D2000809A23E0224980690968D0ED080A66316B
:101D300090ED041AB1F9082030EEC11A00EE902A95
:101D4000F8EEE01AC1EE210A60EE808AD0ED060AB4
:101D500090ED0A1AB1F9000030EEC11A00EE900AB7
:101D6000F8EEE01AC1EE210A20EE809AB0EE480AA1
:101D700011F06AFC60EE288AB0EE480A11F0F4F91E
:101D800020EE090A38EE800ABDEC048B10BD00007D
:101D9000C807002433591A4000000060FB210940A5
:101DA000DB0F4940780600246666E63F00002544C4
:101DB00030120024C1688A68096892ED0F0A096828
:101DC0004969D1ED0A0AC16B30EE200A09688968B9
:101DD00081ED000AC1688A68096892ED100A0968F5
:101DE0004969D1ED0B0AC16B30EE600A4968896818
:101DF00081ED000A01698A68096892ED0F0A096895
:101E0000B1EE400A4969D1ED0A0AC16B30EE600AB1
:101E10008968896881ED000A01690A688968126821
:101E2000D1ED100AC16B5269C96892ED0B0A89683D
:101E300030EE600A81ED000AC168896891ED0C0AF4
:101E4000816B0968896881ED000A0169806B896886
:101E5000406891ED0C0A8068B1EE400A80ED000AFE
:101E60007047000038B504466069D0ED0E0A90ED69
:101E7000090A60EE800A9FED562ADFED561A9FEDA3
:101E8000561ADFED562AF5EEC00A554DF1EE10FA5E
:101E90004CDDB5EEC00AF1EE10FA06DD206980686F
:101EA00090ED110A20EE020A05E02069806890EDAD
:101EB000110A20EE210AA06A0068D0ED090A60EE3E
:101EC000810A216949680968D1ED041A21EE811A55
:101ED000D0ED041A21EE211A60EEA00A41EE010AAB
:101EE000F5EEC00AF1EE10FA04DBB1EEE01A8DED6A
:101EF000001A01E0CDED002ADDED000AF4EEC00A83
:101F0000F1EE10FA11DD36480A2111F03AFC05EB2A
:101F1000800090ED000A206940680068D0ED040A56
:101F2000606920EE800A80ED090A38BDF5EEC00A2E
:101F3000F1EE10FAF9D2B5EEC00AF1EE10FA06DDB4
:101F40002069806890ED110A20EE020A05E0206900
:101F5000806890ED110A20EE210AA06A0068D0ED99
:101F6000090A60EE810AE16849680968D1ED041A3E
:101F700021EE811AD0ED041A21EE211A60EEA00A9A
:101F800041EE010AF5EEC00AF1EE10FA04DBB1EE03
:101F9000E01A8DED001A01E0CDED002ADDED000A1A
:101FA000F4EEC00AF1EE10FABFDD0D480A2111F07F
:101FB000E8FB05EB800090ED000AE06840680068EF
:101FC000D0ED040A606920EE800A80ED090A38BD70
:101FD000CDCC4C3E8FC2753D79E9163F0000000024
:101FE000A00700242DE9F04781462DED068B9AB01D
:101FF000D9F80C1048680468D9F8100042681568D0
:102000000F68D0F80080D9F8280006683422D9F883
:1020100038A00DA8DAF80410FEF718FADAF8001064
:1020200034226846FEF712FA94ED000A84ED0C0A99
:102030003868D6ED000AC06890ED0A0AB1EE400A91
:1020400030EE600A84ED000A3868D6ED030AC068F5
:1020500090ED0B0AB1EE400A30EE600A84ED010A01
:1020600084ED0D0AD4ED0E0A70EE600AC4ED020A8A
:1020700084ED0E0A96ED000A84ED050A96ED030A3A
:1020800084ED060A95ED000A85ED0C0AD8F80000EB
:10209000D6ED000AC06890ED0A0AB1EE400A30EEB3
:1020A000600A85ED000AD8F80000D6ED030AC06882
:1020B00090ED0B0AB1EE400A30EE600A85ED010AA0
:1020C00085ED0D0AD5ED0E0A70EE600AC5ED020A27
:1020D00085ED0E0A96ED000A85ED050A96ED030AD8
:1020E00085ED060A96ED000A84ED050A96ED000AD4
:1020F00085ED050A96ED030A84ED060A96ED030ABE
:1021000085ED060A0E9890ED038A0198D0ED039AAA
:102110000E98D0ED078A019890ED079A94ED000A89
:1021200011F022F838680069D0ED010A20EE200A8B
:10213000D4ED010A20EE20AA38EE290ADFED3F0A8D
:1021400000EE20AA95ED000A11F00EF8D8F8000074
:10215000F6EE009A0069D0ED010A20EE200AD5EDD6
:10216000010A00EE20AA6AEE290AD9F828000068C0
:1021700090ED090A324814F0D3FD3148006890ED23
:10218000008AD8F80000806990ED030A386838EEBC
:10219000C00A806930EE090AD0ED030A30EE600A09
:1021A000DFED280A60EE208A95ED000A10F0DCFFD2
:1021B000D8F800000069D0ED010A20EE200AD5ED24
:1021C000010A20EE209A94ED000A10F0CDFF386845
:1021D0000069D0ED010A20EE200AD4ED010A00EEDC
:1021E000209AB0EE480A09EE690A1748F0EE680A2C
:1021F0000FF008FA1448006890ED000AD0ED010ACB
:1022000084ED030A85ED030A94ED040A84ED0A0ABD
:1022100095ED040A85ED0A0AC4ED040AC5ED040A29
:1022200094ED040A84ED090A95ED040A85ED090A86
:102230001AB0BDEC068BBDE8F087000068916D3DDB
:10224000082100246891ED3CC411002030B5214BD9
:10225000062200215C78082C1ED2DFE804F0040D71
:102260000F1215181D1BDC68647E012C01D0017053
:1022700013E00124047010E001700EE002240470E9
:102280000BE00324047008E00424047005E0052436
:10229000047002E0027000E00170DC68247A012C16
:1022A00002D1027007225A7042681478012C05D0BE
:1022B0005278012A02D05A78012A00D1017002789E
:1022C000012A01D082685180DA689278012A00D10F
:1022D000017030BD78060024816BDFED200A0968AB
:1022E0004A6892ED030A20EE200A896881ED000A0F
:1022F000816B49684A6892ED030A20EE200A8968DA
:1023000081ED000AC16BB9EE080A09684A68D2ED8E
:10231000000A60EE800A8968C1ED000AC16B496855
:102320004A68D2ED000A60EE800A8968C1ED000AB1
:10233000C16B89684A68D2ED000A60EE800A89683C
:10234000C1ED000AC06BC0684168D1ED000A20EE03
:10235000800A806880ED000A7047000017B7D1B886
:102360002DE9F04104462DED068BE168086805680B
:1023700020690268166849680F684068D0F80080D4
:1023800098ED000AB7EEC00A0FF036FA706990EDCA
:10239000041AB7EEC11A20EE018B98ED000AB7EED1
:1023A000C00A0FF029FAF069B7EE009A9FED3CAB36
:1023B00090ED081A306939EE411AD0ED051AA06A7D
:1023C00021EE211A0068B7EEC12A90ED0B1A2069A0
:1023D000B7EEC11A806802EE401B01EE0A8BB7EE21
:1023E000C80B80ED110A97ED000AB7EEC00A0FF096
:1023F00003FA686990ED041AB7EEC11A20EE018B5A
:1024000097ED000AB7EEC00A0FF0F6F9E86990ED13
:10241000081A286939EE411AD0ED051AA06A21EE92
:10242000211A0068B7EEC12A90ED0B1AE068B7EEEA
:10243000C11A806802EE401B01EE0A8BB7EEC80B92
:1024400080ED110A10EE102A174D0021E068AA4213
:1024500003DC8289521C828100E081810122E068D4
:1024600005268389052B03D38273E068868100E00B
:102470008173206983685B6CAB4203DC83895B1CDE
:10248000838100E0818120698389052B06D38273D3
:1024900020698681BDEC068BBDE8F0818173F9E788
:1024A00000000060D5E7F43F00005C4210B5044630
:1024B0002046FFF77DFB0BF015FC204600F04AFBA1
:1024C000204600F021FA2046FFF780F82046FFF76B
:1024D000C9FCE168887B012825D06069D0ED0B2A12
:1024E00090ED0A2AD0ED091A90ED081AD0ED070AEE
:1024F00090ED020A4868816988472169887B012834
:1025000024D06069D0ED0B2A90ED0A2AD0ED091A8B
:1025100090ED081AD0ED070A90ED020A486881692B
:10252000BDE810400847496808688A69D0ED062A66
:1025300090ED052AD0ED041A90ED031A6069D0EDF4
:10254000070A90ED020A08469047D6E749680868EE
:102550008A69D0ED062A90ED052AD0ED041A90ED97
:10256000031A6069D0ED070A90ED020ABDE8104039
:10257000084610472DE9F047044620690568E168E0
:102580000E684F68D0F804802046FFF77DF8796A1E
:1025900038468847D8F8241040468847F96A3846B4
:1025A0008847E068806880ED060AD8F82C1040461D
:1025B00088472069806880ED060ADFF89091D9F895
:1025C0000C00007D00287DD0E068806890ED050A51
:1025D00080ED090A2069806890ED050A80ED090AFE
:1025E0002046FEF749FF2046FFF7F4FA2046FFF7A2
:1025F0003FF92046FEF7E2FE204600F0ABF8B96A4C
:1026000038468847E068806880ED0B0AD8F82810C3
:10261000404688472069806880ED0B0AD9F80C1085
:10262000087A9FED4B0A01287DD0E068827B012A61
:102630007ED08068D0ED0B0A90ED0A1A70EE810A08
:10264000C0ED0C0A087A012876D02069817B012927
:1026500077D0806890ED0B0AD0ED0A0A30EE200AA0
:1026600080ED0C0AE068F1688068D0ED090A90ED11
:10267000040A304688472069E9688068D0ED090A75
:1026800090ED040A28468847696928468847716999
:1026900030468847306890ED000AE0688068D0EDE9
:1026A0000D0A30EE200A80ED0F0A306890ED010A25
:1026B000E0688068D0ED0E0A30EE200A80ED100A46
:1026C000286800E016E090ED000A20698068D0EDEF
:1026D0000D0A30EE200A80ED0F0A286890ED010AFD
:1026E00020698068D0ED0E0A30EE200A80ED100AD5
:1026F000BDE8F087E068806890ED050AD0ED060A35
:1027000030EE600A80ED090A2069806890ED050AC4
:10271000D0ED060A30EE600A80ED090A60E702E0BB
:1027200006E009E00DE0E068806880ED0C0A89E7CA
:10273000806880ED0C0A85E72069806880ED0C0ACE
:1027400090E7806880ED0C0A8CE700007806002492
:102750000000000010B504462DED028B6048216A90
:10276000C068096A0279012A04D1427912B9C07B92
:1027700000287DD0A06A006890ED010A81ED010A71
:10278000606990ED0F0A206A006A80ED000AA06A75
:10279000006890ED010A206A406A80ED010A6069D4
:1027A00090ED0F0A206A406A80ED000A206A006AF4
:1027B00011F07CFE206A406A11F078FE206A006AFF
:1027C00090ED020A9FED478AF0EE480A11F0B9F940
:1027D000206A006A80ED020A206AF0EE480A406A28
:1027E00090ED020A11F0ADF9206A406A80ED020A0C
:1027F000206A006A12F002FD206A406A12F0FEFCB4
:10280000206A016A806A91ED0A0A80ED000A206A56
:10281000416AC06A91ED0A0A80ED000AA06A006868
:1028200090ED040A206A806A80ED010AA06A0068BF
:1028300090ED040A206AC06A80ED010A206A806A6D
:1028400011F034FE206AC06A11F030FE206A806AFE
:1028500012F0D4FC206AC06A12F0D0FC206A806AB0
:1028600090ED0A0AE068806880ED0A0A206A00E0BC
:102870000BE0C06A90ED0A0A2069B1EE400A806858
:1028800080ED0A0ABDEC028B10BD17480268526841
:1028900092ED030AB1EE400A81ED010A216A90ED42
:1028A0001B0A096AB1EE400A81ED000A0168496815
:1028B00091ED030A216AB1EE400A496A81ED010AED
:1028C00090ED1B0A206AB1EE400A406A80ED000AD2
:1028D000A06A006890ED010A606980ED0F0A65E763
:1028E00078060024DB0FC940C807002410B5044651
:1028F0002046E16C8847A16C20468847216D204620
:10290000BDE81040084700002DE9F04104462DEDD8
:10291000028B26789FED801A9FED802ADFED800ADA
:1029200080498148814BDFED821A90ED010A82488F
:102930000A2E0A687F4DC168007809D2DFE806F0E8
:1029400005B0B009AB3FB0B0B075606980ED0E1A4C
:10295000A6E00E7C1EB1606980ED0E1AA0E010B1F9
:1029600001280FD09CE0A069B0F90C0000EE100A1D
:102970006069B8EEC00A80EE021A21EE200A80EDEE
:102980000E0A8DE0B2F91C00404201EE100A6069A7
:10299000B8EEC11A21EE000A80ED0E0A10EE102AE0
:1029A00060699A4202DDB0EE610A05E010EE102A7D
:1029B000AA4201D9B0EE600A80ED0E0A70E00E7CEA
:1029C0001EB1606980ED0E1A6AE010B101280FD0C7
:1029D00066E0A069B0F90C0000EE100A6069B8EE7C
:1029E000C00A80EE021A21EE200A80ED0E0A57E09E
:1029F000B2F91C00404201EE100A6069B8EEC11A3B
:102A000021EE000A80ED0E0A10EE102A60699A424B
:102A100002DDB0EE610A05E010EE102AAA4201D9EB
:102A2000B0EE600A80ED0E0A3AE00E7C1EB16069DD
:102A300080ED0E1A34E010B101280FD030E0A0690B
:102A4000B0F90C0000EE100A6069B8EEC00A80EE22
:102A5000021A21EE200A80ED0E0A21E0B2F91C00D4
:102A6000404201EE100A6069B8EEC11A21EE000A78
:102A700080ED0E0A10EE102A60699A4202DDB0EE77
:102A8000610A05E010EE102AAA4201D9B0EE600AF0
:102A900080ED0E0A04E06069B1EE040A80ED0E0AD2
:102AA000887F012808D10BF037FA6069D0ED0E0A53
:102AB00020EE800A80ED0E0A60699FED201B90EDEC
:102AC0000E2AB7EEC20AB0EEC00BB4EEC10BF1EEA7
:102AD00010FA1DDB90ED0F0ADFED1A0A02EE200A54
:102AE00080ED0F0A194D1A4E9FED178A6069F0EEBE
:102AF000480A90ED0F0A11F024F8606980ED0F0A82
:102B000010EE100AA842F1DC10EE100AB042EDD827
:102B1000BDEC028BBDE8F081000000000000254400
:102B20006666E6BF30120024980600246666E63F1B
:102B30006666E63F6666E6BF78060024000000C0D1
:102B40009ADF313F6F12833ADB0FC940DB0F4940F8
:102B5000DB0F49C070B50446484E494DF068017C12
:102B600000290AD1417C012907D195ED080AB1EE6F
:102B7000400A85ED080A00214174F0684079012877
:102B800006D03078B0EE000A68B1012820D039E0D4
:102B90002046FFF775F8D5ED080A606920EE200A97
:102BA00080ED090A42E0A06995ED081ADFED351ABB
:102BB000B0F9000000EE900A6069F8EEE00A20EE3D
:102BC000811AC1EE210A20EE800A80ED090A19E07F
:102BD000A069D0ED040A90ED081A2B4870EEC10AE6
:102BE00095ED081A006820EE811AB0F96E0000EE2B
:102BF000900A6069F8EEE01AC1EE210A20EE800A20
:102C000080ED090A606990ED090A10EE101AB1F121
:102C1000804F02DDB0EE000A06E010EE101AB1F1AE
:102C2000404F01D9B8EE000A80ED090AF068807FB4
:102C3000012808D10BF070F96069D0ED090A20EE87
:102C4000800A80ED090A6069F6EE000A0F4A90EDED
:102C5000090A20EE200AB7EEC00AB0EEC00BB7EEAC
:102C6000C00B10EE101A914206DBE1684968096852
:102C700091ED030A80ED080A70BD0000780600247B
:102C8000980600240000254430120024CDCC4C3E90
:102C90000178062907D041699FED060A81ED060AF1
:102CA000416981ED050A0178002901D00021818365
:102CB00070470000000000000021C17001714171E7
:102CC00001704170C1800649C161064941620649EF
:102CD0008162064901620649816101218172704762
:102CE000F52C00089F2D0008992D00080B2D0008D9
:102CF0001B2D0008827A012A05D111B10121C17072
:102D000001E00021C1700EF033BB0021C1700171E0
:102D1000417101704170C1807047024600B5517821
:102D2000108901290CD00021D180D188814202D99B
:102D30001046FFF7EAFF5DF804EB104600F032B8EA
:102D4000A0F57F41FF39F0D0D188491CD180ECE754
:102D500070B50024064D04EB440000EBC40005EB05
:102D6000800081698847641CE4B2082CF3D370BDED
:102D70005800002070B50024064D04EB440000EB21
:102D8000C40005EB800041698847641CE4B2082C4C
:102D9000F3D370BD5800002000214170704701211D
:102DA0004170704710B5837800210122052B08D2AD
:102DB000DFE803F01118030A1E004379012B01D04C
:102DC000017010BD027010BD4379022B01D001705B
:102DD00010BD027010BDC378012B01D0017010BD71
:102DE000027010BDC3780BB1017010BD027010BD30
:102DF000017010BD2DE9F05F8249486800680468E1
:102E0000007E814E002815D0002070607E4D7068D5
:102E10000835C8280DD3281D097800F12C0700F1CA
:102E20005808C26900F1DC0900F5847A31B1012942
:102E30005AD0D6E07068401C7060E7E7217C022918
:102E400008D1617C012905D1A17D2B78994201D05F
:102E5000012100E0002183466B480C309047207C24
:102E6000022808D1607C012805D1207EA9788842FB
:102E700001D0012100E00021DBF8482038469047CE
:102E8000207C022808D1607C032805D1A07D297808
:102E9000884201D0012100E00021DBF87420404687
:102EA0009047207C022808D1607C032805D1A07DB2
:102EB0002978884201D0012100E00021DBF8F820C8
:102EC00048469047207C022808D1607C032805D121
:102ED000207EA978884201D0012100E00021DBF8A2
:102EE0002421504690477CE094F8A110012900D09D
:102EF0000021834644480C30904794F89100012803
:102F000009D00021DBF848203846904794F8590052
:102F1000012802D005E00121F4E73C4890F8310097
:102F2000F0B10021DBF874204046904794F841004E
:102F3000012818D000213448DBF8CC20BC30904761
:102F400094F85100012811D000212F48DBF8A0206F
:102F50009030904794F879000327012809D00CE0BD
:102F60004FF00101DEE74FF00101E4E74FF001010E
:102F7000EBE7B07800F10100B07006D1B078B0FB9B
:102F8000F7F107FB1100012809D00021DBF8F82038
:102F90004846904794F87900012802D008E00121C2
:102FA000F4E7B078B0FBF7F107FB110001280DD072
:102FB0000021DBF824215046904794F8B100012805
:102FC00006D0022804D0032802D005E00121F0E752
:102FD00094F88900012812D00021DBF850210C4818
:102FE0009047207C3070607C707000202118897DB3
:102FF0002954401CC0B20428F8D3BDE8F09F012139
:10300000EBE70000780600244C0000204E0A002068
:103010008C01002010B51348006881688847124869
:10302000816888471148816988471148016C884741
:103030001048416988471048C16988470F48C16AEC
:1030400088470EF0E7FA00F0D5FD0D48C16A8847C1
:10305000FFF790FE0B4808F061F80B484169BDE8A6
:1030600010400847FC0800203012002434110024CE
:103070004007002478060024C80800200C0800201F
:10308000740E0024781200244C120024014801F030
:10309000BBBF00006C1A0024014801F0B5BF00005E
:1030A000DC140024014801F0AFBF000054150024D7
:1030B000014801F0A9BF00003C1D0024014801F0B7
:1030C000A3BF0000C41C0024014801F09DBF000004
:1030D000A41E0024014801F097BF00001C1F00241B
:1030E000014801F091BF0000B41D0024014801F027
:1030F0008BBF00002C1E0024014801F085BF00009A
:10310000E41A0024014801F07FBF00005C1B00248A
:10311000014801F079BF0000D41B0024014801F0F0
:1031200073BF00004C1C002410B52C4A016891426A
:103130003AD02A4A1832914236D0284A3032914247
:1031400032D0264A483291422ED0244A60329142EF
:103150002AD0224A7832914226D0204A9032914297
:1031600022D01E4AA83291421ED01D4A91421BD045
:103170001B4A1832914217D0194A3032914213D06B
:10318000174A483291420FD0154A603291420BD013
:10319000134A7832914207D0114A9032914203D0BB
:1031A0000F4AA832914214D1CAB2103A1823B2FB86
:1031B000F3F20C4C02F00703E35CC365032A04D965
:1031C0006FF30901091D816506E06FF3090181654F
:1031D00002E021F0FF018165806D10BD100002400A
:1031E00010040240B871010810B501680123224C97
:1031F000CAB2A1421BD0204C1434A14217D01E4C9D
:103200002834A14213D01C4C3C34A1420FD01A4C9C
:103210005034A1420BD0184C6434A14207D0164C54
:103220007834A14203D0144C8C34A1420FD1083A17
:103230001421B2FBF1F1114A02EB810202660F4A3E
:103240008032426601F01F018B40836610BD103A48
:103250001824B2FBF4F20A4C2144A82900D8083201
:10326000084901EB8201016606498031416602F09E
:103270001F018B40836610BD085402580058025845
:10328000F0FBFDBF000802400279521E072A31D828
:10329000194B016899421BD0174B1433994217D030
:1032A000154B2833994213D0134B3C3399420FD01E
:1032B000114B503399420BD00F4B6433994207D0D6
:1032C0000D4B7833994203D00B4B8C33994207D185
:1032D0000A4901EB8201C16608494031016706E0F5
:1032E000074901EB8201C1660549403101670121AF
:1032F0009140416770470000085402580059025835
:1033000000090240014610B500208B694FF0C074DF
:103310008A6A002B0ED0B3F5005F1AD062B3012A7F
:103320002AD0022A28D0032A03D1C96AC90100D5AC
:10333000012010BD1AB1012A06D0022AF9D1C96AAA
:10334000C901F6D5012010BDC96AA142FBD10120F7
:1033500010BD52B1012A0AD0022A06D0032AF7D1A1
:10336000C96AA142F4D1012010BD012010BDC96A73
:10337000C901FBD5012010BD012010BD2DE9F04F82
:10338000856D8A4E894FDFF824C2A836DFF81C828B
:10339000DFF818920CF1180CDFF810A208F13008D1
:1033A000DFF808B209F1480904680AF1600A0BF174
:1033B000780BBC426DD064456BD0444569D04C4518
:1033C00067D0544565D05C4563D0DFF8E0E10EF18D
:1033D000900E74455DD0B4425BD0DFF8D4E1744503
:1033E00057D0DFF8CCE10EF1180E744551D0DFF85C
:1033F000C0E10EF1300E74454BD0DFF8B4E10EF1B0
:10340000480E744545D0DFF8A8E10EF1600E744512
:103410003FD0DFF89CE10EF1780E744539D0DFF82B
:1034200090E10EF1900E744533D0DFF884E10EF197
:10343000A80E74452DD0DFF87CE1744529D0DFF863
:1034400074E10EF1140E744523D0DFF868E10EF13B
:10345000280E74451DD0DFF85CE10EF13C0E74457A
:1034600017D0DFF850E10EF1500E744511D0DFF89F
:1034700044E10EF1640E74450BD0DFF838E10EF133
:10348000780E744505D0DFF82CE10EF18C0E7445F2
:1034900009D1D0E919E4CEF80440C46E1CB1D0E9DA
:1034A0001CE4CEF804400468BC422ED064452CD005
:1034B00044452AD04C4528D0544526D05C4524D0DC
:1034C0003A4F9037BC4220D0B4421ED0384EB4425E
:1034D0001BD0374E1836B44217D0354E3036B44272
:1034E00013D0334E4836B4420FD0314E6036B4421A
:1034F0000BD02F4E7836B44207D02D4E9036B442C2
:1035000003D02B4EA836B4421BD190F85C4004F097
:103510001F063F24B440AC600468256825F480256C
:103520002560046863608368402B05D00368996058
:103530000068C260BDE8F08F03689A600068C160EF
:10354000F8E71C4EB4421BD01A4E1436B44217D0C2
:10355000184E2836B44213D0164E3C36B4420FD023
:10356000144E5036B4420BD0124E6436B44207D0DB
:10357000104E7836B44203D00E4E8C36B442D9D1B8
:1035800090F85C4004F01F060124B4406C600468AD
:1035900063608368402B04D0036899600068C26050
:1035A000C8E703689A600068C160C3E71000024082
:1035B0001004024008540258C1680A68521C0A608C
:1035C000C1684B689A4206D90B600121C26811722A
:1035D000C06841727047087A0128FBD10020087248
:1035E000704700000C4981610C4901620C4941623D
:1035F0000C4981620C49C1620C4901630121C26816
:103600005172C26891729621C268516040689FED04
:10361000080A80ED020A7047ED360008A13600085E
:10362000753600083536000805D70008B93500089A
:103630000000000010B50446002C18D0E068417A64
:10364000012909D0A0689FED0A0A80ED010A2046F1
:10365000BDE810400AF024B90021417220460AF06A
:10366000FFF82046BDE8104000210AF0F9B810BD6F
:103670000000000000280FD0C1684A7A012A06D055
:1036800081689FED060A81ED030A0AF009B900225C
:103690004A7200210AF0E4B8704700000000000000
:1036A00010B504462DED028B002C10D0E068417A55
:1036B00001290FD0A0689FED0C8A80ED038A80ED70
:1036C000048A20460AF0ECF8A06880ED008ABDEC80
:1036D000028B10BD002141722046BDEC028BBDE87B
:1036E00010400AF0BDB800000000000000280AD019
:1036F00081689FED050A81ED000A816881ED040A69
:10370000806880ED030A70470000000010B50DF0DE
:10371000F3FC0DF003FD0DF027FD0DF037FD0DF06E
:10372000CDFCFDF76BFAFDF7ABFABDE81040FDF7F5
:10373000E9BA0168C969C90601D511F005BF70472A
:1037400003484FF47A7102888A4200D3018070479F
:10375000240A00202DE9F0412DED028B02784178FA
:1037600041EA02228378C17841EA0325037941794D
:1037700041EA0326C179807941EA002710469FED8E
:103780001D8ADFED1D8A1021F0EE480AB0EE680AAE
:1037900012F044F9194C10EE100A20601021F0EEDE
:1037A000480AB0EE680A284612F038F910EE100AFE
:1037B000606010219FED128ADFED128A3046F0EE34
:1037C000480AB0EE680A12F029F910EE100AA0605B
:1037D0001021F0EE480AB0EE680A384612F01EF9E1
:1037E00010EE100AE060002007490880BDEC028B53
:1037F000BDE8F0810000B4430000B4C37618002097
:1038000000409C4500409CC5240A00200278C178F5
:10381000837841EA02624178090441EA03210A43BC
:103820000849C1F816200379427942EA03224A8303
:10383000C279807942EA0020888303490020088009
:103840007047000074180020240A002070B5044658
:103850002DED028B2B4D207800F00100687320784D
:10386000C0F34000A8732078C0F38000E87320788C
:10387000C0F3C00028742078C0F30010687420786A
:10388000C0F34010A8742078C0F38010E87220784C
:10389000C00928736078E874A178E07840EA0120D4
:1038A0009FED198ADFED198A1021F0EE480AB0EE7B
:1038B000680A12F0B3F810EE100A68612179607995
:1038C00040EA01201021F0EE480AB0EE680A12F03A
:1038D000A5F810EE100AA861A179E07940EA01206C
:1038E0001021DFED0B0A9FED0B0A12F097F810EE96
:1038F000100A45F8010C002007490880BDEC028B36
:1039000070BD00008718002000003443000034C35D
:10391000C3F54840C3F548C0240A00202DE9F04112
:103920002DED028B0027374EC6F80270C6F80670E0
:10393000B51C05F13A04287814F8101C01F00301B5
:10394000084314F80F1C01F0010140EA810014F84B
:103950000E1C01F0010140EAC100617B01F0010190
:1039600040EA0110A17B01F0010140EA4110617FB2
:1039700001F0010140EA8110A17F40EAC1102870E6
:10398000E17F687801F003010843E17B01F0010168
:1039900040EAC100E17A01F0010140EA0110217B17
:1039A00001F0010140EA41106870AF70A07EE8703C
:1039B000A06A9FED158ADFED158A00EE100A10202F
:1039C000B0EE481AF0EE680A10F0A6F88046E06AF9
:1039D000B0EE481A00EE100A1020F0EE680A10F05F
:1039E0009BF82F7185F80580AF71E871D1210848E7
:1039F0002A46FDF7D6F93088401C3080BDEC028B9A
:103A0000BDE8F081240A002000409C4500409CC590
:103A1000340C00202DE9F0412DED028B284C9FED58
:103A2000298ADFED298A2068B0EE481A00EE100AD4
:103A30001020F0EE680A10F06FF805466068B0EEEE
:103A4000481A00EE100A1020F0EE680A10F064F830
:103A50000646A0689FED1D8ADFED1D8A00EE100A64
:103A60001020B0EE481AF0EE680A10F055F807463C
:103A7000E068B0EE481A00EE100A1020F0EE680A76
:103A800010F04AF80246A4F12501280A08704D708A
:103A9000300A8870CE70380A08714F71100A887128
:103AA000CA710A460B48D221FDF77BF9A4F12F0118
:103AB0000888401C0880BDEC028BBDE8F081000046
:103AC000530A00200000B4430000B4C3C3F54840CB
:103AD000C3F548C0340C002070B52DED028B1C4C92
:103AE0009FED1C8ADFED1C8A2068B0EE481A00EEBC
:103AF000100A1020F0EE680A10F00EF80546606813
:103B0000B0EE481A00EE100A1020F0EE680A10F02D
:103B100003F80246A4F13A01280A08704D70100A11
:103B20008870CA702089020A0A714871B4F80B00C3
:103B3000020A8A71C8710A460848D321FDF731F993
:103B4000A4F14C010888401C0880BDEC028B70BDBC
:103B5000700A002000004842000048C2340C0020D7
:103B600010B50F48A0F1420102780A7042784A70FD
:103B700082788A70C278CA7002790A7142794A7171
:103B800082798A71C079C8710A460648D421FDF746
:103B900008F903485C380188491C018010BD000009
:103BA000800A0020340C002010B50F4AA2F11D003D
:103BB00011680B0E03700B0C43700B0A8370C170FD
:103BC00091880B0A03714171D1880A0A8271C1710F
:103BD000D52102460548FDF7E4F803483F3801883F
:103BE000491C018010BD0000630A0020340C002035
:103BF000704700000148C16A08470000C80900205A
:103C000010B54FF4806002F0A6FEBDE810404FF4FE
:103C1000805002F0A0BE10B54168406891ED090ADD
:103C20004269B5EEC00AF1EE10FA00D18AB1088AF5
:103C30000B8BC01A00B241F6FE7400F6FF73A3426C
:103C40000FD9002807DBA0F5F850FF381044486171
:103C500009E00020EFE741F6FF7318441044486183
:103C600001E010444861088A088310BD0168426879
:103C70009FED1D0ADFED1D0A0B7A118A012BB0EEB4
:103C8000001A0FD0032B1ED001EE901AF8EE611A25
:103C900081EE802A22EE200A20EE010A82ED080A37
:103CA000FCF7BABC01EE901AF8EE611A81EE802A98
:103CB00022EE200ADFED0E0A20EE010A80EE201A25
:103CC00082ED081AECE701EE901AF8EE611A81EE27
:103CD000802A22EE200ADFED070A20EE010A80EE9C
:103CE000201A82ED081ADBE700F8FF45DB0F494098
:103CF00000008A410000104272B6FEE705480168E4
:103D000041F0020101600348083801688904FCD5CC
:103D1000704700000C480258014802F065BA0000E4
:103D2000F40A0020014802F05FBA0000940B002062
:103D3000014802F059BA0000340C002030B5426B43
:103D4000036853F8844F4FF6FC718C4344EA8204B5
:103D50001C60036853F8844F058F24F47F0444EA01
:103D600005441C60836B1A44036853F8884F8C43E6
:103D700044EA82041C60036853F8884F858F24F45A
:103D8000FE0444EA05441C60C36B02EB4302036873
:103D900053F8A04F8C4344EA82041C60036853F834
:103DA000A04FB0F8405024F4FE0444EA05441C60DF
:103DB000D0E9103403FB0422036853F8B04F8C435E
:103DC00044EA82041C60036853F8B04FB0F84850CE
:103DD00024F4FE0444EA05441C60D0E9123403FBD9
:103DE0000422036853F8AC4F8C4344EA82041C60FD
:103DF000D0E9143403FB0422036853F8F04F8C43DA
:103E000044EA82041C60036853F8F04FB0F858503D
:103E100024F47C1444EA05441C60836D02EB4303E4
:103E2000026852F8C04F8C4344EA83011160016874
:103E300051F8C02FB0F85C3022F47C1242EA034201
:103E40000A60016851F8C02F90F8603022F07C526F
:103E500042EA03620A60416B224A02EB8101C166B9
:103E6000826B01EB82020267C36B02EBC302426703
:103E7000D0E91034634302EB83028267D0E9123445
:103E8000634302EB8302C267D0E91434634302EB5D
:103E90008302C0F88020836D02EBC302C0F8842047
:103EA000C46D836E5C4302EB8402C0F88820046E0C
:103EB0005C4302EB8402C0F890200B4B9A4208D975
:103EC0009830416841F020014160032101700120D8
:103ED00030BD002200E004C1D0F890308B42FAD807
:103EE000002030BD00AC0040FCD30040F0B5D1E96B
:103EF00001650C692C430D68002E1AD045F08045F1
:103F00002C4391F82070D1E9066535434E6946EAA5
:103F1000076635438E8945EA0645D0F88460806E91
:103F2000584306EB80031C605D60083300200B4E95
:103F30000FE044EA8544E4E71418155CE77845EAA5
:103F40000765A77864783F0447EA0424254320C323
:103F5000001DCC68345D8442EED8F0BDC07101080C
:103F600010B504462DED0C8BF0EE40BAB0EE60BA01
:103F70002068C16891ED078A91ED00CAD1ED028AEF
:103F8000D1ED049AD1ED05AA006990ED019A38EEC1
:103F9000690AB0EE40AA0FF0E7F820EE0BDA39EE2E
:103FA000EA0AF0EE40AA0FF04FFBDFED239A20EE75
:103FB000290ACDEE00CA38EE680AB0EE408A0FF04A
:103FC000D3F820EE2BDA3CEE680AF0EE408A0FF0D0
:103FD0003BFB20EE290A2068CDEE000A40693CEE4A
:103FE000E00A80ED040AB0EE480A0FF02DFB6BEEFC
:103FF000890A60EE20BAB0EE680A0FF025FB20EEC9
:10400000290A8BEE808AB0EE4A0A0FF01DFB6BEE98
:10401000090A60EE208AB0EE6A0A0FF015FB20EE66
:10402000290A2068C8EE800A406938EE600A80EDEF
:10403000050ABDEC0C8B10BDF6285C3E034610460D
:1040400010B5002B01D0084C0AE04FF6FF7010BDF0
:1040500013F8012B4240D2B234F8122082EA102029
:10406000491E4A1CF4D110BD286F010810B5054C3B
:1040700003E010F8013B5340E25C491E89B2F8D2DC
:10408000104610BD286E0108C06890ED040A704704
:10409000C06890ED030A704770B504462DED028BA1
:1040A0003A490868606008696061C86820614868CA
:1040B000A0608868E060D1F82500A061D1F82900EF
:1040C000891EE061324DA06EA860206E2860606E8F
:1040D0006860002295F82C006D1F002801D1C5F8FA
:1040E00011202C48C068037E012B02D0C378012B1D
:1040F00000D12A714279012A05D0C27B012A02D05F
:104100000079012801D101202871D1F812009FED1A
:10411000221B00EE100AB7EEC00A30EE410BB7EEDC
:10412000C00B84ED1D0A9FED1E8AF0EE480A0FF0C9
:1041300008FD84ED1D0A20689FED1A1A406890ED75
:10414000030A30EE410A84ED1E0AF0EE480A0FF031
:10415000F8FC84ED1E0A0FF007F8134E3068D0ED1E
:10416000010A20EE200A10EE100A45F83A0F94EDED
:104170001E0A0FF069FA3068D0ED010A20EE200A1D
:1041800010EE100A6860BDEC028B70BD761800203E
:10419000530A0020780600241D38A9603BA502C000
:1041A000DB0FC94033591A40C411002070B50446D2
:1041B0002DED028B814DE8684179002904D1C17D44
:1041C00011B90179002974D0017C9FED7D8A012904
:1041D00001D1427C12B1012947D064E094ED190A63
:1041E000DFED780A30EE200A84ED190AB7EEC01A26
:1041F000B0EEC11B9FED742BB4EEC21BF1EE10FAB2
:1042000019DDB5EEC00AF1EE10FA01DD01210AE078
:10421000F0EE400AF5EEC00AF1EE10FA02D24FF0CD
:10422000FF3100E0002100EE901AF8EEE00A00EE07
:10423000C80A84ED190A94ED1B0AD4ED100AB4EEF5
:10424000600AF1EE10FA04D194ED140A84ED1B0A11
:1042500008E094ED141AB4EE410AF1EE10FA01D11F
:10426000C4ED1B0A012141741DE0407C01281AD1D4
:104270005748D4ED190AD0F8060000EE100A30EEC7
:10428000C00AF0EE480A0FF05CFCB7EEC01AB1EEBF
:10429000042BB0EEC11BB4EEC21BF1EE10FA02D833
:1042A000E9680020087428784A4918B1012829D003
:1042B0003DE07FE00868D4ED090AB0F9081000EE8F
:1042C000101AB8EEC00A60EE800A9FED430A80EE35
:1042D000801AD4ED190A71EE200AC4ED190AB0F95A
:1042E0000A0094ED0B1A00EE900AF8EEE00A61EE77
:1042F000200A80EE801A94ED180A31EE000A84ED4F
:10430000180A14E0086894ED190AD4ED0D0A90ED2E
:10431000091A00EE810A84ED190A94ED180AD4ED09
:104320000F0A90ED0A1A00EE810A84ED180A94ED46
:10433000190AF0EE480A0FF004FC84ED190A94ED16
:104340001D0A9FED285B9FED294BB7EEC03A9FED0C
:10435000230B33EE400B20EE051B81EE040B94ED96
:10436000011AB7EEC12A30EE021B94ED180AB7EE1F
:10437000C00AB4EEC01BF1EE10FA02D2B0EE410B4F
:1043800010E09FED1C1B31EE431B21EE053B83EE3D
:10439000041B32EE411BB4EEC01BF1EE10FA01DD3E
:1043A000B0EE410BB7EEC00B84ED180A94ED050A90
:1043B00084ED1A0ABDEC028B70BD00007806002463
:1043C0000000B44300003443000000000080664059
:1043D000741800203012002400002544A0DF41FDA5
:1043E00078D9E0BF0000000000807640000000C0E7
:1043F000CA21194058EC3005EFD4D43F70B50446BB
:104400002DED028B624DE868C178007A002901D158
:10441000002878D0012807D0204600F07FF9E8680E
:10442000017C01290BD00CE05A48406B90ED030A47
:1044300084ED1B0A9FED580A84ED1A0A85E0427C40
:1044400012B101291AD058E094ED1B0AD4ED100ADC
:10445000B4EE600AF1EE10FA04D194ED140A84ED82
:104460001B0A08E094ED141AB4EE410AF1EE10FABA
:1044700001D1C4ED1B0A012141743EE0407C0128BA
:104480003BD194ED1B0A94ED101A0026DFED430A90
:104490009FED438BB4EE410AF1EE10FA13D1206880
:1044A000406890ED030A31EE400A0FF04AFBB7EE88
:1044B000C00AB0EEC00BB4EEC80BF1EE10FA1CD877
:1044C000E868067419E094ED141AB4EE410AF1EEAE
:1044D00010FA12D12068406890ED030A31EE400ACC
:1044E0000FF02FFBB7EEC00AB0EEC00BB4EEC80B56
:1044F000F1EE10FA01D8E868067428782A4918B154
:10450000012817D021E040E00868D4ED0A0AB0F98C
:104510000A0000EE100AB8EEC00A20EE800ADFEDB5
:10452000230A80EE201A94ED1A0A30EE410A84ED37
:104530001A0A0AE0086894ED1A0AD4ED0E0A90ED02
:104540000A1A00EEC10A84ED1A0A94ED1A0A1849F3
:1045500010EE100A884202D29FED160B09E010EE11
:10456000100A1649884202D99FED150B01E0B7EEFB
:10457000C00AB7EEC00B84ED1A0A94ED020A84ED6E
:10458000190A94ED010A84ED180ABDEC028B70BD86
:104590007806002440070024DB2915C0DB0FC94042
:1045A000000000601857B63F301200240000254478
:1045B000EC5400C0921A03809D0A00C0CDDC36C0C6
:1045C00005B0F99F99DB06C010B504464E48C07887
:1045D000002850D04D48C068C178012952D00179D7
:1045E000012905D04179012902D0C07B012841D1A0
:1045F000206894ED190A006980ED480A206894ED5E
:10460000020A006980ED490A20680069D0ED480A75
:1046100030EEC00A80ED4A0ADFED3D0A0FF091FA54
:104620002068006980ED4A0A2068006900F59070F2
:1046300010F0E4FD2068006990ED520A80ED300A28
:10464000206894ED030A006980ED310A2068006952
:10465000D0ED300A30EEC00A80ED320A20680069E1
:10466000C03010F0CBFD20680169806891ED3A0AF6
:1046700080ED000A10BD20689FED260A806880ED5D
:10468000000A10BD206894ED1B0A006980ED180A2D
:1046900020684168006991ED030A80ED190A2068DD
:1046A0000069D0ED180A30EEC00A80ED1A0ADFED7D
:1046B0001A0A0FF046FA2068006980ED1A0A20688D
:1046C0000069603010F09AFD2068006990ED220AC0
:1046D00080ED000A206894ED030A006980ED010A6C
:1046E00020680069D0ED000A30EEC00A80ED020AB1
:1046F0002068006910F082FD20680169806891EDF2
:104700000A0A80ED000A10BD4E0A00207806002437
:104710000000B44300000000DB0FC9401D494A7887
:10472000002A35D19FED1C0A80ED1B0A1C4B1B4A49
:10473000C3F80D20D0ED020AC0ED190AD0ED010A30
:10474000C0ED180A00684068D0ED030A30EE600A38
:10475000B7EEC00AB0EEC01B9FED120BB4EEC01B4B
:10476000F1EE10FA14D811489FED112BD0F8120079
:1047700001EE100AB7EEC11A32EE411BB0EEC11BBA
:10478000B4EEC01BF1EE10FA02D8C96801204876D9
:10479000704700007806002433591A40DB2915C001
:1047A0004E0A002000000040E17A943F7418002077
:1047B0001D38A9603BA502C010B504460D48C1785C
:1047C0002068002903D0016ABDE8104008479FED2A
:1047D0000A0A84ED1B0A9FED090A84ED1A0A9FED6F
:1047E000080A84ED180A816988472068016ABDE8D3
:1047F000104008474E0A002033591A40DB2915C0E3
:104800000000000010B504462046FFF745FC204696
:10481000FFF7F4FD2046FFF7C9FC20460CF068FEC8
:104820002046FFF7D1FE2046BDE81040FFF7C4BF89
:1048300010B50446002154F8210048B102685278AE
:104840005206120E806800892244030A13745074C1
:10485000491CC9B20429EED3D4E9061004F11002B0
:10486000FCF79FFA00202061606110BD10B504467E
:104870002068002801D0016B8847606808B1016B8F
:104880008847A06808B1016B8847E068002803D01A
:10489000016BBDE81040084710BD70B50546002407
:1048A00055F8240008B1016B8847641CE4B2042C5D
:1048B000F6D370BD30B503460024144D18680028A7
:1048C00004D045611868FEF78DFE0124586828B1B0
:1048D00045615868FEF786FE641CE4B2986828B10A
:1048E00045619868FEF77EFE641CE4B2D86828B182
:1048F0004561D868FEF776FE641CE4B21C74044877
:104900005861044818620448986130BDE5350008D4
:104910001D4900086D4800088D49000870B505461E
:10492000084C207855F82000002804D0016A8847F8
:104930002078401C2070287C2178884201D80020F3
:10494000207070BDA60A002070B50546002455F8F9
:10495000240068B10168497849060E0E0BF0F2FD9B
:1049600055F8240080680089020AA9190A7448745D
:10497000641CE4B2042CEAD3D5E9061005F1100258
:10498000FCF70FFA00202861686170BD10B504467D
:104990002068002801D081698847606808B1816972
:1049A0008847A06808B181698847E068002803D07B
:1049B0008169BDE81040084710BD000000219FED4F
:1049C000060A50F8212012B1926882ED000A491CB3
:1049D000C9B20429F5D37047000000002DE9F84F53
:1049E000044602F0D7F800905CB194F83500022834
:1049F00009D080206065002084F834000120BDE8E3
:104A0000F88F0120FBE7D14ED04FD0491836DFF8A0
:104A10003C833037DFF83493DFF830A308F14808DF
:104A2000DFF828B309F1600920680AF1780A0BF170
:104A3000900B88422ED0B0422CD0B8422AD04045AC
:104A400028D0484526D0504524D0584522D0BF4ACA
:104A5000A83290421ED0BE4A90421BD0BC4A1832A7
:104A6000904217D0BA4A3032904213D0B84A4832F6
:104A700090420FD0B64A603290420BD0B44A78329E
:104A8000904207D0B24A9032904203D0B04AA83246
:104A900090420AD1026822F01E0202602068426938
:104AA00022F080024261256804E0026822F00E02D2
:104AB00002602568206888424DD0B0424BD0B84291
:104AC00049D0404547D0484545D0504543D058454A
:104AD00041D09E4AA83290423DD09D4A90423AD061
:104AE0009B4A1832904236D0994A3032904232D0A6
:104AF000974A483290422ED0954A603290422AD04E
:104B0000934A7832904226D0914A9032904222D0F5
:104B10008F4AA83290421ED08E4A90421BD08D4AB6
:104B20001432904217D08B4A2832904213D0894ACF
:104B30003C3290420FD0874A503290420BD0854A87
:104B40006432904207D0834A7832904203D0814A3F
:104B50008C32904204D1206E026822F4807202608E
:104B60007A49206888422ED0B0422CD0B8422AD050
:104B7000404528D0484526D0504524D0584522D01D
:104B80007249A83188421ED0714988421BD07049B1
:104B90001831884217D06E493031884213D06C49A1
:104BA000483188420FD06A49603188420BD0684949
:104BB0007831884207D066499031884203D06449F1
:104BC000A831884204D1016821F00101016013E09D
:104BD000016821F0010101600EE001F0DBFF0099A6
:104BE000401A052808D92020343420620320607040
:104BF00000202070012002E72868C007EDD1534A49
:104C00000121206890422ED0B0422CD0B8422AD048
:104C1000404528D0484526D0504524D0584522D07C
:104C20004A4BA83398421ED0494B98421BD0484B60
:104C30001833984217D0464B3033984213D0444B28
:104C4000483398420FD0424B603398420BD0404BD0
:104C50007833984207D03E4B9033984203D03C4B78
:104C6000A833984208D1A06D94F85C3003F01F057A
:104C70003F23AB40836007E0A06D94F85C3003F005
:104C80001F0301FA03F34360206890424DD0B04205
:104C90004BD0B84249D0404547D0484545D0504513
:104CA00043D0584541D0294AA83290423DD0284AA5
:104CB00090423AD0264A1832904236D0244A3032B6
:104CC000904232D0224A483290422ED0204A60325E
:104CD00090422AD01E4A7832904226D01C4A903206
:104CE000904222D01A4AA83290421ED0194A9042CD
:104CF0001BD0184A1432904217D0164A28329042DC
:104D000013D0144A3C3290420FD0124A5032904293
:104D10000BD0104A6432904207D00E4A783290424B
:104D200003D00C4A8C3290420BD1D4E91920506048
:104D3000E06E30B1026822F480720260D4E91C2077
:104D40005060343461700020207058E6100002403A
:104D500010040240085402582DE9F05F002808D0E2
:104D600090F83510022906D0802141650120BDE868
:104D7000F09F0120FBE7A14AA04BA04C18329F4DA9
:104D800030339E4E4834DFF874B26035DFF870C2BD
:104D90007836DFF86C82DFF868920CF1300CDFF8BF
:104DA00060A208F16008016809F17809944F0AF1DE
:104DB000900A594531D091422FD099422DD0A1422D
:104DC0002BD0A94229D0B14227D0DFF830E20EF132
:104DD000900E714521D0DFF824E20EF1A80E714546
:104DE0001BD0DFF81CE2AEF1180E714515D0B942A8
:104DF00013D0DFF80CE20EF1180E71450DD06145AD
:104E00000BD0DFF8FCE10EF1480E714505D04145AD
:104E100003D0494501D0514537D14FF0040E80F8F9
:104E200035E0594527D0914225D0994223D0A1425F
:104E300021D0A9421FD0B1421DD07048903081428C
:104E400019D06E48A830814215D06D48183881427B
:104E500011D0B9420FD06A48183081420BD0614559
:104E600009D067484830814205D0414503D04945C3
:104E700001D0514504D1086820F001000860BAE073
:104E8000086820F001000860B5E0D1F800E02EF0DD
:104E90000E0EC1F800E00168DE46594531D091425E
:104EA0002FD099422DD0A1422BD0A94229D0B14276
:104EB00027D0DFF848B10BF1900B594521D0DFF82E
:104EC0003CB10BF1A80B59451BD0DFF834B1ABF165
:104ED000180B594515D0B94213D0DFF824B10BF1A6
:104EE000180B59450DD061450BD0DFF814B10BF10B
:104EF000480B594505D0414503D0494501D051459E
:104F000006D1D1F800B02BF0010BC1F800B005E0DC
:104F1000D1F800B02BF0010BC1F800B001684FF0E0
:104F2000010B714546D0914244D0994242D0A142F2
:104F300040D0A9423ED0B1423CD0304A903291425A
:104F400038D02E4AA832914234D02D4A183A914294
:104F500030D0B9422ED02A4A183291422AD0614527
:104F600028D0274A4832914224D0414522D0494591
:104F700020D051451ED0234A91421BD0214A1432E1
:104F8000914217D01F4A2832914213D01D4A3C3219
:104F900091420FD01B4A503291420BD0194A6432D1
:104FA000914207D0174A7832914203D0154A8C3289
:104FB000914218D1016E0A6822F480720A60816DF4
:104FC00090F85C2002F01F020BFA02F24A60D0E96E
:104FD00019215160C16E31B10A6822F480720A60F1
:104FE000D0E91C21516080F835B0002180F83410E0
:104FF000016D01B188470020B9E6000010000240B1
:1050000028040240085402582DE9FF5F044600209E
:1050100001904FF41651FD480068B0FBF1F000908C
:10502000A56D2E682968FA4FDFF8E4B3DFF8E08356
:10503000DFF8DC930BF1180BDFF8D4A308F130088C
:10504000206809F148090AF1600AB8423BD05A4683
:10505000904238D0404536D0484534D0504532D0C3
:10506000EB4A783290422ED0E94A903290422AD0D0
:10507000E74AA832904226D0E64A904223D0E54A39
:10508000183290421FD0E34B303398421BD0E14B93
:105090004833984217D0DFF87CC30CF1600C6045B0
:1050A00011D0DFF870C30CF1780C60450BD0DFF83D
:1050B00064C30CF1900C604505D0DFF858E30EF1A5
:1050C000A80E70457ED194F85C10082301F01F01F2
:1050D00003FA01F232424BD0B84232D0584530D0B8
:1050E00040452ED048452CD050452AD0C84978316B
:1050F000884226D0C6499031884222D0C449A8317E
:1051000088421ED0C34988421BD0C2491831884208
:1051100017D0C0493031884213D0BE494831884247
:105120000FD0BC49603188420BD0BA4978318842EF
:1051300007D0B8499031884203D0B649A831884297
:1051400003D1016801F0040102E0016801F00801E7
:1051500071B1016821F00401016094F85C0000F075
:105160001F0003FA00F2AA60606D40F00100606564
:1051700094F85C00012100F01F008140314240D0D2
:105180002068B84234D0584532D0404530D04845E8
:105190002ED050452CD09E4A7832904228D09C4A3E
:1051A0009032904224D09A4AA832904220D0994A14
:1051B00090421DD0974A1832904219D0954A303209
:1051C000904200E0D2E113D0924A483290420FD090
:1051D000904A603290420BD08E4A7832904207D08B
:1051E0008C4A9032904203D08A4AA83290427DD1B4
:1051F000406910F0800F04D0A960606D40F002009B
:10520000606594F85C00042100F01F008140314289
:105210003ED02068B84232D0584530D040452ED0DC
:1052200048452CD050452AD0794A7832904226D031
:10523000774A9032904222D0754AA83290421ED0CE
:10524000744A90421BD0734A1832904217D0714A68
:105250003032904213D06F4A483290420FD06D4A9C
:10526000603290420BD06B4A7832904207D0694A44
:105270009032904203D0674AA83290424ED10068E3
:1052800010F0020F04D0A960606D40F0040060656A
:1052900094F85C00102100F01F008140314260D082
:1052A0002068B84234D0584532D0404530D04845C7
:1052B0002ED050452CD0564A7832904228D0544AAD
:1052C0009032904224D0524AA832904220D0514A83
:1052D00090421DD04F4A1832904219D04D4A303278
:1052E000904215D04B4A4832904200E014E00FD073
:1052F000484A603290420BD0464A7832904207D0FA
:10530000444A9032904203D0424AA832904207D198
:10531000006800F0080006E0006872E70068B7E780
:10532000006800F0040058B1A960206801684903D2
:105330000CD50068000304D4216C09B120468847CD
:105340000FE0A16C69B1204688470AE00168C905F1
:1053500003D4016821F008010160216C09B12046E5
:10536000884794F85C00202100F01F008140314202
:105370007BD02068B84232D0584530D040452ED03E
:1053800048452CD050452AD0214A7832904226D028
:105390001F4A9032904222D01D4AA83290421ED01D
:1053A0001C4A90421BD01B4A1832904217D0194A0F
:1053B0003032904213D0174A483290420FD0154AEB
:1053C000603290420BD0134A7832904207D0114A93
:1053D0009032904203D00F4AA832904203D1006825
:1053E00000F0100002E0006800F00200E8B3A960DD
:1053F00094F83500042812D02068016849033DD58F
:105400000068000335D4616C79B305E0B013002463
:105410001000024010040240204688473FE0206808
:10542000016821F0160101602068416921F08001C6
:105430004161206C08B9A06C20B12068016821F09E
:105440000801016094F85C0000F01F013F208840D3
:10545000A860012084F83500002084F83400216D14
:10546000002974D004B0204600E018E0BDE8F05FE9
:105470000847E16B99B12046884710E00168C905EB
:1054800009D4016821F010010160012084F8350081
:10549000002084F83400E16B09B120468847606D34
:1054A000002854D0606DC00758D0042084F835001F
:1054B0002068B84231D058452FD040452DD04845BE
:1054C0002BD0504529D0B749884226D0B54918314C
:1054D000884222D0B349303188421ED0B249884236
:1054E0001BD0B1491831884217D0AF4930318842BA
:1054F00013D0AD49483188420FD0AB496031884262
:105500000BD0A9497831884207D0A7499031884209
:1055100003D0A549A831884204D1016821F00101D6
:10552000016003E0016821F0010101602168019838
:10553000009A401C0190904202D80868C007F6D13A
:105540000868C00704D0032084F8350003E087E032
:10555000012084F83500002084F83400E16C002933
:105560007ED004B02046BDE8F05F08478F4EB042C1
:105570001BD08E4E1436B04217D08C4E2836B04217
:1055800013D08A4E3C36B0420FD0884E5036B042CF
:105590000BD0864E6436B04207D0844E7836B04287
:1055A00003D0824E8C36B0425AD106684FF0040EBA
:1055B00094F85CB00BF01F0B0EFA0BFE1EEA010F05
:1055C000CDF80CE05ED05FEA467E5BD5039868605C
:1055D000300411D5F00307D4A16C002940D004B0E9
:1055E0002046BDE8F05F0847216C002938D004B0A0
:1055F0002046BDE8F05F0847B0063BD42068B842BB
:105600002DD068496039884229D0404527D0484587
:1056100025D0504523D06349884220D061491831B4
:1056200088421CD05F493031884218D05E49884298
:1056300015D0904213D05C49303188420FD0984247
:105640000DD059496031884209D057497831884294
:1056500005D0604503D05449A831884206D100E006
:105660007CE0016821F00801016003E0016821F09D
:1056700004010160216C002970D004B02046BDE80F
:10568000F05F08474FF0020E0EFA0BFE1EEA010F04
:10569000CDF808E063D05FEA867E60D50298686046
:1056A000300411D5F00307D4616C002978D004B020
:1056B0002046BDE8F05F0847E16B002970D004B0D8
:1056C0002046BDE8F05F0847B0063FD42068B842E6
:1056D0002DD034496039884229D0404527D04845EB
:1056E00025D0504523D02F49884220D02D4918314C
:1056F00088421CD02B493031884218D02A49884230
:1057000015D0904213D02849303188420FD09842AA
:105710000DD025496031884209D02349783188422B
:1057200005D0604503D02049A831884204D10168E2
:1057300021F01401016003E0016821F00A01016019
:10574000012084F83500002084F83400E16B002942
:1057500026D004B02046BDE8F05F084720E00822CC
:1057600002FA0BF20A421BD0310719D5016821F069
:105770000E01016094F85C0000F01F01012000FAA6
:1057800001F16960606584F83500002084F8340018
:10579000E16C002904D004B02046BDE8F05F084762
:1057A000BDE8FF9F880002401004024008540258E0
:1057B0002DE9F05F044601F0EDF90646002C7DD09E
:1057C000F24F0222DFF8C4830025DFF8C093DFF830
:1057D000BCA308F13008DFF8B4B309F14809206828
:1057E0000AF1600A0BF1780BB84232D0E749183160
:1057F00088422ED040452CD048452AD0504528D04C
:10580000584526D0E1499031884222D0DF49A8315D
:1058100088421ED0DE4988421BD0DD4918318842BB
:1058200017D0DB493031884213D0D94948318842FA
:105830000FD0D749603188420BD0D54978318842A2
:1058400007D0D3499031884203D0D149A83188424A
:105850007ED184F8352084F83450B84234D0CB4916
:105860001831884230D040452ED048452CD0504584
:105870002AD0584528D0C5499031884224D0C34900
:10588000A831884220D0C24988421DD0C049183171
:10589000884219D0BE493031884215D0BC494831C0
:1058A000884211D0BA49603188420DD0B849783168
:1058B000884209D0B6499031884200E009E003D01F
:1058C000B349A831884207D1016821F00101016084
:1058D00013E00120BDE8F09F016821F001010160A3
:1058E0000BE001F057F9801B052806D920206065E0
:1058F000032084F835000120ECE720680068C00729
:10590000EFD122681168A3480140D4E9020318438B
:10591000D4E9043633431843A3691843E3691843B1
:10592000236A18430843616A042903D1D4E90B139D
:10593000194308436168A1F12903052B0DD9163BD2
:10594000032B0AD9083B012B07D9083B032B00E0A6
:105950002AE002D97439032901D840F4801010607C
:105960002068406920F00701606A40EA01060428C7
:105970000DD1A06A0643E06A48B12046FDF7C2FC9B
:1059800028B140206065012084F83500A2E7206836
:1059900046612046FDF7C8FB94F85C1001F01F0239
:1059A0003F219140816066E07B4988421BD07A4B61
:1059B0001433984217D0784B2833984213D0764B43
:1059C0003C3398420FD0744B503398420BD0724BFB
:1059D0006433984207D0704B7833984203D06E4BB3
:1059E0008C3398427ED1884211D06B491431884261
:1059F0000DD069492831884209D067493C31884235
:105A000005D065495031884201D06349643184F83A
:105A1000352084F83450026860490A40A168402962
:105A20007ED080297DD00021E36841EAD30123693B
:105A300041EAD301636941EAD301A36941EAD30191
:105A4000E36941EAD301236A41EA1311114301607A
:105A500051492068494208441421B0FBF1F080000C
:105A6000E0652046FDF760FB94F85C1001F01F0232
:105A70000121914041602068B84256D04349183115
:105A8000884252D0404550D048454ED050454CD029
:105A900058454AD03D499031884246D03B49A831CB
:105AA000884242D03A4988423FD039491831884229
:105AB0003BD037493031884237D035494831884268
:105AC00033D03349603188422FD031497831884210
:105AD0002BD02F499031884227D02D49A8318842B8
