:020000040800F2
:100000001807002029020008331B0008C119000846
:10001000311B00081F040008511E000800000000EA
:10002000000000000000000000000000371B000876
:10003000C904000800000000351B0008391B000837
:10004000430200084302000843020008430200087C
:10005000430200084302000843020008430200086C
:10006000430200084302000843020008430200085C
:10007000430200084302000843020008430200084C
:10008000430200084302000843020008430200083C
:10009000210400082D040008430200084302000860
:1000A000430200084302000843020008430200081C
:1000B000430200084302000843020008430200080C
:1000C00043020008430200084302000843020008FC
:1000D00043020008451E00084302000843020008CE
:1000E00043020008430200084302000843020008DC
:1000F00043020008430200084302000843020008CC
:1001000043020008430200084302000843020008BB
:1001100043020008430200084302000843020008AB
:10012000430200084302000843020008430200089B
:10013000430200084302000843020008430200088B
:10014000430200084302000843020008430200087B
:10015000430200084302000843020008430200086B
:10016000430200084302000843020008430200085B
:100170004302000843020008430200080000000098
:10018000430200084302000800F002F800F03CF8C7
:100190000AA090E8000C82448344AAF10107DA45E2
:1001A00001D100F031F8AFF2090EBAE80F0013F0F8
:1001B000010F18BFFB1A43F001031847801D000010
:1001C000A01D0000103A24BF78C878C1FAD85207A1
:1001D00024BF30C830C144BF04680C6070470000C1
:1001E0000023002400250026103A28BF78C1FBD840
:1001F000520728BF30C148BF0B6070471FB501F0E0
:1002000087FE1FBD10B510BD00F0CFF81146FFF7F7
:10021000F5FF01F03FFE00F0EDF803B4FFF7F2FF49
:1002200003BC00F0F5F80000094880470948004782
:10023000FEE7FEE7FEE7FEE7FEE7FEE7FEE7FEE796
:10024000FEE7FEE704480549054A064B70470000F3
:10025000D11B0008890100081801002018070020A0
:10026000180300201803002053EA020C00F06980F4
:100270002DE9F04B4FF00006002B1FBFB3FA83F5BA
:1002800003FA05F424FA05F65E4012BF1643B2FAEB
:1002900082F502FA05F4C5F120051EBF22FA05FC1D
:1002A00044EA0C04203556EA044C4FEA144418BFC3
:1002B000641C4FF000084FF00009904271EB030CF2
:1002C00039D3002919BFB1FA81F701FA07F6B0FA5C
:1002D00080F700FA07F6C7F120071EBF20FA07FCD7
:1002E00046EA0C062037B6FBF4FCA7EB0507103FE7
:1002F00007F01F0BCBF120060CFA0BFB2CFA06F6CD
:1003000044BFB3460026202FA4BF5E464FF0000B2B
:100310005BEA060C08BF4FF0010B19EB0B09ABFBB6
:10032000027C48EB0608C01B06FB02CC0BFB03CC8F
:1003300071EB0C01C1E70B46024641464846BDE859
:10034000F08B13B54FF000004FF00001AFF30080C9
:10035000BDE81C4070474FF0000200B513469446BC
:100360009646203922BFA0E80C50A0E80C50B1F10D
:100370002001BFF4F7AF090728BFA0E80C5048BF21
:100380000CC05DF804EB890028BF40F8042B08BFBF
:10039000704748BF20F8022B11F0804F18BF00F8BB
:1003A000012B7047704770477047754600F02CF876
:1003B000AE4605006946534620F00700854618B052
:1003C00020B5FFF73FFFBDE820404FF000064FF09B
:1003D00000074FF000084FF0000B21F00701AC467A
:1003E000ACE8C009ACE8C009ACE8C009ACE8C00999
:1003F0008D46704710B50446AFF300802046BDE837
:100400001040FFF70ABF000000487047B800002006
:1004100001491820ABBEFEE7260002007047FEE748
:10042000014800F0DCB9000020000020014800F085
:10043000D6B900002000002000B58BB000200121BB
:100440000190029008910590CDE90601049000907A
:1004500003900E2009906946024800F0A9F80BB0FD
:1004600000BD00002000002010B5044800F09EFBF5
:10047000BDE810400221014800F029B8200000200A
:1004800010B588B00C4604920022009001920292AE
:1004900003928DF814200A4800F08BF90028FAD056
:1004A00006AB22466946064800F023F8002804D12E
:1004B00064220221034801F088FA08B010BD000050
:1004C00020000020A4000020704772B6FEE790F8DC
:1004D0002020012A07D0022A05D0416A41F4802158
:1004E000416201207047006842690A43426100206E
:1004F0007047F0B590F820500468A468012D05D02D
:10050000022D03D0416A41F480214DE014F0406F88
:1005100001D1E50045D5C4F301640125A5401D6066
:100520008D684FF4C0739DB1CE6835434E6845EA7F
:10053000C605066803EB0417F5514FF4C27507684A
:1005400005EB04150E697E51097D012905D009E0EE
:100550000E88CD6845EA4655EBE701684E5946F4EA
:1005600080764E511179D2F805504FF4C67641EAA3
:100570000521056806EB0416A9511178D2F801206F
:100580004FF4C47541EA0221026805EB041551518C
:10059000006803EB0411425842F00102425000206F
:1005A000F0BD416A41F4001141620120F0BD00003C
:1005B00010B590F82020012A07D0022A05D0416A00
:1005C00041F480214162012010BD3B48D0F8002257
:1005D00042F00102C0F80022D0F8002222F47C523E
:1005E000C0F80022D0F800224B6A42EA0322C0F889
:1005F00000220A7D02F01F0301229A40D0F81C322B
:100600009343C0F81C32CB69B3B9D0F80C32934392
:10061000C0F80C328C894B6864F31F434C6900EBC3
:10062000C404C4F840320C890B6864F31F434C695E
:1006300000EBC404C4F84432CB69012B16D1D0F8C6
:100640000C321343C0F80C320C884B6864F31F4320
:100650004C6900EBC404C4F840320C89CB6864F3E5
:100660001F434C6900EBC404C4F844328B69002B6F
:10067000D0F804320ED01343C0F804320B69002BBB
:10068000D0F8143208D01343C0F81432096A012993
:1006900004D008E09343EFE79343F5E7D0F81C124A
:1006A0001143C0F81C12D0F8001221F00101C0F86B
:1006B0000012002010BD000000640040704770B5BB
:1006C00090F82040012C05D0022C03D0416A41F45F
:1006D000802128E0046809B32469A40720D04FF4DE
:1006E000D874056804EB01142D5915F004059560C4
:1006F00005682D591AD0ED08556005682C5904F08D
:100700000204D4604FF4DA74056804EB01142E5926
:1007100006F00F06082E0CD308250DE0E468DCE790
:10072000416A41F400114162012070BD6D0D1560F8
:10073000E3E72D5905F00F05156105682D59C5F33F
:100740000725956105682C59240C54614FF4DC721F
:10075000046802EB0112A4581C700468A458240A0F
:100760005C700468A458240C9C700468A258120E93
:10077000DA704FF4DE72046802EB0112A4581C71A7
:100780000468A458240A5C710468A458240C9C7161
:100790000468A258120EDA71006829B1016941F0AB
:1007A00020010161002070BDC16841F02001C160DD
:1007B000F8E70246002092F82010012901D0022912
:1007C0000CD111688A68520100D501208A68120193
:1007D00000D5401C8968C90000D5401C70472DE930
:1007E000F05F0546006800244669D0F804908768E9
:1007F000D0F80CB0D0F810A0D0F81880F10748D08D
:10080000F90714D001218160B80703D5284600F00C
:10081000FAF90CE0780702D54FF4006407E03807D6
:1008200002D54FF4805402E0284600F0EBF9F805B9
:1008300016D529684FF480708860B80503D528461E
:1008400000F0E3F90CE0780502D544F4005407E029
:10085000380502D544F4804402E0284600F0D4F97B
:10086000F80316D529684FF480308860B80303D5A3
:10087000284600F0CCF90CE0780302D544F400449B
:1008800007E0380302D544F4803402E0284600F043
:10089000BDF9300707D55FEACB6004D52968102081
:1008A00044F40074C86070074FF0080707D55FEA8A
:1008B0000B7004D52868C760284600F05FF9B007C0
:1008C00006D52868C068800702D0284600F058F98D
:1008D000700607D55FEACA6004D52968102044F481
:1008E00080640861B00607D55FEA0A7004D52868FD
:1008F0000761284600F056F9F00606D52868006919
:10090000800702D0284600F04EF9B00308D55FEA10
:10091000C96005D5296810204860284600F044F9D0
:10092000F00307D55FEA097004D5286847602846B8
:1009300000F06EF9300446D55FEA497040D5F00505
:1009400004D55FEAC87001D044F00104B00504D5B5
:100950005FEA887001D544F00204700504D55FEAAF
:10096000487001D544F00404300529D518F0700F03
:1009700026D008F07000402815D006DC102809D0D9
:1009800020280AD0302816D10AE050280ED060283E
:1009900011D10EE044F008040DE044F010040AE028
:1009A00044F0200407E044F0400404E044F08004F4
:1009B00001E044F480742868816921F0700181614C
:1009C000296804204860002C05D0686A20436862CA
:1009D0002846FFF773FEBDE8F09F70B5040003D012
:1009E00094F8200010B104E0012070BD204600F012
:1009F00081F82068016841F00101016000F06AFAA5
:100A00000546052604E000F065FA401B0A2811D8C7
:100A100020684068C007F6D02068016821F0020114
:100A2000016000F057FA05460BE000F053FA401B56
:100A30000A2806D9606A40F40030606284F82060B9
:100A4000D2E7206840688007EFD4207E0128206824
:100A500001683DD021F080010160607E012820689E
:100A6000016838D021F040010160A07E0128206893
:100A7000016833D021F020010160E07E0128206868
:100A800001682ED041F010010160207F012820680C
:100A9000016829D021F008010160607F01282068E9
:100AA000016824D021F004010160D4E90201084367
:100AB000D4E90412114308436168491E08432168C0
:100AC000C86100206062012084F82000002070BD11
:100AD00041F08001C0E741F04001C5E741F020014D
:100AE000CAE721F01001CFE741F00801D4E741F057
:100AF0000401D9E710B586B0044614216846FFF713
:100B00002AFC1B49206888422FD11A48002102681C
:100B100042F000720260006800F000700590154815
:100B20001038026842F0080202600068022200F0F9
:100B3000080005900320CDE90210CDE9000209204C
:100B4000049069460C4800F0BFF8002211461420BA
:100B500000F02EFA142000F01DFA00221146152094
:100B600000F026FA152000F015FA06B010BD0000BE
:100B70000064004040380240000C02407047000012
:100B800010B504468AB00648FFF713FE002805D0CA
:100B900007AB6A4600212046FFF791FD0AB010BD61
:100BA00020000020704770477047000070B5044671
:100BB00090F82000012804D0606A40F400206062B0
:100BC00018E0022084F820002068016821F001016B
:100BD000016000F07FF905460EE000BF00F07AF9F1
:100BE000401B0A2808D9606A40F400306062052082
:100BF00084F82000012070BD20684068C007EDD156
:100C0000606270BD704770477047704770477047AB
:100C100070472DE9F0410446876D00F05BF9064608
:100C200094F835000025022806D08020606584F8FD
:100C300034500120BDE8F0812068016821F01601E0
:100C400001602068416921F080014161206C08B990
:100C5000A06C20B12068016821F0080101602068C3
:100C6000016821F0010101600CE000F033F9801B04
:100C7000052807D920206065032084F8350084F812
:100C80003450D7E720680068C007EED194F85C10B4
:100C90003F208840B860012084F8350084F8345043
:100CA0000020C7E790F83510022903D08021416564
:100CB00001207047052180F835100068016821F097
:100CC00001010160002070472DE9F84FDFF8BCA159
:100CD0000022012503264FF00F090AF1040BAAF1A7
:100CE000040E00BF0B6805FA02F42340A34270D142
:100CF0000F7907F00307012F01D0022F16D1876863
:100D00004FEA420806FA08FC27EA0C07D1F80CC0A3
:100D10000CFA08FC4CEA070CC0F808C04768A74367
:100D20000C79C4F3001494403C4344600C79E443D0
:100D3000A4070AD0C4684FEA420C06FA0CF7BC4379
:100D40008F6807FA0CF72743C7600C7904F0030497
:100D5000022C12D1D40800EB840CDCF82040570799
:100D6000FF0E09FA07F824EA0804D1F8108008FAFF
:100D700007F848EA0408CCF8208004684FEA420CDF
:100D800006FA0CF7BC430F7907F0030707FA0CF7D4
:100D9000274307604C6814F4403F70D03C4C2768F0
:100DA00047F480472760246822F0030704F4804456
:100DB0000094384C07EB040CDCF8084897074FEA1E
:100DC000177809FA08F7BC43334FB84202D100271D
:100DD00024E054E0314FB84201D101271EE0304FEA
:100DE000B84201D1022719E02E4FB84201D10327A2
:100DF00014E02D4FB84201D104270FE02B4FB84229
:100E000001D105270AE02A4FB84201D1062705E0A3
:100E1000284FB84201D1072700E0082707FA08F752
:100E20002743CCF80878DAF800405746D1F804C0D8
:100E30009C435FEACC2C00D51C433C60DBF80040AF
:100E40005F46D1F804C09C435FEA8C2C00D51C435C
:100E50003C60DEF800407746D1F804C09C435FEA6E
:100E60008C3C00D51C433C60084F083F3C68D1F8DF
:100E700004C09C435FEACC3C00D51C433C60521C40
:100E8000102AFFF42FAFBDE8F88F0000083C0140A6
:100E9000443802400030014000000240000402409B
:100EA00000080240000C0240001002400014024002
:100EB00000180240001C0240426921EA02030A4075
:100EC00043EA0241816170470AB1816170470904B8
:100ED000FBE7000001488068704700000000002028
:100EE0000248816802781144816070470000002048
:100EF0000B4810B5016841F400710160016841F4CC
:100F000080610160016841F480710160032000F09C
:100F10006FF80F2000F006F800F024F8002010BD54
:100F2000003C024070B50D4D04464FF47A712878AC
:100F3000B1FBF0F00A490968B1FBF0F000F00CFBDE
:100F400048B9102C07D200222146501E00F030F87C
:100F500000206C6070BD012070BD0000000000200A
:100F60000C0000200A4808B5016841F48041016086
:100F7000006800F4804000900548001F016841F0BF
:100F800080510160006800F08050009008BD0000B2
:100F900044380240002809DB00F01F020121914083
:100FA0004009800000F1E020C0F800117047000007
:100FB000F0B40E4B1B680C46C3F30223C3F10705C4
:100FC000042D00D90425191D072901D2002300E0B2
:100FD000DB1E012606FA05F1491E214099409E407C
:100FE000761E16403143F0BC00F044BF0CED00E02B
:100FF000064900F0070208684FF6FF03184040EA70
:101000000220034A10430860704700000CED00E026
:101010000000FA052DE9F0470E46050065D0DFF81F
:101020001481D8F80000F7B200F00700B04207D2F0
:1010300088F80070D8F8000000F00700B04254D1E2
:1010400028683D4C810712D5400703D5206840F43D
:10105000E05020602878000703D5206840F4604005
:1010600020602068A96820F0F000084320602878FC
:10107000C0072DD0304968680839012812D00228ED
:1010800013D0032811D00968890700292DDA2168B7
:1010900021F0030101432160FFF71CFF814641F26B
:1010A000883A0EE009688903EFE709688901ECE7EF
:1010B000FFF710FFA0EB0901514502D90320BDE85D
:1010C000F0872068696800F00C00B0EB810FEFD169
:1010D000D8F80010404601F00701B14207D9077067
:1010E000006800F00700B04201D00120E7E728784F
:1010F000400705D52068E96820F4E05008432060E7
:101100002878000706D52068296920F4604040EA65
:10111000C100206000F038F82168084AC1F30311CB
:10112000515CC8400649086006480068FFF7FAFEAF
:101130000020C4E7003C024008380240241F000899
:101140000C000020040000200448054900680968DC
:10115000044AC1F38221515CC84070470C00002052
:1011600008380240341F000804480549006809682F
:10117000044AC1F34231515CC84070470C00002062
:1011800008380240341F0008154810B5006810F0F8
:101190000C02144813D01449042A0FD0082A0ED187
:1011A0000F4C241F2268236802F03F025B0207D520
:1011B0002068C0F38810A0FB010106E0084610BDBE
:1011C0002168C1F38811A1FB00010023FFF74CF84F
:1011D0002168C1F30141491C4900B0FBF1F010BD89
:1011E000083802400024F400001BB7002DE9F84F36
:1011F00004006ED02078DFF84C93C007A9F10405F5
:101200004AD009F104000168C1F38101012908D025
:101210000068C0F3810002280AD1D9F8000040021A
:1012200006D52868800337D560680028E1D033E010
:101230006068B0F5803F10D0B0F5A02F286810D0BE
:1012400020F480302860286820F4802028606068BE
:10125000A8B1FFF73FFE06460DE0286840F4803055
:10126000F4E740F480202860F7E700BFFFF732FE84
:10127000801B642873D828688003F7D50CE0FFF73B
:1012800029FE064605E000BFFFF724FE801B642808
:10129000F0D828688003F7D42078DFF8AC82800784
:1012A0004FF0000A3ED5A748001D016811F00C0F51
:1012B00008D00068C0F3810002280BD1D9F80000E3
:1012C000400207D42868800716D5E068012800D1BD
:1012D00012E033E1E068B8B10120C8F80000FFF780
:1012E000F9FD064605E000BFFFF7F4FD801B02286C
:1012F000C0D828688007F7D52868216920F0F80051
:1013000040EAC10028600DE0C8F800A0FFF7E2FD48
:10131000064604E0FFF7DEFD801B02281FD8286880
:101320008007F7D42078000722D5864F8748616967
:10133000703771B101210160FFF7CCFD064604E072
:10134000FFF7C8FD801B022809D838688007F7D549
:101350000EE0C0F800A0FFF7BDFD064605E082E004
:10136000FFF7B8FD801B02287DD838688007F7D4C6
:101370002078400768D5DFF8CCB100270BF13C0B93
:10138000DBF80000C0000BD4DBF8001041F0805106
:10139000CBF80010DBF80000012700F0805000902F
:1013A0006B4E3068C00510D4306840F480703060F7
:1013B000FFF790FD009005E0FFF78CFD0099401AC3
:1013C000022850D83068C005F6D55E4EA0686C364D
:1013D00001280FD00528306810D020F001003060BF
:1013E000306820F004003060A068B8B1FFF772FDEB
:1013F00000900FE0306840F00100F4E740F0040096
:101400003060F7E7FFF766FD0099411A41F2883036
:10141000814266D830688007F4D50EE0FFF75AFDA8
:10142000009007E0FFF756FD0099411A41F288301D
:10143000814256D830688007F4D42FB1DBF8001011
:1014400021F08051CBF80010A069C8B33D49091DB7
:101450000968C1F3810102294AD00228504607D009
:10146000C8F8600000E03CE0FFF734FD04463BE0D4
:101470004746C8F86000FFF72DFD064605E000BFAF
:10148000FFF728FD801B02282BD828688001F7D49D
:10149000D4E907010843A16A2E4A490802EB014139
:1014A000626A41EA8211084394F82C1040EA016113
:1014B000C9F8001001203866FFF70CFD044606E06D
:1014C0003EE000BFFFF706FD001B022809D8286890
:1014D0008001F7D534E000BFFFF7FCFC001B0228B9
:1014E00002D90320BDE8F88F28688001F4D427E0F2
:1014F0000128F7D0D9F80000E26900F48001914298
:101500001CD1226A00F03F01914217D147F6C07109
:10151000626A0140B1EB821F10D1A26A4FF0FF3323
:1015200000F4403103EB5202B1EB024F06D194F8C4
:101530002C1000F07060B0EB016F01D00120D1E7FA
:101540000020CFE70438024000004742800E4742A7
:10155000007000400000FFFF10B5401EB0F1807F1A
:1015600001D3012010BD4FF0E02460610F2160170E
:1015700000F080FC0020A06107202061002010BD49
:1015800070477047F8B5016804460868CA684B6937
:1015900010F00F0F4FF0000559D003F0010602F4D0
:1015A0009077374365D0C10705D0D10503D5616C6D
:1015B00041F001016164410705D5D90703D0616C91
:1015C00041F002016164810705D5D90703D0616C40
:1015D00041F004016164010707D502F020013143A5
:1015E00003D0616C41F008016164616C00293AD05C
:1015F000800604D5900602D5204600F01FFB206827
:101600004069616CC0F38010090700D460B32046C4
:1016100000F0EDFA20684069400621D520681430BA
:1016200050E8001F21F0400140E80012002AF5D1E7
:10163000E06BA8B172490165E06BFFF733FB00284E
:1016400011D0E06B016D01B0BDE8F04008478306A2
:101650000FD593060DD52046BDE8F84000F0EEBA50
:101660002046FFF78EFFF8BD2046FFF78AFF65642E
:10167000F8BD266B2023012E7ED1C6067CD5D6066A
:101680007AD508684868009048694FF0020640061D
:101690004DD5E26B106840684FF480770004000C71
:1016A0003AD0A18D814237D9E085D069B8422DD09A
:1016B00020680C3050E8001F21F4807140E80012CF
:1016C000002AF5D12068143050E8001F21F00101F4
:1016D00040E80012002AF5D12068143050E8001FBD
:1016E00021F0400140E80012002AF5D184F8423090
:1016F000256320680C3050E8001F21F0100140E8FD
:101700000012002AF5D1E06BFFF783FA6663A08D23
:10171000E18D401A81B206E0A18D8142A8D1D06945
:10172000B842A5D166632046FFF72AFFF8BDA08D19
:10173000E18D401A81B2E08D0028F7D00029F5D064
:1017400020680C3050E8002F22F4907240E8002707
:10175000002FF5D12068143050E8002F22F001024C
:1017600040E80027002FF5D184F842302563206837
:101770000C3050E8002F00E006E022F0100240E8B4
:101780000023002BF3D1CDE705062BD5150629D56F
:1017900094F841002128C9D1A068B0F5805F01D13B
:1017A0002069B0B1206A411C21622168007848603C
:1017B000E08C401E0004000CE084B7D12068C168B2
:1017C00021F08001C1602068C16841F04001C16022
:1017D000F8BD206A0088C0F308004860206A801CB9
:1017E0002062E5E74006F3D55006F1D5CA682046E9
:1017F00022F04002CA6084F8413000F0E0F8F8BD01
:10180000E11B000870B5040004D094F841000025E5
:1018100010B106E0012070BD84F84050204600F071
:1018200023F8242084F841002068C16821F4005185
:10183000C160204600F064FA2068016921F49041FB
:1018400001612068416921F02A0141612068C16875
:1018500041F40051C1606564202084F8410084F89F
:1018600042006563002070BDF0B587B004461421C6
:101870006846FEF770FD2049206888423AD11F482B
:101880000024016841F010010160006800F01000C0
:1018900005901A481438016841F00201016001689E
:1018A00001F002010591016841F001010160006849
:1018B000022500F0010005908020CDE9000502AA74
:1018C0000326072782E8D00069460D48FFF7FCF998
:1018D0002802CDE9000502AA694682E8D00009483D
:1018E000FFF7F2F9002211462520FFF761FB2520C2
:1018F000FFF750FB07B0F0BD001001404438024034
:10190000000402400000024090F84230202B01D039
:101910000220704721B11AB10023036300F076BAA8
:101920000120704710B500681449884224D108216D
:10193000134800F097FA12480830017811B10129D4
:1019400009D010E040784FF0000210B100210D489E
:1019500007E00121FBE740784FF0000250B1002181
:10196000094800F032F806480821BDE81040083068
:1019700000F070BA0121F3E710BD00000010014033
:1019800010000020A40000209000002090F84130BA
:10199000202B01D00220704779B172B1016282849C
:1019A000C28400214164212180F841100068C1688F
:1019B00041F08001C16000207047012070477047EE
:1019C000FEE70160828083607047017331B10129B5
:1019D00008D002290BD1114600F00AB881880068AE
:1019E000012202E0818800680022FFF76DBA70478B
:1019F00070B50D460161044681880068FFF75CFA06
:101A0000FFF768FA4FEA0006FFF764FA801BB0EBB5
:101A1000550FF9D3A1882068FFF74EFAFFF75AFA5D
:101A20004FEA0004FFF756FA001BB0EB550FF9D34D
:101A300070BD00000F4810B50D49016003214160E1
:101A400000214FF410228160C0E903124FF400120C
:101A50004261017641768176C17601774177FEF762
:101A6000BCFF002803D0BDE81040FEF72EBD10BD1E
:101A7000006400402000002070B586B01421684644
:101A8000FEF769FC1A480025016841F00101016078
:101A9000016801F001010591016841F00201016056
:101AA000016801F002010591016841F0080101603F
:101AB000016801F008010591016841F080010160B1
:101AC00000680C4E00F080004FF4E05405900022B6
:101AD00021463046FFF7F8F90121CDE90041CDE973
:101AE000021569463046FFF7EFF806B070BD0000FA
:101AF00030380240001C02400C4810B50A49016011
:101B00004FF4E1314160002181600C22C160C0E9E5
:101B100004128161C161FFF775FE002803D0BDE8A2
:101B20001040FEF7D2BC10BD00100140480000205C
:101B3000FEE7FEE770477047FFF7D2B930B593B0C4
:101B400030216846FEF707FC14210CA8FEF703FCC1
:101B50001D480025016841F080510160006800F0D7
:101B6000805011901948016841F48041016000687B
:101B7000022400F4804011900120009000040190A4
:101B80008001CDE9064006200890A820CDE909048F
:101B900004200B906846FFF729FB08B172B6FEE7F8
:101BA0000CA90F2081E831004FF4A0500F904FF4A2
:101BB0008050109005210CA8FFF72CFA002801D0C6
:101BC00072B6FEE713B030BD4038024000700040EE
:101BD0000248016841F470010160704788ED00E03F
:101BE00010B5806B0021C185FFF7CBFC10BD0168EB
:101BF0000C3151E8002F22F4907241E80023002BB1
:101C0000F5D10168143151E8002F22F0010241E8BA
:101C10000023002BF5D1016B012909D101680C319A
:101C200051E8002F22F0100241E80023002BF5D1EB
:101C3000202180F8421000210163704708B590F818
:101C40004210222901D0022008BD82684FF480533F
:101C50009A4201D1016921B1816A9A421BD04AB1ED
:101C60000AE00268816A5268C2F308020A80816A47
:101C7000891C08E0026972B10268526802F07F02B2
:101C80000A70816A491C8162C18D491E0904090CD0
:101C9000C18503D01BE002685268F1E70168CA6899
:101CA00022F02002CA600168CA6822F48072CA6009
:101CB00001684A6922F001024A61202180F842103D
:101CC00000214163026B012A03D0FFF72BFE0020A5
:101CD00008BD016301680C3151E8002F22F01002A9
:101CE00041E80023002BF5D101680A68D20602D52D
:101CF0000A6849680091818DFFF742FCE7E7000020
:101D000070B5044600680169E26821F4405111434E
:101D100001612169A068E2690843616911430843D0
:101D20002168CA6849F20C639A430243CA6020687A
:101D30004169A26921F44071114341613149206830
:101D4000884202D03049884202D1FFF70DFA01E003
:101D5000FFF7FAF9E2690023192164253226B2F56A
:101D6000004F626828D0A0FB0101930F9200FEF79C
:101D70007BFA0146B0FBF5F06FF01802504301EB1F
:101D8000800006EB0010B0FBF5F000F0F002B1FBB4
:101D9000F5F002EB0012B1FBF5F06FF018035843B9
:101DA00001EB800006EB0010B0FBF5F000F00F0037
:101DB00021681044886070BDA0FB010192185B414E
:101DC000FEF752FA0146B0FBF5F00201B1FBF5F067
:101DD0006FF01803584301EB800006EBC000B0FB26
:101DE000F5F000F0F80002EB4002B1FBF5F05843CB
:101DF00001EB800006EBC000B0FBF5F000F007003F
:101E0000D6E7000000100140001401408162828585
:101E1000C28500214164222180F84210016921B16C
:101E20000168CA6842F48072CA6001684A6942F077
:101E300001024A610068C16841F02001C1600020D0
:101E4000704700000148FFF79DBB000048000020DC
:101E5000FEE700000A4601460148FFF755BD0000B5
:101E6000480000200A4601460148FFF78FBD0000E8
:101E7000480000200907090E002804DB00F1E020DB
:101E800080F80014704700F00F0000F1E02080F8A7
:101E9000141D70471CB5FFF72BF8FFF74FFEFFF737
:101EA000EBFDFFF7C7FDFFF727FE144C11A34FF41E
:101EB000006221461248FFF784FD12A3A2142146B6
:101EC0001148FFF77EFDFEF7B7FAFEF7CDFA0F498E
:101ED000002440F22315D1E90001CDE900010822D8
:101EE00069462846FEF7CCFA641CA4B20A2CF6D345
:101EF000FEE70000677265656E000000001C02408E
:101F00009000002072656400A40000201C1F0008DF
:101F10004FF04070E1EE100A704700001200000020
:101F200000000000000000000000000001020304A7
:101F30000607080900000000010203045C1F0008F6
:101F40000000002020000000C40100087C1F0008E1
:101F500020000020F8060000E00100080100000059
:101F600010000000000000000024F4000000000049
:0C1F700000000000000000000000000065
:040000050800018965
:00000001FF
