:020000040800F2
:1000000000680020A10300081D8F00088771000808
:10001000AD8A0008D10D0008A1A80008000000006A
:10002000000000000000000000000000E1020008E5
:1000300019170008000000003D030008999500080A
:10004000BF030008BF030008BF030008BF03000888
:10005000BF030008BF030008BF030008BF03000878
:10006000BF030008BF030008BF030008910F00088A
:100070009D0F0008A90F0008BF030008BF03000878
:10008000B50F0008C10F0008BF03000835180008AD
:1000900041180008BF030008BF030008BF030008A1
:1000A000BF030008BF030008BF030008BF03000828
:1000B00021970008BF030008BF030008BF03000822
:1000C000BF030008BF030008BF030008BF03000808
:1000D000C5930008BF030008BF030008BF03000862
:1000E0001B170008BF03000800000000BF03000842
:1000F000BF030008BF030008BF030008BF030008D8
:10010000BF030008BF030008BF030008BF030008C7
:10011000BF030008759C0008BF030008BF03000868
:10012000BF030008BF030008BF030008BF030008A7
:10013000BF030008BF030008BF030008BF03000897
:1001400000000000000000000000000000000000AF
:10015000BF030008BF030008BF030008BF03000877
:10016000BF030008BF030008BF030008BF03000867
:10017000BF030008BF030008BF0300080000000021
:10018000BF030008BF030008BF030008BF03000847
:10019000BF030008BF030008D1930008BF03000895
:1001A000BF030008BF030008BF03000800000000F1
:1001B000BF030008BF030008BF030008BF03000817
:1001C000BF030008BF03000800000000000000009B
:1001D0000000000000000000BF0300080000000055
:1001E000000000000000000000000000000000000F
:1001F0000000000000000000BF030008BF0300086B
:10020000BF030008BF03000800000000BF03000890
:10021000BF030008BF030008BF030008BF030008B6
:10022000BF03000800000000BF030008000000003A
:10023000BF030008BF03000800000000BF03000860
:10024000BF030008BF030008BF030008BF03000886
:10025000BF030008BF030008BF030008BF03000876
:10026000BF030008BF030008BF030008BF03000866
:10027000BF030008BF030008BF0300080000000020
:10028000BF030008BF030008BF030008BF03000846
:1002900000000000BF030008BF03000800000000CA
:1002A00000000000BF030008BF030008BF030008F0
:1002B00055A60008BF030008BF0300084D1800083A
:1002C000BF030008BF030008BF030008DFF80CD01D
:1002D00000F094FA0048004759BD0008006800206B
:1002E0002C4B19680868B0E8F04F80F30988BFF319
:1002F0006F8F4FF0000080F31188704700000000FE
:1003000008480068006880F308884FF0000080F318
:10031000148862B661B6BFF34F8FBFF36F8F00DFF3
:1003200000BF00BF08ED00E0DFF80C00016841F4F9
:1003300070010160704700BF88ED00E0EFF30980B5
:10034000BFF36F8F134B1A681EF0100F08BF20ED1C
:10035000108A20E9F04F106009B44FF0500080F38C
:100360001188BFF34F8FBFF36F8F0CF0F3FF4FF087
:10037000000080F3118809BC19680868B0E8F04FE4
:100380001EF0100F08BFB0EC108A80F30988BFF38D
:100390006F8F70472C000020EFF30580704700003E
:1003A000074880470748804707480047FEE7FEE7C1
:1003B000FEE7FEE7FEE7FEE7FEE7FEE7FEE7FEE715
:1003C0001918000849960008CD0200082DE9F05FD1
:1003D0000546002092469B468846064681464024B4
:1003E0001BE0284641464746224600F063F9534643
:1003F0005A46C01A914110D311461846224600F0C1
:1004000016F82D1A67EB01084F46224601200021FD
:1004100000F00DF817EB00094E41201EA4F1010475
:10042000DFDC484631462A464346BDE8F09F202A95
:1004300004DB203A00FA02F1002070479140C2F13B
:10044000200320FA03F319439040704740EA010368
:100450009B0703D009E008C9121F08C0042AFAD27A
:1004600003E011F8013B00F8013B521EF9D270473E
:10047000D2B201E000F8012B491EFBD270470022E6
:10048000F6E710B513460A4604461946FFF7F0FF93
:10049000204610BD2DE9FE4F81EA030404F000441C
:1004A00021F0004100944FF0000B23F0004350EA8C
:1004B00001045ED052EA03045BD0C3F30A54C1F3D3
:1004C0000A552C44A4F2F3340194A0FB0254C1F366
:1004D000130141F48011C3F3130343F4801301FBB0
:1004E000024400FB034E840A970A44EA815447EA17
:1004F0008357A4FB076802958D0A05FB07854FEA21
:10050000932C04FB0C542705029D4FEA065847EA3A
:100510001637B5EB08056EEB070C870E920E47EA0F
:10052000811742EA8312A7FB0201B6EB0B0164EBD1
:1005300000042B0D43EA0C335E1844EB1C50DA46E2
:100540005146E7FB0201C5F313044FEA0B3343EABC
:1005500014534FEA0432019C43EA0603A4F10C044D
:100560000294009CCDE900B400F0FAF803B0BDE8B5
:10057000F08F00200146F9E72DE9F04D81EA0304F0
:1005800004F0004B21F0004514464FF0000A23F020
:10059000004150EA050220D054EA01021DD0C5F303
:1005A0000A570246C5F31303C1F31300C1F30A56F9
:1005B00040F4801543F48013A7EB0608101BD646C1
:1005C00008F2FD3873EB050002D308F1010801E0E1
:1005D00092185B41B8F1000F03DA00200146BDE834
:1005E000F08D00204FF48011064684460EE0171B64
:1005F00073EB050705D3121B63EB050306434CEAB7
:10060000010C49084FEA300092185B4150EA01079B
:10061000EDD152EA030012D082EA040083EA050118
:10062000084305D0101BAB4106D20122002306E08F
:1006300000224FF0004302E06FF0010253101AEB6A
:1006400006004CEB085110EB0A0041EB0B01BDE832
:10065000F04D00F076B800F0004230F000400AD0D3
:10066000C10D01F56071C0F3160042EA0151C208E4
:1006700040071143704700200146704701F00043D6
:1006800030B421F0004150EA010206D00A0DA2F573
:100690006072C1F31301002A02DC30BC00207047F5
:1006A000440F44EAC104C100E01830BC00EBC25062
:1006B00000F010B8202A04DB203A21FA02F00021D1
:1006C000704721FA02F3D040C2F120029140084362
:1006D000194670470029A8BF7047401C490008BF51
:1006E00020F00100704710B4B0FA80FC00FA0CF062
:1006F00050EA010404BF10BC704749B1CCF120049A
:1007000021FA04F411FA0CF118BF01212143084326
:10071000A3EB0C01CB1D4FEA00614FEA102042BF52
:10072000002010BC704700EBC35010440029A4BF48
:1007300010BC7047401C490008BF20F0010010BCED
:10074000704710B5141E73F1000408DA401C41F123
:10075000000192185B411A4301D120F0010010BD45
:100760002DE9F04D92469B4611B1B1FA81F202E0BB
:10077000B0FA80F220329046FFF759FE04460F4649
:1007800040EA0A0041EA0B0153465A46084313D097
:10079000114653EA010019D0C8F140025046FFF754
:1007A00089FF05460E46504659464246FFF73FFE32
:1007B000084305D0012004E020463946BDE8F08D0D
:1007C0000020054346EAE0762C4337430A98630548
:1007D000E40AA0EB08000022FD0A44EA47540A306C
:1007E00002D500200146E9E7010510196941DDE95C
:1007F000084500196941BDE8F04DA2E7064C074DD8
:1008000006E0E06840F0010394E8070098471034E0
:10081000AC42F6D3FFF75EFD80EB0008B0EB0008BA
:1008200070B58C1810F8015B15F0070301D110F8B2
:10083000013B2A1106D110F8012B03E010F8016BDF
:1008400001F8016B5B1EF9D12B0705D40023521E62
:100850000DD401F8013BFAE710F8013BCB1A921CCA
:1008600003E013F8015B01F8015B521EF9D5A142C8
:10087000D8D3002070BD00009FED290A016891F9CE
:10088000081001291ED04A1C1CD0B7EE001A41687E
:10089000D1ED041AD1ED020AF5EEC01AF1EE10FA0C
:1008A00004D1F5EEC00AF1EE10FA03D091ED030A7F
:1008B00030EE610AB5EEC00AF1EE10FA07DDF0EE97
:1008C000401A06E000EE901AB8EEE01ADFE7F1EE0B
:1008D000401A11EE902A134B9A4216DDB5EEC00A6B
:1008E000F1EE10FA08DDDFED101A30EE210A40EECD
:1008F000010AC1ED020A0CE0DFED0C1A30EE210A0C
:1009000040EE010AC1ED020A03E040EE010AC1ED2A
:10091000020A406890ED030A80ED040A7047000067
:1009200000000000DB0F4940DB0FC9C0DB0FC940EE
:1009300010B59FED3E0A026892F9001001291ED001
:100940004B1C1CD0B7EE001A4168D1ED091AD1ED4D
:10095000070AF5EEC01AF1EE10FA04D1F5EEC00A5E
:10096000F1EE10FA03D091ED080A30EE610AB5EE0F
:10097000C00AF1EE10FA07DDF0EE401A06E000EED4
:10098000901AB8EEE01ADFE7F1EE401A11EE903A55
:10099000274CA3421BDCB5EEC00AF1EE10FA02DDD3
:1009A000F0EE401A01E0F1EE401A11EE903A214CBF
:1009B000A34202DD137A012B09D040EE010AC1EDFA
:1009C000070A406890ED080A80ED090A10BDB5EEEF
:1009D000C00AF1EE10FA14DD127A012A08D0DFED18
:1009E000161A30EE210A40EE010AC1ED070AE8E7C7
:1009F000DFED121A30EE210A40EE010AC1ED070ABE
:100A0000DFE7127A012A08D0DFED0D1A30EE210A55
:100A100040EE010AC1ED070AD3E7DFED0A1A30EE16
:100A2000210A40EE010AC1ED070ACAE700000000F2
:100A3000DB0F494018104C3EDB0FC9C01810CCBE6C
:100A4000DB0FC9401810CC3E01221146014803F0CB
:100A50006DB900000008025800220121014803F08E
:100A600065B9000000080258704700000122082103
:100A7000014803F05BB90000000802580022082179
:100A8000014803F053B9000000080258704770B5E0
:100A900004464FF47A7502E0284600F004F8641E1C
:100AA000A4B2F9D270BD70B505460AF081FD0446C6
:100AB0000AF07EFD001BA842FAD370BD10B5FFF707
:100AC000D3FFFFF7E3FF0AF07FFC04460AF002FDC4
:100AD000204310BD2DE9FC4104460D46164600207A
:100AE00000900190FFF7B8FF922000F0BFF80622B7
:100AF0006946122000F09CF8FFF7A6FF9DF8010060
:100B00009DF80010000200B2084300EE100A474FA3
:100B1000B8EEC00AD7ED000A20EE200A85ED000AE3
:100B20009DF803009DF80210000200B2084300EE99
:100B3000100AF8EEC00A97ED000A60EE800AC5EDD3
:100B4000010A9DF805009DF80410000200B2084358
:100B500000EE900AF8EEE00A20EE800A85ED020A27
:100B6000FFF78CFF08226946002000F061F8FFF7CC
:100B70007DFF9DF800000F2830D19DF803009DF8FF
:100B80000210000200B2084300EE100AD7ED010A7D
:100B9000B8EEC00A20EE200A84ED000A9DF8050098
:100BA0009DF80410000200B2084300EE100AF8EEAF
:100BB000C00A97ED010A60EE800AC4ED010A9DF8B3
:100BC00007009DF80610000200B2084300EE900AEC
:100BD000F8EEE00A20EE800A84ED020AFFF73CFFFF
:100BE000A22000F043F802226946222000F020F8FB
:100BF000FFF72AFF9DF800009DF80110C00040EAB1
:100C00005110B0F5806F02DBA0F5006000B200EE7D
:100C1000100AB4EE001AF8EEC00AB3EE070A00EEAE
:100C2000810A86ED000ABDE8FC8100000C0200206C
:100C300070B50D46144640F0800000F017F806E04D
:100C4000552000F013F805F8010B641EE4B2002CE7
:100C5000F6D170BD10B50C4640F0800000F006F8EB
:100C6000552000F003F8207010BD000001B582B0DF
:100C70004FF47A700090012301AA02A9024805F0FE
:100C800063F89DF804000EBD600C002010B50C4602
:100C9000FFF7ECFF2046BDE81040FFF7E7BF00007C
:100CA00070B504462DED088BF0EE60AAF0EE618A77
:100CB000B0EE42AAB0EE628A0D46164610EE100A59
:100CC000FFF7C9FC9FED3F9B53EC192BFFF7E2FBAD
:100CD000FFF7D4FC0BEE100A1AEE900AFFF7BBFCEC
:100CE00053EC192BFFF7D6FBFFF7C8FC09EE900A6F
:100CF000B0EE4B0A0AF0CAFA9FED349A40EE098A28
:100D0000B0EE690A0AF0C2FAF0EE40AAB0EE4B0A61
:100D10000AF04CF82AEE800A00EE49AAB0EE690A01
:100D20000AF044F8F0EE40AAB0EE4B0A0AF03EF8A2
:100D30002AEE800A00EE498AB0EE4B0A0AF036F835
:100D400020EE289AB0EE4B0A0AF0A0FA08EE009ABC
:100D500084ED009AB0EE690A0AF028F820EE0A9AAB
:100D6000B0EE690A0AF092FA08EE409A85ED009A10
:100D7000B0EE4B0A0AF01AF820EE088AB0EE690AC3
:100D80000AF014F828EE008AB0EE4B0A0AF07EFA58
:100D900060EE288AB0EE690A0AF008F808EEC08A08
:100DA000B0EE690A0AF072FA60EE0A8AB0EE4B0AF7
:100DB00009F0FCFF08EE808A86ED008ABDEC088B06
:100DC00070BD0000514CDE0033DF913F0AE81C414A
:100DD000FEE7000010B58AB00024029403940220BC
:100DE0000490012005900694079402A9094802F096
:100DF0009AF90222002311460648009402F0D7F91E
:100E000000220121034802F015F9024802F054FEC5
:100E10000AB010BD800A0020122802D10148826A5F
:100E2000104770471C0A002010B58AB000240294B5
:100E3000039402200490012005900694079402A9CF
:100E4000094802F070F90222002311460648009476
:100E500002F0ADF900220121034802F0EBF802484C
:100E600002F02AFE0AB010BD200B0020012802D19A
:100E70000148826A104770471C0A002010B58AB0EA
:100E8000002402940120039002200490059006940F
:100E9000079402A9094802F046F9022200231146EC
:100EA0000648009402F083F900221021034802F062
:100EB000C1F8024802F000FE0AB010BDC00B0020CD
:100EC00070474178007841EA00207047C178807807
:100ED00041EA002000B270474179007941EA0020E0
:100EE00000B270478079704700B589B00023019344
:100EF00000910821039104930593069302930893AC
:100F00000793694602F0D8F809B0002000BD416897
:100F10008A88521C92B28A8041680B889A4204D314
:100F20008B80406801218170704700208870704775
:100F3000426800211180024901610249C160704785
:100F40003DB600080F0F000810B50B480068816817
:100F500088470A48816988470948C16A884709481B
:100F6000C16A884708480169884707F0CDFF0748EC
:100F70004169BDE8104008473C020020D002002033
:100F8000A8090020DC0900201C0A00204C0A0020CF
:100F9000014801F00DB90000FC100020014801F0EB
:100FA00007B90000700D0020014801F001B90000F0
:100FB000E80D0020014801F0FBB80000741100208A
:100FC000014801F0F5B80000EC11002010B52C4AE2
:100FD000016891423AD02A4A1832914236D0284AC2
:100FE0003032914232D0264A483291422ED0244AA1
:100FF000603291422AD0224A7832914226D0204A49
:101000009032914222D01E4AA83291421ED01D4AEF
:1010100091421BD01B4A1832914217D0194A3032E4
:10102000914213D0174A483291420FD0154A60328C
:1010300091420BD0134A7832914207D0114A903234
:10104000914203D00F4AA832914214D1CAB2103A49
:101050001823B2FBF3F20C4C02F00703E35CC36508
:10106000032A04D96FF30901091D816506E06FF3B6
:101070000901816502E021F0FF018165806D10BDED
:101080001000024010040240A8DE000810B50168FC
:10109000224C0123CAB2A1421BD0204C1434A142DD
:1010A00017D01E4C2834A14213D01C4C3C34A14212
:1010B0000FD01A4C5034A1420BD0184C6434A142CA
:1010C00007D0164C7834A14203D0144C8C34A14282
:1010D0000FD1083A1421B2FBF1F1114A02EB81025F
:1010E00002660F4A8032426601F01F018B40836620
:1010F00010BD103A1824B2FBF4F20A4C2144A8297E
:1011000000D80832084901EB8201016606498031A6
:10111000416602F01F018B40836610BD08540258DF
:1011200000580258F0FBFDBF000802400279521E31
:10113000072A31D8194B016899421BD0174B143339
:10114000994217D0154B2833994213D0134B3C3397
:1011500099420FD0114B503399420BD00F4B64334F
:10116000994207D00D4B7833994203D00B4B8C3307
:10117000994207D10A4901EB8201C1660849403111
:10118000016706E0074901EB8201C166054940316C
:1011900001670121914041677047000008540258DF
:1011A000005902580009024010B5014600208B6921
:1011B0008A6A4FF0C074002B0ED0B3F5005F1AD0CE
:1011C00062B3012A2AD0022A28D0032A03D1C96A8D
:1011D000C90100D5012010BD1AB1012A06D0022A8A
:1011E000F9D1C96AC901F6D5012010BDC96AA14269
:1011F000FBD1012010BD52B1012A0AD0022A06D02B
:10120000032AF7D1C96AA142F4D1012010BD0120FF
:1012100010BDC96AC901FBD5012010BD012010BD58
:101220002DE9F04F856D8A4E894FDFF824C2DFF833
:101230002082DFF81C92DFF818A2DFF814B20468ED
:10124000A8360CF1180C08F1300809F148090AF128
:10125000600A0BF1780BBC426DD064456BD04445FD
:1012600069D04C4567D0544565D05C4563D0DFF804
:10127000E0E10EF1900E74455DD0B4425BD0DFF832
:10128000D4E1744557D0DFF8CCE10EF1180E744567
:1012900051D0DFF8C0E10EF1300E74454BD0DFF8CD
:1012A000B4E10EF1480E744545D0DFF8A8E10EF127
:1012B000600E74453FD0DFF89CE10EF1780E744566
:1012C00039D0DFF890E10EF1900E744533D0DFF89D
:1012D00084E10EF1A80E74452DD0DFF87CE1744551
:1012E00029D0DFF874E10EF1140E744523D0DFF835
:1012F00068E10EF1280E74451DD0DFF85CE10EF1B7
:101300003C0E744517D0DFF850E10EF1500E7445D5
:1013100011D0DFF844E10EF1640E74450BD0DFF814
:1013200038E10EF1780E744505D0DFF82CE10EF1AE
:101330008C0E744509D1D0E919E4CEF80440C46E8E
:101340001CB1D0E91CE4CEF804400468BC422ED0A5
:1013500064452CD044452AD04C4528D0544526D04D
:101360005C4524D03A4F9037BC4220D0B4421ED0C6
:10137000384EB4421BD0374E1836B44217D0354ED3
:101380003036B44213D0334E4836B4420FD0314ECB
:101390006036B4420BD02F4E7836B44207D02D4E73
:1013A0009036B44203D02B4EA836B4421BD190F8ED
:1013B0005C4004F01F063F24B440AC60046825681C
:1013C00025F480252560046863608368402B05D080
:1013D000036899600068C260BDE8F08F03689A6096
:1013E0000068C160F8E71C4EB4421BD01A4E143698
:1013F000B44217D0184E2836B44213D0164E3C369D
:10140000B4420FD0144E5036B4420BD0124E643654
:10141000B44207D0104E7836B44203D00E4E8C360C
:10142000B442D9D190F85C4004F01F060124B440C6
:101430006C60046863608368402B04D00368996023
:101440000068C260C8E703689A600068C160C3E7CB
:10145000100002401004024008540258C1680A6893
:10146000521C0A60C1684B689A4206D90B60C26878
:1014700001211172C06841727047087A0128FBD1BE
:1014800000200872704700000C4941610C49C1619D
:101490000C4901620C4941620C4981620C49C162EC
:1014A000C26801215172C2689172C26864215160A0
:1014B00040689FED080A80ED020A70477D1500081C
:1014C0003115000805150008D9140008398B0008EB
:1014D0005D1400080000000000280FD0C1684A7A9F
:1014E000012A06D081689FED060A81ED010A07F006
:1014F00091BB00224A72002107F070BB70470000C8
:101500000000000000280FD0C1684A7A012A06D0E6
:1015100081689FED060A81ED030A07F07BBB00227C
:101520004A72002107F05ABB70470000000000001B
:1015300010B504462DED028B002C10D0E068417AE6
:1015400001290FD0A0689FED0C8A80ED038A80ED01
:10155000048A204607F05EFBA06880ED008ABDEC9F
:10156000028B10BD002141722046BDEC028BBDE80C
:10157000104007F033BB00000000000000280AD034
:1015800081689FED050A81ED000A816881ED040AFA
:10159000806880ED030A70470000000010B509F074
:1015A00065F809F075F8FFF715FCFFF73DFCBDE89D
:1015B0001040FFF763BC00002DE9F05F044652497C
:1015C0000868C069C0067DD5D4F880004F4E4F4FE3
:1015D00000684E4DDFF83481DFF83091DFF82CA140
:1015E000DFF828B11836303708F1480809F16009EA
:1015F0000AF1780A0BF1900BA8422ED0B0422CD001
:10160000B8422AD0404528D0484526D0504524D05D
:10161000584522D03D4AA83290421ED03C4A9042C2
:101620001BD03B4A1832904217D0394A3032904290
:1016300013D0374A483290420FD0354A6032904238
:101640000BD0334A7832904207D0314A90329042E0
:1016500003D02F4AA832904204D1026822F001023E
:10166000026003E0026822F00102026009681020B3
:1016700008624FF4C8722749234805F05DFD2548EC
:1016800009F004F8D4F880000068A84230D0B042D5
:101690002ED0B8422CD040452AD0484528D05045BD
:1016A00026D0584524D01949A831884220D018495D
:1016B00088421DD016491831884219D0144930315A
:1016C000884200E018E013D01149483188420FD019
:1016D0000F49603188420BD00D497831884207D0DC
:1016E0000B499031884203D00949A831884205D17D
:1016F000016841F001010160BDE8F09F016841F01F
:1017000001010160F8E700006810002010000240AD
:101710001004024000000024704710B54FF48060B0
:1017200002F0EDF9BDE810404FF4805002F0E7B947
:1017300010B54168406891ED090A4269B5EEC00AEA
:10174000F1EE10FA00D18AB1088A0B8BC01A00B2F0
:1017500000F6FF7341F6FE74A3420FD9002807DBA1
:10176000A0F5F850FF381044486109E00020EFE789
:1017700041F6FF7318441044486101E01044486189
:10178000088A088310BD0000016842689FED1D0AA9
:101790000B7ADFED1D0A118AB0EE001A012B0FD073
:1017A000032B1ED001EE901AF8EE611A81EE802A0A
:1017B00022EE200A20EE010A82ED080AFFF7B8B8EF
:1017C00001EE901AF8EE611A81EE802A22EE200ACC
:1017D000DFED0E0A20EE010A80EE201A82ED081AD3
:1017E000ECE701EE901AF8EE611A81EE802A22EE03
:1017F000200ADFED070A20EE010A80EE201A82EDB2
:10180000081ADBE700F8FF45DB0F49403C3C7C4110
:101810000000104272B6FEE70548016841F002017F
:1018200001600348083801688904FCD5704700004E
:101830000C480258014801F0ABBD0000800A0020AE
:10184000014801F0A5BD0000200B0020014801F077
:101850009FBD0000C00B002030B5426B036853F8F9
:10186000844F4FF6FC718C4344EA82041C60036889
:1018700053F8844F058F24F47F0444EA05441C6028
:10188000836B1A44036853F8884F8C4344EA8204FC
:101890001C60036853F8884F858F24F4FE0444EAE3
:1018A00005441C60C36B02EB4302036853F8A04F6E
:1018B0008C4344EA82041C60036853F8A04FB0F8DC
:1018C000405024F4FE0444EA05441C60D0E910347E
:1018D00003FB0422036853F8B04F8C4344EA8204AC
:1018E0001C60036853F8B04FB0F8485024F4FE046D
:1018F00044EA05441C60D0E9123403FB0422036867
:1019000053F8AC4F8C4344EA82041C60D0E9143491
:1019100003FB0422036853F8F04F8C4344EA82042B
:101920001C60036853F8F04FB0F8585024F47C144E
:1019300044EA05441C60836D02EB4303026852F8DD
:10194000C04F8C4344EA83011160016851F8C02FF5
:10195000B0F85C3022F47C1242EA03420A6001686B
:1019600051F8C02F90F8603022F07C5242EA0362B6
:101970000A60234A416B02EB8101C166826B01EB75
:1019800082020267C36B02EBC3024267D0E91034E4
:10199000634302EB83028267D0E91234634302EBB4
:1019A0008302C267D0E91434634302EB8302C0F8B8
:1019B0008020836D02EBC302C0F88420C46D836E67
:1019C0005C4302EB8402C0F88820046E5C4302EBA7
:1019D0008402C0F890200B4B9A4208D99830416895
:1019E00041F02001416003210170012030BD00223F
:1019F00000E004C1D0F890308B42FAD8002030BD0E
:101A000000AC0040FCD30040F0B5D1E901650C69A1
:101A10002C430D68002E1AD045F080452C43D1E9A7
:101A20000665354391F820704E6946EA07663543EE
:101A30008E8945EA0645D0F88460806E584306EBEF
:101A400080031C605D60083300200B4E0FE044EA09
:101A50008544E4E71418155CE77845EA0765A7783C
:101A600064783F0447EA0424254320C3001DCC6862
:101A7000345D8442EED8F0BDB0DE000810B50346F8
:101A80001046002B01D0084C0AE04FF6FF7010BD45
:101A900013F8012B4240D2B234F8122082EA10200F
:101AA000491E4A1CF4D110BD44E0000810B5054C95
:101AB00003E010F8013B5340E25C491E89B2F8D2C2
:101AC000104610BD44DF000810B50446002154F84C
:101AD000210048B1026852785206120E80680089CF
:101AE0002244030A13745074491CC9B20429EED36A
:101AF000D4E9061004F11002FFF7F6F90020206186
:101B0000606110BD70B50546002455F8240008B189
:101B1000016B8847641CE4B2042CF6D370BD70B529
:101B20000546002455F8240068B101684978490643
:101B30000E0E07F0F7FF55F8240080680089020AAE
:101B4000A9190A744874641CE4B2042CEAD3D5E9D8
:101B5000061005F11002FFF7C7F90020286168613F
:101B600070BD000000219FED060A50F8212012B13F
:101B7000926882ED000A491CC9B20429F5D3704766
:101B8000000000002DE9F84F044602F0D7F800905D
:101B90005CB194F83500022809D0802060650020EF
:101BA00084F834000120BDE8F88F0120FBE7D14E16
:101BB000D04FD049DFF83C83DFF83893DFF834A307
:101BC000DFF830B320681836303708F1480809F1DB
:101BD00060090AF1780A0BF1900B88422ED0B042CE
:101BE0002CD0B8422AD0404528D0484526D0504570
:101BF00024D0584522D0BF4AA83290421ED0BE4AB7
:101C000090421BD0BC4A1832904217D0BA4A3032A8
:101C1000904213D0B84A483290420FD0B64A603250
:101C200090420BD0B44A7832904207D0B24A9032F8
:101C3000904203D0B04AA83290420AD1026822F002
:101C40001E0202602068426922F08002426125681B
:101C500004E0026822F00E020260256820688842D3
:101C60004DD0B0424BD0B84249D0404547D048450E
:101C700045D0504543D0584541D09E4AA832904265
:101C80003DD09D4A90423AD09B4A1832904236D07D
:101C9000994A3032904232D0974A483290422ED000
:101CA000954A603290422AD0934A7832904226D0A8
:101CB000914A9032904222D08F4AA83290421ED050
:101CC0008E4A90421BD08D4A1432904217D08B4AD4
:101CD0002832904213D0894A3C3290420FD0874A32
:101CE000503290420BD0854A6432904207D0834AEA
:101CF0007832904203D0814A8C32904204D1206ED7
:101D0000026822F4807202607A49206888422ED0EC
:101D1000B0422CD0B8422AD0404528D0484526D0E1
:101D2000504524D0584522D07249A83188421ED04F
:101D3000714988421BD070491831884217D06E49CA
:101D40003031884213D06C49483188420FD06A49FB
:101D5000603188420BD068497831884207D06649A3
:101D60009031884203D06449A831884204D1016887
:101D700021F00101016013E0016821F0010101601F
:101D80000EE001F0DBFF0099401A052808D9202059
:101D9000343420620320607000202070012002E7AC
:101DA0002868C007EDD1534A2068012190422ED007
:101DB000B0422CD0B8422AD0404528D0484526D041
:101DC000504524D0584522D04A4BA83398421ED0C3
:101DD000494B98421BD0484B1833984217D0464B7A
:101DE0003033984213D0444B483398420FD0424B83
:101DF000603398420BD0404B7833984207D03E4B2B
:101E00009033984203D03C4BA833984208D1A06D40
:101E100094F85C3003F01F053F23AB40836007E07C
:101E2000A06D94F85C3003F01F0301FA03F34360E4
:101E3000206890424DD0B0424BD0B84249D0404586
:101E400047D0484545D0504543D0584541D0294A10
:101E5000A83290423DD0284A90423AD0264A1832C1
:101E6000904236D0244A3032904232D0224A483210
:101E700090422ED0204A603290422AD01E4A7832B8
:101E8000904226D01C4A9032904222D01A4AA83260
:101E900090421ED0194A90421BD0184A14329042E8
:101EA00017D0164A2832904213D0144A3C3290423E
:101EB0000FD0124A503290420BD0104A64329042F6
:101EC00007D00E4A7832904203D00C4A8C329042AE
:101ED0000BD1D4E919205060E06E30B1026822F4D1
:101EE00080720260D4E91C2050603434617000209C
:101EF000207058E6100002401004024008540258B6
:101F00002DE9F05F002808D090F83510022906D09E
:101F1000802141650120BDE8F09F0120FBE7A14A37
:101F2000A04BA04C9F4D9F4EDFF878B2DFF878C2EF
:101F3000DFF87482DFF87092DFF86CA20168183263
:101F40003033483460357836974F0CF1300C08F157
:101F5000600809F178090AF1900A594531D0914297
:101F60002FD099422DD0A1422BD0A94229D0B142E5
:101F700027D0DFF830E20EF1900E714521D0DFF866
:101F800024E20EF1A80E71451BD0DFF81CE2AEF181
:101F9000180E714515D0B94213D0DFF80CE20EF1DE
:101FA000180E71450DD061450BD0DFF8FCE10EF144
:101FB000480E714505D0414503D0494501D05145F2
:101FC00037D14FF0040E80F835E0594527D09142C3
:101FD00025D0994223D0A14221D0A9421FD0B1429D
:101FE0001DD070489030814219D06E48A83081428F
:101FF00015D06D481838814211D0B9420FD06A48C7
:10200000183081420BD0614509D067484830814281
:1020100005D0414503D0494501D0514504D1086858
:1020200020F001000860BAE0086820F001000860B4
:10203000B5E0D1F800E02EF00E0EC1F800E0016826
:10204000DE46594531D091422FD099422DD0A14240
:102050002BD0A94229D0B14227D0DFF848B10BF1EB
:10206000900B594521D0DFF83CB10BF1A80B594535
:102070001BD0DFF834B1ABF1180B594515D0B9427C
:1020800013D0DFF824B10BF1180B59450DD0614581
:102090000BD0DFF814B10BF1480B594505D0414581
:1020A00003D0494501D0514506D1D1F800B02BF0FD
:1020B000010BC1F800B005E0D1F800B02BF0010B26
:1020C000C1F800B001684FF0010B714546D0914254
:1020D00044D0994242D0A14240D0A9423ED0B14220
:1020E0003CD0304A9032914238D02E4AA8329142A8
:1020F00034D02D4A183A914230D0B9422ED02A4AD3
:10210000183291422AD0614528D0274A483291425C
:1021100024D0414522D0494520D051451ED0234AE4
:1021200091421BD0214A1432914217D01F4A2832C3
:10213000914213D01D4A3C3291420FD01B4A50327B
:1021400091420BD0194A6432914207D0174A783233
:10215000914203D0154A8C32914218D1016E0A681F
:1021600022F480720A60816D90F85C2002F01F02F8
:102170000BFA02F24A60D0E919215160C16E31B107
:102180000A6822F480720A60D0E91C21516080F84C
:1021900035B0002180F83410016D01B1884700206E
:1021A000B9E600001000024028040240085402581A
:1021B0002DE9FF5F044600200190FE484FF41651C0
:1021C0000068B0FBF1F00090A56D2E682968FA4F09
:1021D000DFF8E4B3DFF8E083DFF8DC93DFF8D8A3BF
:1021E00020680BF1180B08F1300809F148090AF1D1
:1021F000600AB8423BD05A46904238D0404536D06B
:10220000484534D0504532D0EB4A783290422ED0F7
:10221000E94A903290422AD0E74AA832904226D02A
:10222000E64A904223D0E54A183290421FD0E34B51
:10223000303398421BD0E14B4833984217D0DFF837
:102240007CC30CF1600C604511D0DFF870C30CF159
:10225000780C60450BD0DFF864C30CF1900C60453E
:1022600005D0DFF858E30EF1A80E70457ED194F842
:102270005C10082301F01F0103FA01F232424BD037
:10228000B84232D0584530D040452ED048452CD0A9
:1022900050452AD0C8497831884226D0C649903165
:1022A000884222D0C449A83188421ED0C3498842FE
:1022B0001BD0C2491831884217D0C04930318842FA
:1022C00013D0BE49483188420FD0BC4960318842A2
:1022D0000BD0BA497831884207D0B849903188424A
:1022E00003D0B649A831884203D1016801F0040146
:1022F00002E0016801F0080171B1016821F00401F8
:10230000016094F85C0000F01F0003FA00F2AA607C
:10231000606D40F00100606594F85C00012100F000
:102320001F008140314240D02068B84234D0584527
:1023300032D0404530D048452ED050452CD09E4A12
:102340007832904228D09C4A9032904224D09A4AC7
:10235000A832904220D0994A90421DD0974A183214
:10236000904219D0954A3032904200E0D2E113D029
:10237000924A483290420FD0904A603290420BD03D
:102380008E4A7832904207D08C4A9032904203D0E5
:102390008A4AA83290427DD1406910F0800F04D063
:1023A000A960606D40F00200606594F85C00042153
:1023B00000F01F00814031423ED02068B84232D048
:1023C000584530D040452ED048452CD050452AD0D5
:1023D000794A7832904226D0774A9032904222D081
:1023E000754AA83290421ED0744A90421BD0734A5C
:1023F0001832904217D0714A3032904213D06F4A4F
:10240000483290420FD06D4A603290420BD06B4AF6
:102410007832904207D0694A9032904203D0674A9E
:10242000A83290424ED1006810F0020F04D0A9608B
:10243000606D40F00400606594F85C00102100F0CD
:102440001F008140314260D02068B84234D05845E6
:1024500032D0404530D048452ED050452CD0564A39
:102460007832904228D0544A9032904224D0524A36
:10247000A832904220D0514A90421DD04F4A183283
:10248000904219D04D4A3032904215D04B4A4832D2
:10249000904200E014E00FD0484A603290420BD0E6
:1024A000464A7832904207D0444A9032904203D054
:1024B000424AA832904207D1006800F0080006E0C6
:1024C000006872E70068B7E7006800F0040058B1E0
:1024D000A9602068016849030CD50068000304D492
:1024E000216C09B1204688470FE0A16C69B12046F4
:1024F00088470AE00168C90503D4016821F0080192
:102500000160216C09B12046884794F85C002021C5
:1025100000F01F00814031427BD02068B84232D0A9
:10252000584530D040452ED048452CD050452AD073
:10253000214A7832904226D01F4A9032904222D0CF
:102540001D4AA83290421ED01C4A90421BD01B4A02
:102550001832904217D0194A3032904213D0174A9D
:10256000483290420FD0154A603290420BD0134A45
:102570007832904207D0114A9032904203D00F4AED
:10258000A832904203D1006800F0100002E0006819
:1025900000F00200E8B3A96094F83500042812D0D6
:1025A0002068016849033DD50068000335D4616C9B
:1025B00079B305E02400002010000240100402401E
:1025C000204688473FE02068016821F0160101603D
:1025D0002068416921F080014161206C08B9A06C3C
:1025E00020B12068016821F00801016094F85C00C6
:1025F00000F01F013F208840A860012084F83500CA
:10260000002084F83400216D002974D0204604B0E5
:1026100000E018E0BDE8F05F0847E16B99B12046A3
:10262000884710E00168C90509D4016821F010014C
:102630000160012084F83500002084F83400E16B4B
:1026400009B120468847606D002854D0606DC007EE
:1026500058D0042084F835002068B84231D058455D
:102660002FD040452DD048452BD0504529D0B749D3
:10267000884226D0B5491831884222D0B34930313A
:1026800088421ED0B24988421BD0B14918318842D5
:1026900017D0AF493031884213D0AD494831884214
:1026A0000FD0AB49603188420BD0A94978318842BC
:1026B00007D0A7499031884203D0A549A831884264
:1026C00004D1016821F00101016003E0016821F0FB
:1026D0000101016021680198009A401C019090421C
:1026E00002D80868C007F6D10868C00704D00320E4
:1026F00084F8350003E087E0012084F835000020ED
:1027000084F83400E16C00297ED004B02046BDE896
:10271000F05F08478F4EB0421BD08E4E1436B04249
:1027200017D08C4E2836B04213D08A4E3C36B04279
:102730000FD0884E5036B0420BD0864E6436B04231
:1027400007D0844E7836B04203D0824E8C36B042E9
:102750005AD1066894F85CB04FF0040E0BF01F0BD2
:102760000EFA0BFE1EEA010FCDF80CE05ED05FEA18
:10277000467E5BD503986860300411D5F00307D41A
:10278000A16C002940D004B02046BDE8F05F0847A6
:10279000216C002938D004B02046BDE8F05F08471E
:1027A000B0063BD42068B8422DD0684960398842D1
:1027B00029D0404527D0484525D0504523D06349EE
:1027C000884220D06149183188421CD05F4930319D
:1027D000884218D05E49884215D0904213D05C4997
:1027E000303188420FD098420DD05949603188422B
:1027F00009D057497831884205D0604503D0544903
:10280000A831884206D100E07CE0016821F008018F
:10281000016003E0016821F004010160216C0029DE
:1028200070D004B02046BDE8F05F08474FF0020EBC
:102830000EFA0BFE1EEA010FCDF808E063D05FEA46
:10284000867E60D502986860300411D5F00307D405
:10285000616C002978D004B02046BDE8F05F0847DD
:10286000E16B002970D004B02046BDE8F05F084756
:10287000B0063FD42068B8422DD034496039884230
:1028800029D0404527D0484525D0504523D02F4951
:10289000884220D02D49183188421CD02B49303134
:1028A000884218D02A49884215D0904213D028492E
:1028B000303188420FD098420DD02549603188428E
:1028C00009D023497831884205D0604503D020499A
:1028D000A831884204D1016821F01401016003E0AD
:1028E000016821F00A010160012084F83500002010
:1028F00084F83400E16B002926D004B02046BDE8FE
:10290000F05F084720E0082202FA0BF20A421BD0CF
:10291000310719D5016821F00E01016094F85C00BF
:1029200000F01F01012000FA01F16960606584F880
:102930003500002084F83400E16C002904D004B094
:102940002046BDE8F05F0847BDE8FF9F88000240D1
:1029500010040240085402582DE9F05F044601F0CB
:10296000EDF90646002C7DD0F24FDFF8C883DFF882
:10297000C493DFF8C0A3DFF8BCB3206802220025AF
:1029800008F1300809F148090AF1600A0BF1780BE7
:10299000B84232D0E749183188422ED040452CD079
:1029A00048452AD0504528D0584526D0E149903195
:1029B000884222D0DF49A83188421ED0DE498842B1
:1029C0001BD0DD491831884217D0DB4930318842AD
:1029D00013D0D949483188420FD0D7496031884255
:1029E0000BD0D5497831884207D0D34990318842FD
:1029F00003D0D149A83188427ED184F8352084F8AB
:102A00003450B84234D0CB491831884230D0404598
:102A10002ED048452CD050452AD0584528D0C549FD
:102A20009031884224D0C349A831884220D0C2497D
:102A300088421DD0C0491831884219D0BE49303172
:102A4000884215D0BC494831884211D0BA4960311A
:102A500088420DD0B8497831884209D0B6499031C2
:102A6000884200E009E003D0B349A831884207D189
:102A7000016821F00101016013E00120BDE8F09F31
:102A8000016821F0010101600BE001F057F9801BA2
:102A9000052806D920206065032084F83500012030
:102AA000ECE720680068C007EFD122681168A348EE
:102AB0000140D4E902031843D4E9043633431843F0
:102AC000A3691843E3691843236A18430843616AFA
:102AD000042903D1D4E90B13194308436168A1F118
:102AE0002903052B0DD9163B032B0AD9083B012BD3
:102AF00007D9083B032B00E02AE002D974390329E7
:102B000001D840F4801010602068406920F007016F
:102B1000606A40EA010604280DD1A06A0643E06A13
:102B200048B12046FEF740FB28B1402060650120F7
:102B300084F83500A2E7206846612046FEF746FA91
:102B400094F85C1001F01F023F219140816066E023
:102B50007B4988421BD07A4B1433984217D0784B6C
:102B60002833984213D0764B3C3398420FD0744BA5
:102B7000503398420BD0724B6433984207D0704B5D
:102B80007833984203D06E4B8C3398427ED1884282
:102B900011D06B49143188420DD0694928318842DF
:102BA00009D067493C31884205D065495031884297
:102BB00001D06349643184F8352084F834500268C8
:102BC00060490A40A16840297ED080297DD000213B
:102BD000E36841EAD301236941EAD301636941EA29
:102BE000D301A36941EAD301E36941EAD301236A2E
:102BF00041EA1311114301605149206849420844D8
:102C00001421B0FBF1F08000E0652046FEF7DEF90C
:102C100094F85C1001F01F0201219140416020688E
:102C2000B84256D043491831884252D0404550D01E
:102C300048454ED050454CD058454AD03D4990313A
:102C4000884246D03B49A831884242D03A4988421E
:102C50003FD03949183188423BD03749303188421A
:102C600037D035494831884233D0334960318842C2
:102C70002FD03149783188422BD02F49903188426A
:102C800027D02D49A831884223D000E02DE02C49DF
:102C900088421ED02A49143188421AD02849283146
:102CA000884216D026493C31884212D024495031FE
:102CB00088420ED02249643188420AD020497831B6
:102CC000884206D01E4901E00AE00BE08C318842C0
:102CD00029D12046FEF7DAF9A06880280CD00CE054
:102CE000102175E74FF4804172E7402060650320B2
:102CF00084F835000120C1E66560216E2079086006
:102D0000D4E9191048606068401E072808D820469A
:102D1000FEF70CFAE06E0560D4E91C10486002E092
:102D2000E566256765676565012084F83500002044
:102D3000A4E6000010000240100402403F8010FE94
:102D4000085402580F00FEFF2DE9F84F04460020FA
:102D50000090002C15D094F83400012813D00120E5
:102D600084F8340094F835500020012D0DD04FF434
:102D70000061616584F83400012000900098BDE88E
:102D8000F88F0120FBE70220F9E7022584F835508F
:102D90006065A54DA44EA44FDFF88CC2DFF8888291
:102DA000DFF88492DFF880A2DFF87CB22068183563
:102DB0003036483708F1600809F178090AF1900ABD
:102DC0000BF1A80B60453BD0A84239D0B04237D0B8
:102DD000B84235D0404533D0484531D050452FD04A
:102DE00058452DD0DFF844C2604529D0DFF83CC2F9
:102DF0000CF1180C604523D0DFF830C20CF1300C18
:102E000060451DD0DFF824C20CF1480C604517D096
:102E1000DFF818C20CF1600C604511D0DFF80CC26D
:102E20000CF1780C60450BD0DFF800C20CF1900C6F
:102E3000604505D0DFF8F4C10CF1A80C604506D15F
:102E4000D0F800C02CF0010CC0F800C005E0D0F8AC
:102E500000C02CF0010CC0F800C02046FEF7E0F9DD
:102E60007149206888422CD0A8422AD0B04228D08C
:102E7000B84226D0404524D0484522D0504520D0E5
:102E800058451ED0694A90421BD0684A1832904279
:102E900017D0664A3032904213D0644A483290428A
:102EA0000FD0624A603290420BD0604A7832904232
:102EB00007D05E4A9032904203D05C4AA8329042DA
:102EC0000DD1026822F01E0242F016020260206C50
:102ED00090B12068026842F0080202600CE00268CB
:102EE00022F00E0242F00A020260206C20B120683B
:102EF000026842F004020260206888424BD0A84277
:102F000049D0B04247D0B84245D0404543D048456B
:102F100041D050453FD058453DD0444A90423AD0E8
:102F2000424A1832904236D0404A3032904232D033
:102F30003E4A483290422ED03C4A603290422AD0DB
:102F40003A4A7832904226D0384A9032904222D083
:102F5000364AA83290421ED0354A90421BD0344A9D
:102F60001432904217D0324A2832904213D0304A5D
:102F70003C3290420FD02E4A503290420BD02C4A15
:102F80006432904207D02A4A7832904203D0284ACD
:102F90008C3290420DD1206E0268D20303D50268B4
:102FA00042F480720260E06E18B1026842F48072EE
:102FB0000260206888422CD0A8422AD0B04228D093
:102FC000B84226D0404524D0484522D0504520D094
:102FD00058451ED0154988421BD0144918318842E3
:102FE00017D012493031884213D0104948318842F5
:102FF0000FD00E49603188420BD00C49783188429D
:1030000007D00A499031884203D00849A831884244
:1030100004D1016841F001010160AFE6016841F0AF
:1030200001010160AAE60000100002401004024005
:103030000854025810B590F89830012B08D0022B94
:1030400006D050F89C1F41F002010160012010BD24
:1030500003689C6D0C4204D1DC6D44F00104DC6516
:1030600005E09C6D31EA04041CD00324DC658B056B
:1030700004D5036853F8E04F14431C604B0504D596
:10308000036853F8E44F14431C600068426D084B1A
:103090000B401A4342650748026842EA9171016099
:1030A000002010BDDC6D44F00204DC65DFE70000A9
:1030B000FFFFCF3F14A8004070B5044694F8980075
:1030C000022806D054F89C0F40F008002060012030
:1030D00070BD2068D0F8C03013F07C5F0AD0D0F803
:1030E000C4309B020DD554F89C0F40F40070206052
:1030F000012070BD54F89C0F40F02000206001209A
:1031000070BDD0F8C400C0F304452B462046FEF73E
:103110007BFC21680120A840C1F8D000C4F89400CD
:10312000002070BD704710B590F89820012A08D093
:10313000022A06D050F89C1F41F0020101600120D4
:1031400010BDCA680B688BB1072A0B6943EA42734A
:103150002BD00C7A4A6942EA8472006F496800EB0E
:10316000C100036042604FF0000010BD072A10D07C
:103170000C7A4B694FEAC26243EA84730C8A42EAD2
:10318000044243EA0203C06E496800EB8100036019
:10319000E9E70B8A8A694FF0605442EA0343CA693F
:1031A00044EA022243EA0203EDE78A69D5E730B533
:1031B000039C90F89850012D06D050F89C1F41F0C8
:1031C00004010160012030BD090141EA820100686B
:1031D00041EA43012143C0F88010002030BD704710
:1031E00070470000F0B5002490F89850022D06D0EA
:1031F00050F89C1F41F0080101600120F0BD4029FA
:103200000BD0412936D0056D8D4260D850F89C1FF7
:1032100041F0200101600120F0BD0568D5F8A060F3
:1032200016F4FE0F18D0D5F8A46076061BD0D5F89A
:10323000A460F60105D5D5F8A06016F0004F00D5C2
:103240000124D5F8A450C5F305252C44456C466FE0
:10325000654306EB85063FE050F89C1F41F02001D6
:1032600001600120F0BD50F89C1F41F480710160A5
:103270000120F0BD0568D5F8B06016F4FE0F18D037
:10328000D5F8B46076061BD0D5F8B460F60105D544
:10329000D5F8B06016F0004F00D50124D5F8B45031
:1032A000C5F305252C44C56C866F654306EB850682
:1032B00012E050F89C1F41F0200101600120F0BD98
:1032C00050F89C1F41F4807101600120F0BD456DF4
:1032D000C66F4D4306EB8506356805F080455560A1
:1032E0002DB3356825F060451560356805F000554B
:1032F0009560356805F000451561B588ADB2D561BA
:103300007568C5F30345D560756805F4801555618A
:10331000756805F4001595617568C5F30665156255
:1033200075680836ED0F55620025174F09E03568BE
:10333000C5F38A451560D8E716F805C003F805C03F
:103340006D1CD2F80CC017F80CC0AC45F4D840295D
:1033500009D041290BD0012220290CD200688A40D3
:10336000C0F898200DE00068C0F8A84009E00068A7
:10337000C0F8B84005E0006801F01F018A40C0F8BD
:103380009C200020F0BD0000B0DE00087047000067
:103390002DE9FE4F0446B64F38688007391D09688D
:1033A00000EA817002902068016D01F47041D0F84C
:1033B00054A00AEA010A016D01F00F01D0F854B0DF
:1033C0000BEA010B016D01F0F001426D0A40019220
:1033D000016D01F07151D0F8548008EA0108016DC7
:1033E00001F06071426D0A400092416D056DCE435F
:1033F000F1054FF0000909D4E943C90506D4B91510
:103400000165C7F800902046FFF7C0FF700510D493
:10341000E84340050DD42068D0F8DC20D0F8E41053
:1034200011404FF480620265C7F80090204600F01A
:1034300061FB029858B18F490298084021680865DD
:103440000298800F386020460299FFF76BFEBAF1B0
:10345000000F0BD0874821680AEA000008654FEA90
:103460009A7038605146204600F046FBBBF1000FD1
:103470000BD0804821680BEA000008654FEA9B707A
:1034800038605946204600F0D3FA019858B179497E
:1034900001980840216808650198800F386020462F
:1034A000019900F0EFFA30050BD4E843000508D489
:1034B00021684FF400600865C7F80090204600F0CE
:1034C0001CFBB00510D4E84380050DD42068D0F86B
:1034D000D820D0F8E01011404FF400720265C7F810
:1034E0000090204600F007FB30030BD4E8430003B4
:1034F00008D421684FF400200865C7F800902046E2
:1035000000F094FAF0030BD4E843C00308D4216818
:103510004FF480300865C7F80090204600F0E9FAC3
:1035200070030BD4E843400308D421684FF4802093
:103530000865C7F80090204600F0DAFAB0030ED410
:10354000E84380030BD421684FF400300865C7F8C6
:103550000090D4F89C0040F08000C4F89C000098D3
:1035600058B1444900980840216808650098800FC8
:10357000386020460099FFF733FEB8F1000F0DD0F8
:103580003C48216808EA000008654FEA98703860F6
:10359000D4F89C0040EA0800C4F89C003649206832
:1035A00088425BD160688168890757D0016A01F061
:1035B0000F02416A1140026A02F03002476A174066
:1035C000026A02F4C072D0F8248008EA0208026A93
:1035D00002F4FC42456A1540026A02F4F022466A8F
:1035E0001640D0F82490D0F820A019B101622046EE
:1035F00000F07BFA2FB1606807623946204600F080
:1036000076FA6FEA090040060ED46FEA0A00400617
:103610000AD46068C16B090CC26B02F03F02402300
:103620000362204600F062FAB8F1000F06D060682D
:10363000C0F820804146204600F056FA35B1606857
:103640000562D4F89C002843C4F89C0036B1606839
:103650000662D4F89C003043C4F89C00D4F89C0067
:10366000002802D02046FFF7BAFDBDE8FE8F00001B
:1036700010A80040FFFFCF3F00A000402DE9F0431D
:1036800093B004464C2295496846FCF7DFFE6CB1C6
:10369000934F2068B84202D100F5807060604FF40B
:1036A000407994F89800002620B108E0012013B07A
:1036B000BDE8F08384F89960204600F013F9206893
:1036C000816921F01001816100F038FB05464FF05F
:1036D00003080DE000F032FB401B0A2808D954F81B
:1036E0009C0F40F00100206004F8048C0120DEE70C
:1036F000206880690007EDD42068816941F00101EC
:10370000816100F01BFB05460DE000F017FB401B3C
:103710000A2808D954F89C0F40F00100206004F8F2
:10372000048C0120C3E720688069C007EDD02068C1
:10373000816941F002018161207C012839D0206833
:10374000816941F040018161607C012837D02068A7
:10375000816921F480418161A07C012835D02068F5
:10376000816941F48051816120688169A26821F4F6
:103770004071114381612068816921F0A401816158
:103780002068016921F010010161E068012822D060
:1037900030B302282BD02068816941F0800181611B
:1037A0002068016941F010010161E068032818D028
:1037B00022E02068816921F040018161C4E720682E
:1037C000816941F480418161C6E72068816921F403
:1037D00080518161C8E72068816941F004018161FD
:1037E0000AE02068816941F02001816104E02068DD
:1037F000816941F020018161207E401E4106E0691F
:10380000401E41EA0020216A491E0843A18A491E40
:1038100040EA01402168C861A06848450FD1A06A0C
:10382000E16A401E491E40EA0121206B401E41EA28
:103830000011A08C401E41EA00402168C860206E43
:1038400028B1206850F8C01F626E11430160D4E9AE
:103850001701C842694609D0206850F8C82FA36EE6
:1038600022F0070251F823301A430260206C48B15D
:10387000206850F8BC2F636C22F0070251F8233007
:103880001A430260A06C50B1206850F8BC2FE36C62
:1038900022F0700251F8233042EA03120260206DD8
:1038A00050B1206850F8BC2F636D22F4E06251F8EB
:1038B000231042EA012101602068B84204D1606807
:1038C000816821F00301816044F8946FA6600120B3
:1038D0002071943C2046FDF7BFFFE8E6C0DE0008FB
:1038E00000A000402DE9F04186B00446142101A853
:1038F000FCF7C5FD474B2268474C1968DFF810817B
:103900000025454E0C3C02274448491C4FF0090C49
:10391000424527D11960012907D1316841F48071EE
:103920003160316801F480710091216841F0080133
:103930002160216801F008010091032101910297A3
:1039400003950495CDF814C001A900F0E5F8002214
:103950000521132000F096FA132000F085FA06B036
:10396000BDE8F081DFF8B880424526D11960012911
:1039700007D1306840F480703060306800F48070A7
:103980000090206840F002002060206800F00200F3
:10399000009060200190029703950495CDF814C023
:1039A00001A9204800F0B8F800220521142000F0F9
:1039B00069FA142000F058FAD1E7DFF86CC06245CC
:1039C000CDD11960012907D1316841F4807131608E
:1039D000316801F480710091216841F00801216093
:1039E000216801F0080100914FF4405101910297C4
:1039F000039504950521059101A900F08DF8002299
:103A000005219F2000F03EFA9F2000F02DFAA6E746
:103A100000A0004014000020EC440258000C0258A2
:103A200000A400400004025800D400407047000089
:103A300010B5114988420DD1104B40211C46A3F10D
:103A40002802FFF7CFFB0D48214628380068FDF714
:103A5000E3F910BD0A498842FBD1084B40213033BD
:103A60001C46A3F12802FFF7BDFB0448214608309D
:103A70000068FDF7FBF910BD800A0020AC5B002058
:103A8000200B002010B5C90610D5094A01689142E3
:103A90000CD1084B41211C46A3F12802FFF7A2FBE1
:103AA0000448214628380068FDF70AFA10BD0000D6
:103AB00000D400400C5C002090F89810012906D03A
:103AC00050F89C1F41F00401016001207047022161
:103AD00080F8981001688A6922F001028A61002149
:103AE000C0F89C10002070477047704770477047BF
:103AF000704770477047704770477047704710B500
:103B00004FF0B041D1F88820024203D0C1F88800BC
:103B1000FFF7F4FF10BD00002DE9F84F0022784DAB
:103B200003264FF001080F274FF0B04CE1E008FAF0
:103B300002F39A461C40002C7ED00B7903F003035D
:103B4000012B01D0022B1BD1D0F80890530006FAAC
:103B500003FB29EA0B09D1F80CB00BFA03FB4BEA83
:103B6000090BC0F808B0436823EA0A0391F80490EF
:103B7000C9F3001909FA02F949EA0309C0F80490E7
:103B80000B79DB439B070ED0D0F80C90530006FA5C
:103B900003FA29EA0A09D1F808A00AFA03FA4AEA5C
:103BA000090AC0F80CA00B7903F00303022B14D10F
:103BB000D30800EB8303D3F820A04FEA42794FEA01
:103BC000D96907FA09FB2AEA0B0AD1F810B00BFAF7
:103BD00009FB4BEA0A0BC3F820B0D0F80090530061
:103BE00006FA03FA29EA0A0991F804A00AF0030A7E
:103BF0000AFA03FA4AEA090AC0F800A04B6813F46B
:103C0000403F75D03F4BD3F8009049F00209C3F80C
:103C100000901B6803F00203009322F0030909F1EE
:103C2000B049D9F808B493074FEA137A07FA0AF3B0
:103C30002BEA030B344B00E05AE0984201D10023F9
:103C400028E0324B984201D1012323E0304B9842C7
:103C500001D102231EE02F4B984201D1032319E02A
:103C60002D4B984201D1042314E02C4B984201D1F2
:103C700005230FE02A4B984201D106230AE0294B85
:103C8000984201D1072305E0274B984201D109232F
:103C900000E00A2303FA0AF343EA0B03C9F80834E5
:103CA000DCF80030A343D1F804905FEAC92900D5BD
:103CB0002343CCF80030DCF80430A343D1F804905F
:103CC0005FEA892900D52343CCF804306B68A3430D
:103CD000D1F804905FEA893900D523436B602B68E3
:103CE000A343D1F804905FEAC93900D523432B6080
:103CF000521C0C6834FA02F37FF419AFBDE8F88F58
:103D000080000058F4440258000002580004025891
:103D100000080258000C0258001002580014025803
:103D200000180258001C025800240258002A01D032
:103D30008161704709048161704700000148806813
:103D40007047000018000020024881680278114482
:103D5000816070471800002010B5032000F0B2F811
:103D600001F03CF90F490A68C2F303230E4AD35C01
:103D700003F01F03D840096801F00F01515C0B4AA2
:103D800001F01F0120FA01F11160094908600F20BC
:103D900000F010F808B1012010BD00F053F8002029
:103DA00010BD00001844025834DF0008280000202D
:103DB0002400002010B58AB00446102C30D2002216
:103DC00021461C2000F05EF81C2000F04DF8194838
:103DD00004601948016841F001010160006800F0C9
:103DE0000100009001A902A801F082F80798C8B16B
:103DF00001F0D0F840001149B0FBF1F1491E104824
:103E00004FF08042026040F2E732C2604160002120
:103E10000161816002F0DCF938B101200AB010BD07
:103E20000120FBE701F0B6F8E5E7054802F0F8F9F4
:103E3000F4E700001C000020E844025840420F0054
:103E40006412002082B00748016841F0020101605D
:103E5000006800F00200019000220F21901E02B0C5
:103E600000F010B8F4440258002809DB00F01F02EB
:103E7000012191404009800000F1E020C0F80011CC
:103E800070470000F0B40D460D4B1B68C3F30223CE
:103E9000C3F10704042C00D90424191D072901D2F9
:103EA000002300E0DB1E012606FA04F1491E29402A
:103EB00099409E40761E16403143F0BC06F088BD06
:103EC0000CED00E000F00701054A10684FF6FF0313
:103ED000184040EA01200349084310607047000081
:103EE0000CED00E00000FA0570B514490A68D243F1
:103EF000520708D5096801F00701814201D001206D
:103F000070BD002070BD0A6822F0070202430A60FB
:103F1000FFF714FF0446094D4FF47A76083D06E09A
:103F2000FFF70CFF001BB04201D9012070BD2868CB
:103F3000C0438004F4D4002070BD00000C48025837
:103F400010B501F005F805490968054AC1F30211E9
:103F5000515C01F01F01C84010BD00002044025810
:103F600034DF000810B569490A6802F003020968E5
:103F7000C1F30531654B1B1D1B68C3F30013634C74
:103F800014342468C4F3CC0414FB03F300EE103A99
:103F9000B8EE400A002971D09FED5D1A5B4BF7EE39
:103FA000000A1033F2B39FED5B2A012A7FD0022A68
:103FB0007CD001EE901A1968F8EE611AC2EE212A3F
:103FC000C1F3080101EE901AF8EE611A40EE011AF1
:103FD00031EEA00A22EE800A1968C1F3462101EEF3
:103FE000101AB8EE411A31EE201AC0EE011ABCEEDA
:103FF000E11A80ED001A1968C1F3064101EE101AAA
:10400000B8EE411A31EE201AC0EE011ABCEEE11AE8
:1040100080ED011A1968C1F3066101EE101AB8EEBD
:10402000411A00E008E071EE200A80EE201ABCEE92
:10403000C10A80ED020A10BD344A283A1468A40669
:104040001ED51268C2F3C104334AE24001EE902A41
:10405000F8EE612A01EE901A1968F8EE611A82EE04
:10406000A12AC1F3080101EE901AF8EE611A40EEA0
:10407000011A31EEA00A22EE000AADE741E016E097
:1040800001EE901ADFED252A1968F8EE611A82EE2A
:10409000A12AC1F3080101EE901AF8EE611A40EE70
:1040A000011A31EEA00A22EE000A95E713E001EEB4
:1040B000901A1968F8EE611AC2EE212AC1F30801BC
:1040C00001EE901AF8EE611A40EE011A31EEA00AE4
:1040D00022EE800A80E701EE901ADFED112A1968BE
:1040E000F8EE611A82EEA12AC1F3080101EE901ADE
:1040F000F8EE611A40EE011A31EEA00A22EE000A33
:104100006AE7002101604160816010BD28440258C7
:10411000000000390024744A0090D0030024744C3D
:10412000001BB74B10B569490A6802F00302096821
:10413000C1F30551654B1B1D1B68C3F30023634C82
:104140001C342468C4F3CC0414FB03F300EE103ACF
:10415000B8EE400A002971D09FED5D1A5B4BF7EE77
:10416000000A1833F2B39FED5B2A012A7FD0022A9E
:104170007CD001EE901A1968F8EE611AC2EE212A7D
:10418000C1F3080101EE901AF8EE611A40EE011A2F
:1041900031EEA00A22EE800A1968C1F3462101EE31
:1041A000101AB8EE411A31EE201AC0EE011ABCEE18
:1041B000E11A80ED001A1968C1F3064101EE101AE8
:1041C000B8EE411A31EE201AC0EE011ABCEEE11A27
:1041D00080ED011A1968C1F3066101EE101AB8EEFC
:1041E000411A00E008E071EE200A80EE201ABCEED1
:1041F000C10A80ED020A10BD344A283A1468A406A8
:104200001ED51268C2F3C104334AE24001EE902A7F
:10421000F8EE612A01EE901A1968F8EE611A82EE42
:10422000A12AC1F3080101EE901AF8EE611A40EEDE
:10423000011A31EEA00A22EE000AADE741E016E0D5
:1042400001EE901ADFED252A1968F8EE611A82EE68
:10425000A12AC1F3080101EE901AF8EE611A40EEAE
:10426000011A31EEA00A22EE000A95E713E001EEF2
:10427000901A1968F8EE611AC2EE212AC1F30801FA
:1042800001EE901AF8EE611A40EE011A31EEA00A22
:1042900022EE800A80E701EE901ADFED112A1968FC
:1042A000F8EE611A82EEA12AC1F3080101EE901A1C
:1042B000F8EE611A40EE011A31EEA00A22EE000A71
:1042C0006AE7002101604160816010BD2844025806
:1042D000000000390024744A0090D0030024744C7C
:1042E000001BB74B2DE9FC5F044600250026206823
:1042F000F84FC043010104F108000190DFF8D893A2
:1043000004F1280000900DD4606EB8B1B0F5801FA4
:1043100019D0B0F5001F1CD0B0F5401F00D001250A
:10432000EDB12E462088C043C00535D4A06D0528C8
:104330002FD2DFE800F01D22282F2F00386840F42C
:1043400000303860ECE70221019804F00DFE0546CC
:10435000E6E70221009804F099FE0546E0E7D9F867
:104360000000616E20F440100843C9F80000D9E74E
:10437000386840F4003038600CE00021019804F007
:10438000F3FD054606E00021009804F07FFE054697
:1043900000E00125A5B12E462088DFF84083C04308
:1043A00040051FD4D4F8A400B0F5C00F18D010DC1D
:1043B00050B3B0F5001F2CD0B0F5800F0FD12EE018
:1043C000D9F80000A16D20F007000843C9F80000EB
:1043D000E2E7B0F5000F03D0B0F5200F00D00125C3
:1043E0001DB32E462088C043000531D4D4F8A80060
:1043F000B0F1407F2AD022DCF0B3B0F1807F4BD007
:10440000B0F1007F21D14DE0386840F400303860D1
:10441000E6E70021019804F0A7FD0546E0E700214A
:10442000009804F033FE0546DAE7D8F80000D4F827
:10443000A41020F460000843C8F80000D2E7B0F1EF
:10444000806F03D0B0F1A06F00D0012585B32E4658
:104450002068C04380010AD4E06C30B1102832D00B
:10446000202836D0302800D001258DB32E46208854
:10447000C043C00446D400E009E0E06DB0F5005F41
:104480005CD036DCA0B3B0F5805F38D150E038683E
:1044900040F400303860D9E70021019804F064FD51
:1044A0000546D3E70021009804F0F0FD0546CDE76E
:1044B000FFE7D8F80000D4F8A81020F0E060084327
:1044C000C8F80000C4E7386840F400303860CCE732
:1044D00005E00221019804F047FD0546C5E77E4846
:1044E000001F0168E26C21F0300111430160BEE75A
:1044F00019E0B0F5405F03D0B0F5804F00D0012542
:1045000015B32E462088C04380042FD4206EB0F50A
:10451000403F29D021DC38B3B0F5803F38D0B0F52A
:10452000003F20D13AE0386840F400303860E7E7D7
:104530000021019804F018FD0546E1E700210098EC
:1045400004F0A4FD0546DBE7D9F80000E16D20F496
:10455000E0400843C9F80000D4E7B0F5802F03D04D
:10456000B0F5A02F00D00125F5B12E462088C0431C
:1045700040042BD4D4F8AC00B0F1405F24D01CDC54
:1045800010B3B0F1805F4FD0B0F1005F1BD152E0AB
:104590000121019804F0E8FC0546E5E701210098B7
:1045A00004F074FD0546DFE7D9F80000216E20F421
:1045B000E0200843C9F80000D8E7B0F1804F03D0ED
:1045C000B0F1A04F00D00125A5B32E462088C043EE
:1045D00000040AD4E06E30B1B0F1805F3DD0B0F19C
:1045E000005F3FD00125B5B32E462068C043C0010F
:1045F0000AD4A06C30B1012843D0022846D0032849
:1046000000D0012545B32E462068C04340025AD44D
:10461000DFF8CCB0DBF8000040F48070CBF800008D
:10462000FFF78CFB824648E00121019804F09CFCD6
:104630000546C9E705E00121009804F027FD05467D
:10464000C2E7D8F80000D4F8AC1020F0E0400843EE
:10465000C8F80000BAE70BE01EE0386840F400300C
:104660003860C0E70121019804F07EFC0546BAE7F6
:10467000D9F80000E16E20F040500843C9F800006E
:10468000B3E7386840F400303860BBE70221019896
:1046900004F06AFC0546B5E70F48001F0168A26CEC
:1046A00021F0030111430160AEE7FFF747FBA0EBE8
:1046B0000A00642801D9032503E0DBF80000C005E7
:1046C000F3D58DB12E462078DFF818A0C043C0077F
:1046D00063D073E02C4402585044025858440258A6
:1046E0000048025854440258DFF850B4DBF8000088
:1046F000B4F8B01000F4407001F44071884211D059
:10470000DBF8000020F44070DBF8001041F4803149
:10471000CBF80010DBF8001021F48031CBF800104A
:10472000CBF80000D4F8B000B0F5807F11D1FFF7CE
:1047300005FB824609E0FFF701FBA0EB0A0141F20D
:104740008830814201D9032503E0DBF800008007AF
:10475000F1D50DB12E46B6E7D4F8B000C0F3012173
:1047600003290FD0F5486038016821F47C510160BD
:10477000DBF80000B4F8B010C1F30B010843CBF82C
:104780000000A0E7ED4960390A68ED4B22F47C5245
:10479000184042EA10100860EAE7A06F18280BD012
:1047A00005DC48B1082815D0102804D118E02028CD
:1047B00002D0282800D00125C5B12E462078C0435C
:1047C00080072BD4606F062825D2DFE800F025187B
:1047D0001E2525250121019804F0C6FB0546EBE7BF
:1047E0000121009804F052FC0546E5E7DAF80000E4
:1047F000A16F20F038000843CAF80000DEE701216D
:10480000019804F0B1FB054606E00121009804F090
:104810003DFC054600E001256DB12E462078C043E1
:10482000400720D4D4F89000062819D2DFE800F021
:10483000190C12191919DAF80000616F20F007003D
:104840000843CAF80000E9E70121019804F08CFB55
:10485000054606E00121009804F018FC054600E03A
:10486000012595B12E462078C043800620D4D4F887
:104870008C00B0F1405F19D011DCB8B1B0F1805FAD
:1048800028D0B0F1005F10D12AE0D8F80000D4F8A9
:10489000901020F007000843C8F80000E3E7B0F1EB
:1048A000804F03D0B0F1A04F00D00125F5B12E46C6
:1048B0002078C04340062CD4D4F89800B0F5406F5F
:1048C00025D01DDC18B3B0F5806F34D0B0F5006F83
:1048D0001CD136E00021019804F046FB0546E5E7CF
:1048E0000221009804F0D2FB0546DFE7DAF8000069
:1048F000D4F88C1020F0E0400843CAF80000D7E755
:10490000B0F5805F03D0B0F5A05F00D00125F5B110
:104910002E462078C04300062CD4D4F89C00B0F575
:10492000C04F25D01DDC18B3B0F5005F2CD0B0F51A
:10493000804F1CD12EE00021019804F015FB0546A4
:10494000E5E70221009804F0A1FB0546DFE7D8F86F
:104950000000D4F8981020F4E0500843C8F8000094
:10496000D7E7B0F5004F03D0B0F5204F00D00125B8
:10497000B5B12E462078C04300072AD4D4F8800071
:10498000B0F5805F16D01BE00021019804F0ECFA2E
:104990000546EDE70221009804F078FB0546E7E7BD
:1049A000D8F80000D4F89C1020F460400843C8F800
:1049B0000000DFE70221009804F068FB00B1012647
:1049C000DAF80000D4F8801020F440500843CAF808
:1049D00000002078C043C00613D4D4F89400B0F58A
:1049E000807F05D10221009804F050FB00B1012620
:1049F000D8F80000D4F8941020F440700843C8F8A8
:104A000000002068C04300030BD4D4F8A000E8B332
:104A1000B0F5803F7DD0B0F5003F00D00125B5B3A3
:104A20002E462068C04340030DD4D4F88400B0F56E
:104A3000801F70D0B0F5001F6ED0B0F5401F00D0C1
:104A400001252DB32E462068C043C00307D4206D36
:104A5000F0B3B0F5803F75D00125D5B32E46206860
:104A6000C043800005D40221009804F00FFB00B180
:104A700001262068C043800311D4E06F68B1B0F50F
:104A8000807F76D0B0F5007F07D002E05BE066E083
:104A90007BE0B0F5407F00D00125DDB32E462068D5
:104AA000C043C00207D4D9F80000216F20F00040B5
:104AB0000843C9F800002068C043800207D4D9F831
:104AC0000000A16E20F080700843C9F8000001E0EA
:104AD00065E06FE02068C04340000AD417486038A2
:104AE000016821F4004101600168D4F8B420114349
:104AF00001602068C04307D4104824380168626D03
:104B000021F04051114301602068C04300020DD4E0
:104B100003E01EE05BE02DE031E0DAF80000D4F8BD
:104B2000881020F440000843CAF8000020790025CE
:104B3000C04300F00100284352D057E070440258AF
:104B4000FFFCFF0F30E00021019804F00DFA05464C
:104B500065E70221009804F099FA05465FE7D8F866
:104B60000000D4F8A01020F440300843C8F800003A
:104B700057E727E0386840F40030386061E70121EA
:104B8000009804F083FA05465BE7DAF80000D4F8F1
:104B9000841020F440100843CAF8000053E7386836
:104BA00040F40030386058E70221019804F0DCF945
:104BB000054652E72E480168226D21F480311143E9
:104BC00001604CE7386840F40030386065E7DAF897
:104BD0000000E16F20F440700843CAF800005EE76F
:104BE0000021019804F0C0F900B106462079C043C5
:104BF00000F00200284305D10121019804F0B4F926
:104C000000B106462079C04300F00400284305D1D6
:104C10000221019804F0A8F900B106462079C043AA
:104C200000F00800284305D10021009804F02EFA76
:104C300000B106462079C04300F01000284305D19A
:104C40000121009804F022FA00B106462079C04301
:104C500000F02000054305D10221009804F016FA67
:104C600000B1064616B10120BDE8FC9F0020FBE71D
:104C70004C4402582DE9F05F04460D46002C17D035
:104C8000DFF84C82D8F8000000F00F00A84211D2E3
:104C9000D8F8000020F00F002843C8F80000D8F82A
:104CA000000000F00F00A84204D00120BDE8F09FF2
:104CB0000120FBE72078874E40070AD5206931683C
:104CC00001F07001884204D9316821F0700101437C
:104CD00031602078804F00070AD56069396801F09B
:104CE0007001884204D9396821F0700101433960AC
:104CF0002078C0060AD5A069396801F4E0618842CD
:104D000004D9396821F4E061014339602078DFF883
:104D1000CC9180060DD5E069D9F8001001F0700142
:104D2000884206D9D9F8001021F070010143C9F872
:104D30000010207880070AD5E068316801F00F0183
:104D4000884204D9316821F00F0101433160207895
:104D5000C00743D03068A16820F470600843306019
:104D60005C4960681839022808D003280BD0012854
:104D70000ED00968490710D4012097E70968890314
:104D80000BD4012092E70968890106D401208DE740
:104D90000968C90501D4012088E7DFF838A1AAF124
:104DA000080ADAF8001021F007010143CAF80010E0
:104DB000FEF7C4FF834609E0FEF7C0FFA0EB0B013E
:104DC00041F28830814201D903206FE7DAF8000010
:104DD000616800F03800B0EBC10FEDD1207880079A
:104DE0000AD5E068316801F00F01884204D23168C9
:104DF00021F00F0101433160D8F8000000F00F00EE
:104E0000A8420ED9D8F8000020F00F002843C8F8B7
:104E10000000D8F8000000F00F00A84201D00120E7
:104E200044E7207840070AD52069316801F0700115
:104E3000884204D2316821F070010143316020784A
:104E400000070AD56069396801F07001884204D210
:104E5000396821F07001014339602078C0060AD515
:104E6000A069396801F4E061884204D2396821F40C
:104E7000E06101433960207880060DD5E069D9F8FA
:104E8000001001F07001884206D2D9F8001021F01C
:104E900070010143C9F8001000F0A0F83168C1F3B7
:104EA00003220F498A5C02F01F02D040326802F0F0
:104EB0000F02895C0B4A01F01F0120FA01F1116019
:104EC0000949086009480068BDE8F05FFEF772BF55
:104ED00000200052184402581C4402582044025832
:104EE00034DF000828000020240000201C000020DF
:104EF0003F220260144A126802F007024260124A1E
:104F00000832136803F470638360136803F00F03BF
:104F1000C360126802F0700202610B4A0C3213681F
:104F200003F070034361126802F4E0628261064A92
:104F30001032126802F07002C2610448006800F08A
:104F40000F00086070470000104402580020005213
:104F500000B500F043F80B490A68C2F303230A4A7C
:104F6000D35C03F01F03D840096801F00F01515CC6
:104F7000064A01F01F0120FA01F11160044A106095
:104F8000084600BD1844025834DF000828000020FD
:104F90002400002000B5FFF7DBFF05490968054A3A
:104FA000C1F30211515C01F01F01C84000BD0000B7
:104FB0001C44025834DF000800B5FFF7C9FF05495B
:104FC0000968054AC1F30221515C01F01F01C84084
:104FD00000BD00001C44025834DF000830B56448AE
:104FE0000068654C10F03801624808D002110829A9
:104FF0000DD010290DD018290DD0104630BD2168D4
:105000008906FBD52168C1F3C101C84030BD1046F7
:1050100030BD5A4830BD564918310A6802F00302C3
:105020000968C1F30511524B1C331B6803F00103DF
:105030004F4D24352D68C5F3CC0515FB03F300EE69
:10504000103AB8EE400A002977D0DFED4D0A484B00
:10505000B7EE001A20333AB39FED4A2A012A58D0FE
:10506000022A6CD001EE901A1868F8EE611AC2EEAE
:10507000212AC0F3080001EE900AF8EE611A40EE12
:10508000201A31EE810A22EE800A1868C0F3462009
:10509000401C00EE900AF8EE600A80EE201ABCEE8A
:1050A000C10A10EE100A30BD226892061BD5226894
:1050B000C2F3C102D04001EE900A1868F8EE612AEE
:1050C00001EE901AF8EE611A82EEA12AC0F30800F0
:1050D00001EE900AF8EE611A40EE201A31EE810AD4
:1050E00022EE000AD1E701EE901ADFED272A1868B8
:1050F000F8EE611A82EEA12AC0F3080001EE900AD0
:10510000F8EE611A40EE201A31EE810A22EE000A12
:10511000BBE701EE901A1868F8EE611AC2EE212A78
:10512000C0F3080001EE900AF8EE611A40EE201A72
:1051300031EE810A22EE800AA7E716E0FFE701EED2
:10514000901ADFED122A1868F8EE611A82EEA12A91
:10515000C0F3080001EE900AF8EE611A40EE201A42
:1051600031EE810A22EE000A8FE7002030BD0000F8
:10517000104402580090D0030044025800366E01DB
:10518000000000390024744A0024744C001BB74B03
:105190002DE9F05F0446002C10D02078DFF8F8836A
:1051A000FE4EFF4DC0075DD0D8F8000000F038007B
:1051B000316810281FD0182803D006E00120BDE870
:1051C000F09F01F00300022815D06068B0F5803F21
:1051D00018D0E0B1B0F5A02F22D0286820F480309C
:1051E0002860286820F480202860606860B3FEF79B
:1051F000A5FD074624E02868800333D5606810BB0E
:105200000120DCE7286840F480302860EDE728685A
:1052100020F480302860286820F480202860E4E7AB
:10522000286840F480202860286840F48030286096
:10523000DBE7FEF783FDC01B642801D90320BEE72E
:1052400028688003F5D50DE0FEF778FD074606E0F7
:10525000FEF774FDC01B642801D90320AFE728685E
:105260008003F5D42078800764D5D8F8000000F0DA
:1052700038003168DFF8289309F1040970B1182863
:1052800001D188070AD0E068A0B3296821F019018C
:1052900001432960FEF752FD07462CE028684007CD
:1052A00001D5E06848B12868E16820F0190008439A
:1052B0002860FEF743FD074608E001207FE7FEF780
:1052C0003DFDC01B022801D9032078E7286840076C
:1052D000F5D5D9F80000217C20F0FE4040EA0160BD
:1052E000C9F8000026E0FEF729FDC01B022802D9FC
:1052F000032064E70CE028684007F4D5D9F80000E3
:10530000217C20F0FE4040EA0160C9F8000011E075
:10531000286820F001002860FEF710FD074606E02F
:10532000FEF70CFDC01B022801D9032047E72868BF
:105330004007F5D42078C00655D5D8F8000000F015
:1053400038003168DFF850920828A9F104090FD01D
:10535000182803D101F00300012809D0E06978B3CF
:10536000286840F080002860FEF7E8FC074619E056
:105370002868C00504D5E069802801D001201EE717
:10538000D9F8000094F8201020F07C5040EA016029
:10539000C9F8000027E0FEF7D1FCC01B022801D9A4
:1053A00003200CE72868C005F5D5D9F8000094F86B
:1053B000201020F07C5040EA0160C9F8000012E0A3
:1053C000FFE7286820F080002860FEF7B7FC07465A
:1053D00006E0FEF7B3FCC01B022801D90320EEE66D
:1053E0002868C005F5D42078000730D5DFF8AC91E7
:1053F000606909F14C09A8B1D9F8000040F001003A
:10540000C9F80000FEF79AFC074606E0FEF796FC96
:10541000C01B022801D90320D1E6D9F8000080077B
:10542000F4D514E0D9F8000020F00100C9F800001C
:10543000FEF784FC074606E0FEF780FCC01B02284E
:1054400001D90320BBE6D9F800008007F4D4207806
:10545000800626D5A06990B1286840F48050286065
:10546000FEF76CFC074606E0FEF768FCC01B02284E
:1054700001D90320A3E628688004F5D511E0286847
:1054800020F480502860FEF759FC074606E0FEF73E
:1054900055FCC01B022801D9032090E6286880042F
:1054A000F5D4207840075DD53E4F386840F48070D1
:1054B0003860FEF743FC814607E0FEF73FFCA0EBB7
:1054C0000900642801D9032079E63868C005F4D5BD
:1054D000324FA0684837012812D0B0B105281DD03E
:1054E000386820F001003860386820F00400386027
:1054F000A06841F2883930B3FEF720FC82461EE0F6
:10550000386840F001003860F2E7386820F00100A8
:105510003860386820F004003860E9E7386840F007
:1055200004003860386840F001003860E0E7FEF7BA
:1055300005FCA0EB0A00484501D903203FE6386886
:105540008007F4D50EE0FEF7F9FB824607E0FEF790
:10555000F5FBA0EB0A00484501D903202FE6386887
:105560008007F4D4616AB1B1D8F80000DFF82CA04C
:10557000C0F3C2000AF1080A4FF6F87B0AF10409E9
:10558000AAF1040803287CD0022911D0286820F051
:105590008070286008E0E5E0104402582844025872
:1055A0000044025800480258FEF7C8FB044689E050
:1055B000286820F080702860FEF7C0FB074606E0F0
:1055C000FEF7BCFBC01B022801D90320F7E52868C1
:1055D0008001F5D4306840F2F3318843E16A40EA53
:1055E0000110A16A08433060208E616B401E491E85
:1055F0004FF6FF72C0F3080002EA41210843218FF1
:105600004FF4FE02491E02EA0141084394F83C109F
:10561000491E120202EA01610843CAF80000D8F8E4
:10562000000020F00100C8F80000D9F80000A16CCB
:1056300020EA0B0040EAC100C9F80000D8F80000D9
:10564000216C20F00C000843C8F80000D8F80000D6
:10565000616C20F002000843C8F80000D8F8000090
:1056600040F48030C8F80000D8F8000040F4003062
:10567000C8F80000D8F8000040F48020C8F8000006
:1056800000E023E0D8F8000040F00100C8F8000076
:10569000286840F080702860FEF750FB044606E062
:1056A000FEF74CFB001B022801D9032087E5286880
:1056B0008001F5D556E0FEF741FB001B022801D919
:1056C00003207CE528688001F5D44BE03268DAF8E5
:1056D0000000012921D0A36A02F0030199421CD1E4
:1056E000E16AC2F30512914217D1216BC0F308029F
:1056F000491E8A4211D1616BC0F34622491E914274
:105700000BD1A16BC0F30642491E914205D1E16B5A
:10571000C0F30660491E814201D001204FE5D9F84F
:105720000000C0F3CC00A16C81421BD0D8F800006F
:1057300020F00100C8F80000FEF700FB0546FEF768
:10574000FDFAA842FBD0D9F80000A16C20EA0B00BA
:1057500040EAC100C9F80000D8F8000040F001009C
:10576000C8F8000000202AE52DE9F04104460D4666
:1057700016461F46002C03D0D4F8880018B108E064
:105780000120BDE8F081002084F88400204601F06B
:1057900069FB2420C4F888002068016821F0010119
:1057A0000160A06A10B1204604F08EFA204604F091
:1057B0001BFC01281DD02068816841F48041816074
:1057C0002068816821F4004129438160700540EA26
:1057D000074120680268084B1A400A4302602068AB
:1057E000016841F0010101602046BDE8F04104F08C
:1057F000CFBA0120C5E70000FFFF00FC70470000A2
:105800002DE9F047044626683169726901EA02050C
:10581000D6F80890002094F8817006F1300812053F
:105820000AD5090708D5B06940F40060B061204688
:1058300000F089FABDE8F08705F0400105F020028C
:10584000114308D1690706D5616F20468847216F4B
:1058500020468847012005F04101012905D169074B
:1058600003D4216F20468847012005F02201022938
:1058700005D1690703D4616F2046884701200028BD
:10588000D8D128074FF001065DD52068816941F025
:10589000080181612068816941F0100181612068FF
:1058A000816941F4006181612068016921F008018A
:1058B00001612068806810F4404F22D025E0E06844
:1058C0000F2807D92068006B616E0860606E001DAC
:1058D000606611E0072807D9B8F80000616E0880FB
:1058E000606E801C606607E0206890F83000616E92
:1058F0000870606E401C6066B4F86A00401EA4F830
:105900006A00B4F86A000028D9D1204603F066FD89
:1059100084F88160D4F8840018B12046FFF76EFF48
:1059200088E7052F07D0042F09D0032F82D1204606
:1059300000F0E6FB7EE7204600F0E3FB7AE7204636
:1059400000F000FA76E715F4587FE9D068060AD52A
:10595000D4F8840040F00400C4F884002068816911
:1059600041F040018161A8050AD5D4F8840040F0D7
:105970000100C4F884002068816941F400718161EC
:10598000E8050AD5D4F8840040F00800C4F8840083
:105990002068816941F480718161A8060AD5D4F834
:1059A000840040F08000C4F884002068816941F0E0
:1059B00020018161D4F884000028B1D020680168FA
:1059C00021F0010101602068016940F26B329143CE
:1059D0000161C9F38130032805D084F88160204635
:1059E000FFF70CFF26E72068816821F440418160C1
:1059F0000E4DE06F50B10565E06FFCF781FA28B1FC
:105A0000D4F8840040F04000C4F88400A06F00285F
:105A100086D00565A06FFCF773FA00288AD054F889
:105A2000840F40F04000206004E7000097940008D5
:105A30002DE9F0410446002C12D00025A562DFF8C4
:105A400058812068554E564F40450BD0B04209D082
:105A5000B84207D0E0680F2804D90120BDE8F081E2
:105A60000120FBE7204603F022FD01462068404567
:105A700005D0B04203D0B84201D0082907D840452C
:105A800003D0B04201D0B84203D1102901D901207E
:105A9000E4E794F8810020B984F88050204600F0B3
:105AA00081F8022084F881002068016821F001015A
:105AB00001602068816801F4F812A169B1F1806F7A
:105AC0000ED16168B1F5800F01D1A36B23B139B953
:105AD000A16BB1F1805F03D1016841F48051016095
